{
	"contracts/FundMe.sol": {
		"FundMe": {
			"abi": [
				{
					"inputs": [
						{
							"internalType": "address",
							"name": "",
							"type": "address"
						}
					],
					"name": "addressToAmountFunded",
					"outputs": [
						{
							"internalType": "uint256",
							"name": "",
							"type": "uint256"
						}
					],
					"stateMutability": "view",
					"type": "function"
				},
				{
					"inputs": [],
					"name": "fund",
					"outputs": [],
					"stateMutability": "payable",
					"type": "function"
				},
				{
					"inputs": [
						{
							"internalType": "uint256",
							"name": "ethAmount",
							"type": "uint256"
						}
					],
					"name": "getConversionRate",
					"outputs": [
						{
							"internalType": "uint256",
							"name": "",
							"type": "uint256"
						}
					],
					"stateMutability": "view",
					"type": "function"
				},
				{
					"inputs": [],
					"name": "getPrice",
					"outputs": [
						{
							"internalType": "uint256",
							"name": "",
							"type": "uint256"
						}
					],
					"stateMutability": "view",
					"type": "function"
				},
				{
					"inputs": [],
					"name": "getVersion",
					"outputs": [
						{
							"internalType": "uint256",
							"name": "",
							"type": "uint256"
						}
					],
					"stateMutability": "view",
					"type": "function"
				}
			],
			"devdoc": {
				"kind": "dev",
				"methods": {},
				"version": 1
			},
			"evm": {
				"assembly": "    /* \"contracts/FundMe.sol\":150:1201  contract FundMe {\r... */\n  mstore(0x40, 0x80)\n  callvalue\n  dup1\n  iszero\n  tag_1\n  jumpi\n  0x00\n  dup1\n  revert\ntag_1:\n  pop\n  dataSize(sub_0)\n  dup1\n  dataOffset(sub_0)\n  0x00\n  codecopy\n  0x00\n  return\nstop\n\nsub_0: assembly {\n        /* \"contracts/FundMe.sol\":150:1201  contract FundMe {\r... */\n      mstore(0x40, 0x80)\n      jumpi(tag_1, lt(calldatasize, 0x04))\n      shr(0xe0, calldataload(0x00))\n      dup1\n      0x0d8e6e2c\n      eq\n      tag_2\n      jumpi\n      dup1\n      0x3e47d6f3\n      eq\n      tag_3\n      jumpi\n      dup1\n      0x6e5b6b28\n      eq\n      tag_4\n      jumpi\n      dup1\n      0x98d5fdca\n      eq\n      tag_5\n      jumpi\n      dup1\n      0xb60d4288\n      eq\n      tag_6\n      jumpi\n    tag_1:\n      0x00\n      dup1\n      revert\n        /* \"contracts/FundMe.sol\":480:683  function getVersion() public view returns (uint256) {\r... */\n    tag_2:\n      callvalue\n      dup1\n      iszero\n      tag_7\n      jumpi\n      0x00\n      dup1\n      revert\n    tag_7:\n      pop\n      tag_8\n      tag_9\n      jump\t// in\n    tag_8:\n      mload(0x40)\n      tag_10\n      swap2\n      swap1\n      tag_11\n      jump\t// in\n    tag_10:\n      mload(0x40)\n      dup1\n      swap2\n      sub\n      swap1\n      return\n        /* \"contracts/FundMe.sol\":175:231  mapping(address => uint256) public addressToAmountFunded */\n    tag_3:\n      callvalue\n      dup1\n      iszero\n      tag_12\n      jumpi\n      0x00\n      dup1\n      revert\n    tag_12:\n      pop\n      tag_13\n      0x04\n      dup1\n      calldatasize\n      sub\n      dup2\n      add\n      swap1\n      tag_14\n      swap2\n      swap1\n      tag_15\n      jump\t// in\n    tag_14:\n      tag_16\n      jump\t// in\n    tag_13:\n      mload(0x40)\n      tag_17\n      swap2\n      swap1\n      tag_11\n      jump\t// in\n    tag_17:\n      mload(0x40)\n      dup1\n      swap2\n      sub\n      swap1\n      return\n        /* \"contracts/FundMe.sol\":967:1196  function getConversionRate(uint256 ethAmount) public view returns (uint256){\r... */\n    tag_4:\n      callvalue\n      dup1\n      iszero\n      tag_18\n      jumpi\n      0x00\n      dup1\n      revert\n    tag_18:\n      pop\n      tag_19\n      0x04\n      dup1\n      calldatasize\n      sub\n      dup2\n      add\n      swap1\n      tag_20\n      swap2\n      swap1\n      tag_21\n      jump\t// in\n    tag_20:\n      tag_22\n      jump\t// in\n    tag_19:\n      mload(0x40)\n      tag_23\n      swap2\n      swap1\n      tag_11\n      jump\t// in\n    tag_23:\n      mload(0x40)\n      dup1\n      swap2\n      sub\n      swap1\n      return\n        /* \"contracts/FundMe.sol\":691:959  function getPrice() public view returns(uint256) {\r... */\n    tag_5:\n      callvalue\n      dup1\n      iszero\n      tag_24\n      jumpi\n      0x00\n      dup1\n      revert\n    tag_24:\n      pop\n      tag_25\n      tag_26\n      jump\t// in\n    tag_25:\n      mload(0x40)\n      tag_27\n      swap2\n      swap1\n      tag_11\n      jump\t// in\n    tag_27:\n      mload(0x40)\n      dup1\n      swap2\n      sub\n      swap1\n      return\n        /* \"contracts/FundMe.sol\":244:472  function fund() public payable {\r... */\n    tag_6:\n      tag_28\n      tag_29\n      jump\t// in\n    tag_28:\n      stop\n        /* \"contracts/FundMe.sol\":480:683  function getVersion() public view returns (uint256) {\r... */\n    tag_9:\n        /* \"contracts/FundMe.sol\":523:530  uint256 */\n      0x00\n        /* \"contracts/FundMe.sol\":541:572  AggregatorV3Interface priceFeed */\n      dup1\n        /* \"contracts/FundMe.sol\":597:639  0x8A753747A1Fa494EC906cE90E9f37563A8AF630e */\n      0x8a753747a1fa494ec906ce90e9f37563a8af630e\n        /* \"contracts/FundMe.sol\":541:640  AggregatorV3Interface priceFeed = AggregatorV3Interface(0x8A753747A1Fa494EC906cE90E9f37563A8AF630e) */\n      swap1\n      pop\n        /* \"contracts/FundMe.sol\":656:665  priceFeed */\n      dup1\n        /* \"contracts/FundMe.sol\":656:673  priceFeed.version */\n      0xffffffffffffffffffffffffffffffffffffffff\n      and\n      0x54fd4d50\n        /* \"contracts/FundMe.sol\":656:675  priceFeed.version() */\n      mload(0x40)\n      dup2\n      0xffffffff\n      and\n      0xe0\n      shl\n      dup2\n      mstore\n      0x04\n      add\n      0x20\n      mload(0x40)\n      dup1\n      dup4\n      sub\n      dup2\n      dup7\n      dup1\n      extcodesize\n      iszero\n      dup1\n      iszero\n      tag_31\n      jumpi\n      0x00\n      dup1\n      revert\n    tag_31:\n      pop\n      gas\n      staticcall\n      iszero\n      dup1\n      iszero\n      tag_33\n      jumpi\n      returndatasize\n      0x00\n      dup1\n      returndatacopy\n      revert(0x00, returndatasize)\n    tag_33:\n      pop\n      pop\n      pop\n      pop\n      mload(0x40)\n      returndatasize\n      not(0x1f)\n      0x1f\n      dup3\n      add\n      and\n      dup3\n      add\n      dup1\n      0x40\n      mstore\n      pop\n      dup2\n      add\n      swap1\n      tag_34\n      swap2\n      swap1\n      tag_35\n      jump\t// in\n    tag_34:\n        /* \"contracts/FundMe.sol\":649:675  return priceFeed.version() */\n      swap2\n      pop\n      pop\n        /* \"contracts/FundMe.sol\":480:683  function getVersion() public view returns (uint256) {\r... */\n      swap1\n      jump\t// out\n        /* \"contracts/FundMe.sol\":175:231  mapping(address => uint256) public addressToAmountFunded */\n    tag_16:\n      mstore(0x20, 0x00)\n      dup1\n      0x00\n      mstore\n      keccak256(0x00, 0x40)\n      0x00\n      swap2\n      pop\n      swap1\n      pop\n      sload\n      dup2\n      jump\t// out\n        /* \"contracts/FundMe.sol\":967:1196  function getConversionRate(uint256 ethAmount) public view returns (uint256){\r... */\n    tag_22:\n        /* \"contracts/FundMe.sol\":1034:1041  uint256 */\n      0x00\n        /* \"contracts/FundMe.sol\":1051:1067  uint256 ethPrice */\n      dup1\n        /* \"contracts/FundMe.sol\":1070:1080  getPrice() */\n      tag_37\n        /* \"contracts/FundMe.sol\":1070:1078  getPrice */\n      tag_26\n        /* \"contracts/FundMe.sol\":1070:1080  getPrice() */\n      jump\t// in\n    tag_37:\n        /* \"contracts/FundMe.sol\":1051:1080  uint256 ethPrice = getPrice() */\n      swap1\n      pop\n        /* \"contracts/FundMe.sol\":1089:1111  uint256 ethAmountInUsd */\n      0x00\n        /* \"contracts/FundMe.sol\":1139:1158  1000000000000000000 */\n      0x0de0b6b3a7640000\n        /* \"contracts/FundMe.sol\":1126:1135  ethAmount */\n      dup5\n        /* \"contracts/FundMe.sol\":1115:1123  ethPrice */\n      dup4\n        /* \"contracts/FundMe.sol\":1115:1135  ethPrice * ethAmount */\n      tag_38\n      swap2\n      swap1\n      tag_39\n      jump\t// in\n    tag_38:\n        /* \"contracts/FundMe.sol\":1114:1158  (ethPrice * ethAmount) / 1000000000000000000 */\n      tag_40\n      swap2\n      swap1\n      tag_41\n      jump\t// in\n    tag_40:\n        /* \"contracts/FundMe.sol\":1089:1158  uint256 ethAmountInUsd = (ethPrice * ethAmount) / 1000000000000000000 */\n      swap1\n      pop\n        /* \"contracts/FundMe.sol\":1174:1188  ethAmountInUsd */\n      dup1\n        /* \"contracts/FundMe.sol\":1167:1188  return ethAmountInUsd */\n      swap3\n      pop\n      pop\n      pop\n        /* \"contracts/FundMe.sol\":967:1196  function getConversionRate(uint256 ethAmount) public view returns (uint256){\r... */\n      swap2\n      swap1\n      pop\n      jump\t// out\n        /* \"contracts/FundMe.sol\":691:959  function getPrice() public view returns(uint256) {\r... */\n    tag_26:\n        /* \"contracts/FundMe.sol\":731:738  uint256 */\n      0x00\n        /* \"contracts/FundMe.sol\":749:780  AggregatorV3Interface priceFeed */\n      dup1\n        /* \"contracts/FundMe.sol\":805:847  0x8A753747A1Fa494EC906cE90E9f37563A8AF630e */\n      0x8a753747a1fa494ec906ce90e9f37563a8af630e\n        /* \"contracts/FundMe.sol\":749:848  AggregatorV3Interface priceFeed = AggregatorV3Interface(0x8A753747A1Fa494EC906cE90E9f37563A8AF630e) */\n      swap1\n      pop\n        /* \"contracts/FundMe.sol\":859:872  int256 answer */\n      0x00\n        /* \"contracts/FundMe.sol\":879:888  priceFeed */\n      dup2\n        /* \"contracts/FundMe.sol\":879:904  priceFeed.latestRoundData */\n      0xffffffffffffffffffffffffffffffffffffffff\n      and\n      0xfeaf968c\n        /* \"contracts/FundMe.sol\":879:906  priceFeed.latestRoundData() */\n      mload(0x40)\n      dup2\n      0xffffffff\n      and\n      0xe0\n      shl\n      dup2\n      mstore\n      0x04\n      add\n      0xa0\n      mload(0x40)\n      dup1\n      dup4\n      sub\n      dup2\n      dup7\n      dup1\n      extcodesize\n      iszero\n      dup1\n      iszero\n      tag_43\n      jumpi\n      0x00\n      dup1\n      revert\n    tag_43:\n      pop\n      gas\n      staticcall\n      iszero\n      dup1\n      iszero\n      tag_45\n      jumpi\n      returndatasize\n      0x00\n      dup1\n      returndatacopy\n      revert(0x00, returndatasize)\n    tag_45:\n      pop\n      pop\n      pop\n      pop\n      mload(0x40)\n      returndatasize\n      not(0x1f)\n      0x1f\n      dup3\n      add\n      and\n      dup3\n      add\n      dup1\n      0x40\n      mstore\n      pop\n      dup2\n      add\n      swap1\n      tag_46\n      swap2\n      swap1\n      tag_47\n      jump\t// in\n    tag_46:\n        /* \"contracts/FundMe.sol\":857:906  (,int256 answer,,,) = priceFeed.latestRoundData() */\n      pop\n      pop\n      pop\n      swap2\n      pop\n      pop\n        /* \"contracts/FundMe.sol\":939:950  10000000000 */\n      0x02540be400\n        /* \"contracts/FundMe.sol\":930:936  answer */\n      dup2\n        /* \"contracts/FundMe.sol\":930:950  answer * 10000000000 */\n      tag_48\n      swap2\n      swap1\n      tag_49\n      jump\t// in\n    tag_48:\n        /* \"contracts/FundMe.sol\":915:951  return uint256(answer * 10000000000) */\n      swap3\n      pop\n      pop\n      pop\n        /* \"contracts/FundMe.sol\":691:959  function getPrice() public view returns(uint256) {\r... */\n      swap1\n      jump\t// out\n        /* \"contracts/FundMe.sol\":244:472  function fund() public payable {\r... */\n    tag_29:\n        /* \"contracts/FundMe.sol\":284:302  uint256 mimimumUSD */\n      0x00\n        /* \"contracts/FundMe.sol\":305:318  50 * 10 ** 18 */\n      0x02b5e3af16b1880000\n        /* \"contracts/FundMe.sol\":284:318  uint256 mimimumUSD = 50 * 10 ** 18 */\n      swap1\n      pop\n        /* \"contracts/FundMe.sol\":367:377  mimimumUSD */\n      dup1\n        /* \"contracts/FundMe.sol\":335:363  getConversionRate(msg.value) */\n      tag_51\n        /* \"contracts/FundMe.sol\":353:362  msg.value */\n      callvalue\n        /* \"contracts/FundMe.sol\":335:352  getConversionRate */\n      tag_22\n        /* \"contracts/FundMe.sol\":335:363  getConversionRate(msg.value) */\n      jump\t// in\n    tag_51:\n        /* \"contracts/FundMe.sol\":335:377  getConversionRate(msg.value) >= mimimumUSD */\n      lt\n      iszero\n        /* \"contracts/FundMe.sol\":327:409  require(getConversionRate(msg.value) >= mimimumUSD, \"You need to spend more ETH!\") */\n      tag_52\n      jumpi\n      mload(0x40)\n      0x08c379a000000000000000000000000000000000000000000000000000000000\n      dup2\n      mstore\n      0x04\n      add\n      tag_53\n      swap1\n      tag_54\n      jump\t// in\n    tag_53:\n      mload(0x40)\n      dup1\n      swap2\n      sub\n      swap1\n      revert\n    tag_52:\n        /* \"contracts/FundMe.sol\":455:464  msg.value */\n      callvalue\n        /* \"contracts/FundMe.sol\":418:439  addressToAmountFunded */\n      0x00\n        /* \"contracts/FundMe.sol\":418:451  addressToAmountFunded[msg.sender] */\n      dup1\n        /* \"contracts/FundMe.sol\":440:450  msg.sender */\n      caller\n        /* \"contracts/FundMe.sol\":418:451  addressToAmountFunded[msg.sender] */\n      0xffffffffffffffffffffffffffffffffffffffff\n      and\n      0xffffffffffffffffffffffffffffffffffffffff\n      and\n      dup2\n      mstore\n      0x20\n      add\n      swap1\n      dup2\n      mstore\n      0x20\n      add\n      0x00\n      keccak256\n      0x00\n        /* \"contracts/FundMe.sol\":418:464  addressToAmountFunded[msg.sender] += msg.value */\n      dup3\n      dup3\n      sload\n      tag_55\n      swap2\n      swap1\n      tag_56\n      jump\t// in\n    tag_55:\n      swap3\n      pop\n      pop\n      dup2\n      swap1\n      sstore\n      pop\n        /* \"contracts/FundMe.sol\":275:472  {\r... */\n      pop\n        /* \"contracts/FundMe.sol\":244:472  function fund() public payable {\r... */\n      jump\t// out\n        /* \"#utility.yul\":7:146   */\n    tag_58:\n        /* \"#utility.yul\":53:58   */\n      0x00\n        /* \"#utility.yul\":91:97   */\n      dup2\n        /* \"#utility.yul\":78:98   */\n      calldataload\n        /* \"#utility.yul\":69:98   */\n      swap1\n      pop\n        /* \"#utility.yul\":107:140   */\n      tag_60\n        /* \"#utility.yul\":134:139   */\n      dup2\n        /* \"#utility.yul\":107:140   */\n      tag_61\n      jump\t// in\n    tag_60:\n        /* \"#utility.yul\":7:146   */\n      swap3\n      swap2\n      pop\n      pop\n      jump\t// out\n        /* \"#utility.yul\":152:293   */\n    tag_62:\n        /* \"#utility.yul\":208:213   */\n      0x00\n        /* \"#utility.yul\":239:245   */\n      dup2\n        /* \"#utility.yul\":233:246   */\n      mload\n        /* \"#utility.yul\":224:246   */\n      swap1\n      pop\n        /* \"#utility.yul\":255:287   */\n      tag_64\n        /* \"#utility.yul\":281:286   */\n      dup2\n        /* \"#utility.yul\":255:287   */\n      tag_65\n      jump\t// in\n    tag_64:\n        /* \"#utility.yul\":152:293   */\n      swap3\n      swap2\n      pop\n      pop\n      jump\t// out\n        /* \"#utility.yul\":299:438   */\n    tag_66:\n        /* \"#utility.yul\":345:350   */\n      0x00\n        /* \"#utility.yul\":383:389   */\n      dup2\n        /* \"#utility.yul\":370:390   */\n      calldataload\n        /* \"#utility.yul\":361:390   */\n      swap1\n      pop\n        /* \"#utility.yul\":399:432   */\n      tag_68\n        /* \"#utility.yul\":426:431   */\n      dup2\n        /* \"#utility.yul\":399:432   */\n      tag_69\n      jump\t// in\n    tag_68:\n        /* \"#utility.yul\":299:438   */\n      swap3\n      swap2\n      pop\n      pop\n      jump\t// out\n        /* \"#utility.yul\":444:587   */\n    tag_70:\n        /* \"#utility.yul\":501:506   */\n      0x00\n        /* \"#utility.yul\":532:538   */\n      dup2\n        /* \"#utility.yul\":526:539   */\n      mload\n        /* \"#utility.yul\":517:539   */\n      swap1\n      pop\n        /* \"#utility.yul\":548:581   */\n      tag_72\n        /* \"#utility.yul\":575:580   */\n      dup2\n        /* \"#utility.yul\":548:581   */\n      tag_69\n      jump\t// in\n    tag_72:\n        /* \"#utility.yul\":444:587   */\n      swap3\n      swap2\n      pop\n      pop\n      jump\t// out\n        /* \"#utility.yul\":593:734   */\n    tag_73:\n        /* \"#utility.yul\":649:654   */\n      0x00\n        /* \"#utility.yul\":680:686   */\n      dup2\n        /* \"#utility.yul\":674:687   */\n      mload\n        /* \"#utility.yul\":665:687   */\n      swap1\n      pop\n        /* \"#utility.yul\":696:728   */\n      tag_75\n        /* \"#utility.yul\":722:727   */\n      dup2\n        /* \"#utility.yul\":696:728   */\n      tag_76\n      jump\t// in\n    tag_75:\n        /* \"#utility.yul\":593:734   */\n      swap3\n      swap2\n      pop\n      pop\n      jump\t// out\n        /* \"#utility.yul\":740:1069   */\n    tag_15:\n        /* \"#utility.yul\":799:805   */\n      0x00\n        /* \"#utility.yul\":848:850   */\n      0x20\n        /* \"#utility.yul\":836:845   */\n      dup3\n        /* \"#utility.yul\":827:834   */\n      dup5\n        /* \"#utility.yul\":823:846   */\n      sub\n        /* \"#utility.yul\":819:851   */\n      slt\n        /* \"#utility.yul\":816:935   */\n      iszero\n      tag_78\n      jumpi\n        /* \"#utility.yul\":854:933   */\n      tag_79\n      tag_80\n      jump\t// in\n    tag_79:\n        /* \"#utility.yul\":816:935   */\n    tag_78:\n        /* \"#utility.yul\":974:975   */\n      0x00\n        /* \"#utility.yul\":999:1052   */\n      tag_81\n        /* \"#utility.yul\":1044:1051   */\n      dup5\n        /* \"#utility.yul\":1035:1041   */\n      dup3\n        /* \"#utility.yul\":1024:1033   */\n      dup6\n        /* \"#utility.yul\":1020:1042   */\n      add\n        /* \"#utility.yul\":999:1052   */\n      tag_58\n      jump\t// in\n    tag_81:\n        /* \"#utility.yul\":989:1052   */\n      swap2\n      pop\n        /* \"#utility.yul\":945:1062   */\n      pop\n        /* \"#utility.yul\":740:1069   */\n      swap3\n      swap2\n      pop\n      pop\n      jump\t// out\n        /* \"#utility.yul\":1075:1404   */\n    tag_21:\n        /* \"#utility.yul\":1134:1140   */\n      0x00\n        /* \"#utility.yul\":1183:1185   */\n      0x20\n        /* \"#utility.yul\":1171:1180   */\n      dup3\n        /* \"#utility.yul\":1162:1169   */\n      dup5\n        /* \"#utility.yul\":1158:1181   */\n      sub\n        /* \"#utility.yul\":1154:1186   */\n      slt\n        /* \"#utility.yul\":1151:1270   */\n      iszero\n      tag_83\n      jumpi\n        /* \"#utility.yul\":1189:1268   */\n      tag_84\n      tag_80\n      jump\t// in\n    tag_84:\n        /* \"#utility.yul\":1151:1270   */\n    tag_83:\n        /* \"#utility.yul\":1309:1310   */\n      0x00\n        /* \"#utility.yul\":1334:1387   */\n      tag_85\n        /* \"#utility.yul\":1379:1386   */\n      dup5\n        /* \"#utility.yul\":1370:1376   */\n      dup3\n        /* \"#utility.yul\":1359:1368   */\n      dup6\n        /* \"#utility.yul\":1355:1377   */\n      add\n        /* \"#utility.yul\":1334:1387   */\n      tag_66\n      jump\t// in\n    tag_85:\n        /* \"#utility.yul\":1324:1387   */\n      swap2\n      pop\n        /* \"#utility.yul\":1280:1397   */\n      pop\n        /* \"#utility.yul\":1075:1404   */\n      swap3\n      swap2\n      pop\n      pop\n      jump\t// out\n        /* \"#utility.yul\":1410:1761   */\n    tag_35:\n        /* \"#utility.yul\":1480:1486   */\n      0x00\n        /* \"#utility.yul\":1529:1531   */\n      0x20\n        /* \"#utility.yul\":1517:1526   */\n      dup3\n        /* \"#utility.yul\":1508:1515   */\n      dup5\n        /* \"#utility.yul\":1504:1527   */\n      sub\n        /* \"#utility.yul\":1500:1532   */\n      slt\n        /* \"#utility.yul\":1497:1616   */\n      iszero\n      tag_87\n      jumpi\n        /* \"#utility.yul\":1535:1614   */\n      tag_88\n      tag_80\n      jump\t// in\n    tag_88:\n        /* \"#utility.yul\":1497:1616   */\n    tag_87:\n        /* \"#utility.yul\":1655:1656   */\n      0x00\n        /* \"#utility.yul\":1680:1744   */\n      tag_89\n        /* \"#utility.yul\":1736:1743   */\n      dup5\n        /* \"#utility.yul\":1727:1733   */\n      dup3\n        /* \"#utility.yul\":1716:1725   */\n      dup6\n        /* \"#utility.yul\":1712:1734   */\n      add\n        /* \"#utility.yul\":1680:1744   */\n      tag_70\n      jump\t// in\n    tag_89:\n        /* \"#utility.yul\":1670:1744   */\n      swap2\n      pop\n        /* \"#utility.yul\":1626:1754   */\n      pop\n        /* \"#utility.yul\":1410:1761   */\n      swap3\n      swap2\n      pop\n      pop\n      jump\t// out\n        /* \"#utility.yul\":1767:2738   */\n    tag_47:\n        /* \"#utility.yul\":1870:1876   */\n      0x00\n        /* \"#utility.yul\":1878:1884   */\n      dup1\n        /* \"#utility.yul\":1886:1892   */\n      0x00\n        /* \"#utility.yul\":1894:1900   */\n      dup1\n        /* \"#utility.yul\":1902:1908   */\n      0x00\n        /* \"#utility.yul\":1951:1954   */\n      0xa0\n        /* \"#utility.yul\":1939:1948   */\n      dup7\n        /* \"#utility.yul\":1930:1937   */\n      dup9\n        /* \"#utility.yul\":1926:1949   */\n      sub\n        /* \"#utility.yul\":1922:1955   */\n      slt\n        /* \"#utility.yul\":1919:2039   */\n      iszero\n      tag_91\n      jumpi\n        /* \"#utility.yul\":1958:2037   */\n      tag_92\n      tag_80\n      jump\t// in\n    tag_92:\n        /* \"#utility.yul\":1919:2039   */\n    tag_91:\n        /* \"#utility.yul\":2078:2079   */\n      0x00\n        /* \"#utility.yul\":2103:2166   */\n      tag_93\n        /* \"#utility.yul\":2158:2165   */\n      dup9\n        /* \"#utility.yul\":2149:2155   */\n      dup3\n        /* \"#utility.yul\":2138:2147   */\n      dup10\n        /* \"#utility.yul\":2134:2156   */\n      add\n        /* \"#utility.yul\":2103:2166   */\n      tag_73\n      jump\t// in\n    tag_93:\n        /* \"#utility.yul\":2093:2166   */\n      swap6\n      pop\n        /* \"#utility.yul\":2049:2176   */\n      pop\n        /* \"#utility.yul\":2215:2217   */\n      0x20\n        /* \"#utility.yul\":2241:2304   */\n      tag_94\n        /* \"#utility.yul\":2296:2303   */\n      dup9\n        /* \"#utility.yul\":2287:2293   */\n      dup3\n        /* \"#utility.yul\":2276:2285   */\n      dup10\n        /* \"#utility.yul\":2272:2294   */\n      add\n        /* \"#utility.yul\":2241:2304   */\n      tag_62\n      jump\t// in\n    tag_94:\n        /* \"#utility.yul\":2231:2304   */\n      swap5\n      pop\n        /* \"#utility.yul\":2186:2314   */\n      pop\n        /* \"#utility.yul\":2353:2355   */\n      0x40\n        /* \"#utility.yul\":2379:2443   */\n      tag_95\n        /* \"#utility.yul\":2435:2442   */\n      dup9\n        /* \"#utility.yul\":2426:2432   */\n      dup3\n        /* \"#utility.yul\":2415:2424   */\n      dup10\n        /* \"#utility.yul\":2411:2433   */\n      add\n        /* \"#utility.yul\":2379:2443   */\n      tag_70\n      jump\t// in\n    tag_95:\n        /* \"#utility.yul\":2369:2443   */\n      swap4\n      pop\n        /* \"#utility.yul\":2324:2453   */\n      pop\n        /* \"#utility.yul\":2492:2494   */\n      0x60\n        /* \"#utility.yul\":2518:2582   */\n      tag_96\n        /* \"#utility.yul\":2574:2581   */\n      dup9\n        /* \"#utility.yul\":2565:2571   */\n      dup3\n        /* \"#utility.yul\":2554:2563   */\n      dup10\n        /* \"#utility.yul\":2550:2572   */\n      add\n        /* \"#utility.yul\":2518:2582   */\n      tag_70\n      jump\t// in\n    tag_96:\n        /* \"#utility.yul\":2508:2582   */\n      swap3\n      pop\n        /* \"#utility.yul\":2463:2592   */\n      pop\n        /* \"#utility.yul\":2631:2634   */\n      0x80\n        /* \"#utility.yul\":2658:2721   */\n      tag_97\n        /* \"#utility.yul\":2713:2720   */\n      dup9\n        /* \"#utility.yul\":2704:2710   */\n      dup3\n        /* \"#utility.yul\":2693:2702   */\n      dup10\n        /* \"#utility.yul\":2689:2711   */\n      add\n        /* \"#utility.yul\":2658:2721   */\n      tag_73\n      jump\t// in\n    tag_97:\n        /* \"#utility.yul\":2648:2721   */\n      swap2\n      pop\n        /* \"#utility.yul\":2602:2731   */\n      pop\n        /* \"#utility.yul\":1767:2738   */\n      swap3\n      swap6\n      pop\n      swap3\n      swap6\n      swap1\n      swap4\n      pop\n      jump\t// out\n        /* \"#utility.yul\":2744:3110   */\n    tag_98:\n        /* \"#utility.yul\":2886:2889   */\n      0x00\n        /* \"#utility.yul\":2907:2974   */\n      tag_100\n        /* \"#utility.yul\":2971:2973   */\n      0x1b\n        /* \"#utility.yul\":2966:2969   */\n      dup4\n        /* \"#utility.yul\":2907:2974   */\n      tag_101\n      jump\t// in\n    tag_100:\n        /* \"#utility.yul\":2900:2974   */\n      swap2\n      pop\n        /* \"#utility.yul\":2983:3076   */\n      tag_102\n        /* \"#utility.yul\":3072:3075   */\n      dup3\n        /* \"#utility.yul\":2983:3076   */\n      tag_103\n      jump\t// in\n    tag_102:\n        /* \"#utility.yul\":3101:3103   */\n      0x20\n        /* \"#utility.yul\":3096:3099   */\n      dup3\n        /* \"#utility.yul\":3092:3104   */\n      add\n        /* \"#utility.yul\":3085:3104   */\n      swap1\n      pop\n        /* \"#utility.yul\":2744:3110   */\n      swap2\n      swap1\n      pop\n      jump\t// out\n        /* \"#utility.yul\":3116:3234   */\n    tag_104:\n        /* \"#utility.yul\":3203:3227   */\n      tag_106\n        /* \"#utility.yul\":3221:3226   */\n      dup2\n        /* \"#utility.yul\":3203:3227   */\n      tag_107\n      jump\t// in\n    tag_106:\n        /* \"#utility.yul\":3198:3201   */\n      dup3\n        /* \"#utility.yul\":3191:3228   */\n      mstore\n        /* \"#utility.yul\":3116:3234   */\n      pop\n      pop\n      jump\t// out\n        /* \"#utility.yul\":3240:3659   */\n    tag_54:\n        /* \"#utility.yul\":3406:3410   */\n      0x00\n        /* \"#utility.yul\":3444:3446   */\n      0x20\n        /* \"#utility.yul\":3433:3442   */\n      dup3\n        /* \"#utility.yul\":3429:3447   */\n      add\n        /* \"#utility.yul\":3421:3447   */\n      swap1\n      pop\n        /* \"#utility.yul\":3493:3502   */\n      dup2\n        /* \"#utility.yul\":3487:3491   */\n      dup2\n        /* \"#utility.yul\":3483:3503   */\n      sub\n        /* \"#utility.yul\":3479:3480   */\n      0x00\n        /* \"#utility.yul\":3468:3477   */\n      dup4\n        /* \"#utility.yul\":3464:3481   */\n      add\n        /* \"#utility.yul\":3457:3504   */\n      mstore\n        /* \"#utility.yul\":3521:3652   */\n      tag_109\n        /* \"#utility.yul\":3647:3651   */\n      dup2\n        /* \"#utility.yul\":3521:3652   */\n      tag_98\n      jump\t// in\n    tag_109:\n        /* \"#utility.yul\":3513:3652   */\n      swap1\n      pop\n        /* \"#utility.yul\":3240:3659   */\n      swap2\n      swap1\n      pop\n      jump\t// out\n        /* \"#utility.yul\":3665:3887   */\n    tag_11:\n        /* \"#utility.yul\":3758:3762   */\n      0x00\n        /* \"#utility.yul\":3796:3798   */\n      0x20\n        /* \"#utility.yul\":3785:3794   */\n      dup3\n        /* \"#utility.yul\":3781:3799   */\n      add\n        /* \"#utility.yul\":3773:3799   */\n      swap1\n      pop\n        /* \"#utility.yul\":3809:3880   */\n      tag_111\n        /* \"#utility.yul\":3877:3878   */\n      0x00\n        /* \"#utility.yul\":3866:3875   */\n      dup4\n        /* \"#utility.yul\":3862:3879   */\n      add\n        /* \"#utility.yul\":3853:3859   */\n      dup5\n        /* \"#utility.yul\":3809:3880   */\n      tag_104\n      jump\t// in\n    tag_111:\n        /* \"#utility.yul\":3665:3887   */\n      swap3\n      swap2\n      pop\n      pop\n      jump\t// out\n        /* \"#utility.yul\":3974:4143   */\n    tag_101:\n        /* \"#utility.yul\":4058:4069   */\n      0x00\n        /* \"#utility.yul\":4092:4098   */\n      dup3\n        /* \"#utility.yul\":4087:4090   */\n      dup3\n        /* \"#utility.yul\":4080:4099   */\n      mstore\n        /* \"#utility.yul\":4132:4136   */\n      0x20\n        /* \"#utility.yul\":4127:4130   */\n      dup3\n        /* \"#utility.yul\":4123:4137   */\n      add\n        /* \"#utility.yul\":4108:4137   */\n      swap1\n      pop\n        /* \"#utility.yul\":3974:4143   */\n      swap3\n      swap2\n      pop\n      pop\n      jump\t// out\n        /* \"#utility.yul\":4149:4454   */\n    tag_56:\n        /* \"#utility.yul\":4189:4192   */\n      0x00\n        /* \"#utility.yul\":4208:4228   */\n      tag_116\n        /* \"#utility.yul\":4226:4227   */\n      dup3\n        /* \"#utility.yul\":4208:4228   */\n      tag_107\n      jump\t// in\n    tag_116:\n        /* \"#utility.yul\":4203:4228   */\n      swap2\n      pop\n        /* \"#utility.yul\":4242:4262   */\n      tag_117\n        /* \"#utility.yul\":4260:4261   */\n      dup4\n        /* \"#utility.yul\":4242:4262   */\n      tag_107\n      jump\t// in\n    tag_117:\n        /* \"#utility.yul\":4237:4262   */\n      swap3\n      pop\n        /* \"#utility.yul\":4396:4397   */\n      dup3\n        /* \"#utility.yul\":4328:4394   */\n      0xffffffffffffffffffffffffffffffffffffffffffffffffffffffffffffffff\n        /* \"#utility.yul\":4324:4398   */\n      sub\n        /* \"#utility.yul\":4321:4322   */\n      dup3\n        /* \"#utility.yul\":4318:4399   */\n      gt\n        /* \"#utility.yul\":4315:4422   */\n      iszero\n      tag_118\n      jumpi\n        /* \"#utility.yul\":4402:4420   */\n      tag_119\n      tag_120\n      jump\t// in\n    tag_119:\n        /* \"#utility.yul\":4315:4422   */\n    tag_118:\n        /* \"#utility.yul\":4446:4447   */\n      dup3\n        /* \"#utility.yul\":4443:4444   */\n      dup3\n        /* \"#utility.yul\":4439:4448   */\n      add\n        /* \"#utility.yul\":4432:4448   */\n      swap1\n      pop\n        /* \"#utility.yul\":4149:4454   */\n      swap3\n      swap2\n      pop\n      pop\n      jump\t// out\n        /* \"#utility.yul\":4460:4645   */\n    tag_41:\n        /* \"#utility.yul\":4500:4501   */\n      0x00\n        /* \"#utility.yul\":4517:4537   */\n      tag_122\n        /* \"#utility.yul\":4535:4536   */\n      dup3\n        /* \"#utility.yul\":4517:4537   */\n      tag_107\n      jump\t// in\n    tag_122:\n        /* \"#utility.yul\":4512:4537   */\n      swap2\n      pop\n        /* \"#utility.yul\":4551:4571   */\n      tag_123\n        /* \"#utility.yul\":4569:4570   */\n      dup4\n        /* \"#utility.yul\":4551:4571   */\n      tag_107\n      jump\t// in\n    tag_123:\n        /* \"#utility.yul\":4546:4571   */\n      swap3\n      pop\n        /* \"#utility.yul\":4590:4591   */\n      dup3\n        /* \"#utility.yul\":4580:4615   */\n      tag_124\n      jumpi\n        /* \"#utility.yul\":4595:4613   */\n      tag_125\n      tag_126\n      jump\t// in\n    tag_125:\n        /* \"#utility.yul\":4580:4615   */\n    tag_124:\n        /* \"#utility.yul\":4637:4638   */\n      dup3\n        /* \"#utility.yul\":4634:4635   */\n      dup3\n        /* \"#utility.yul\":4630:4639   */\n      div\n        /* \"#utility.yul\":4625:4639   */\n      swap1\n      pop\n        /* \"#utility.yul\":4460:4645   */\n      swap3\n      swap2\n      pop\n      pop\n      jump\t// out\n        /* \"#utility.yul\":4651:5642   */\n    tag_49:\n        /* \"#utility.yul\":4690:4697   */\n      0x00\n        /* \"#utility.yul\":4713:4732   */\n      tag_128\n        /* \"#utility.yul\":4730:4731   */\n      dup3\n        /* \"#utility.yul\":4713:4732   */\n      tag_129\n      jump\t// in\n    tag_128:\n        /* \"#utility.yul\":4708:4732   */\n      swap2\n      pop\n        /* \"#utility.yul\":4746:4765   */\n      tag_130\n        /* \"#utility.yul\":4763:4764   */\n      dup4\n        /* \"#utility.yul\":4746:4765   */\n      tag_129\n      jump\t// in\n    tag_130:\n        /* \"#utility.yul\":4741:4765   */\n      swap3\n      pop\n        /* \"#utility.yul\":4947:4948   */\n      dup3\n        /* \"#utility.yul\":4879:4945   */\n      0x7fffffffffffffffffffffffffffffffffffffffffffffffffffffffffffffff\n        /* \"#utility.yul\":4875:4949   */\n      div\n        /* \"#utility.yul\":4872:4873   */\n      dup3\n        /* \"#utility.yul\":4869:4950   */\n      gt\n        /* \"#utility.yul\":4864:4865   */\n      0x00\n        /* \"#utility.yul\":4861:4862   */\n      dup5\n        /* \"#utility.yul\":4857:4866   */\n      sgt\n        /* \"#utility.yul\":4853:4854   */\n      0x00\n        /* \"#utility.yul\":4850:4851   */\n      dup5\n        /* \"#utility.yul\":4846:4855   */\n      sgt\n        /* \"#utility.yul\":4842:4867   */\n      and\n        /* \"#utility.yul\":4838:4951   */\n      and\n        /* \"#utility.yul\":4835:4974   */\n      iszero\n      tag_131\n      jumpi\n        /* \"#utility.yul\":4954:4972   */\n      tag_132\n      tag_120\n      jump\t// in\n    tag_132:\n        /* \"#utility.yul\":4835:4974   */\n    tag_131:\n        /* \"#utility.yul\":5158:5159   */\n      dup2\n        /* \"#utility.yul\":5090:5156   */\n      0x8000000000000000000000000000000000000000000000000000000000000000\n        /* \"#utility.yul\":5085:5160   */\n      sdiv\n        /* \"#utility.yul\":5082:5083   */\n      dup4\n        /* \"#utility.yul\":5078:5161   */\n      slt\n        /* \"#utility.yul\":5073:5074   */\n      0x00\n        /* \"#utility.yul\":5070:5071   */\n      dup5\n        /* \"#utility.yul\":5066:5075   */\n      slt\n        /* \"#utility.yul\":5062:5063   */\n      0x00\n        /* \"#utility.yul\":5059:5060   */\n      dup5\n        /* \"#utility.yul\":5055:5064   */\n      sgt\n        /* \"#utility.yul\":5051:5076   */\n      and\n        /* \"#utility.yul\":5047:5162   */\n      and\n        /* \"#utility.yul\":5044:5185   */\n      iszero\n      tag_133\n      jumpi\n        /* \"#utility.yul\":5165:5183   */\n      tag_134\n      tag_120\n      jump\t// in\n    tag_134:\n        /* \"#utility.yul\":5044:5185   */\n    tag_133:\n        /* \"#utility.yul\":5369:5370   */\n      dup3\n        /* \"#utility.yul\":5301:5367   */\n      0x8000000000000000000000000000000000000000000000000000000000000000\n        /* \"#utility.yul\":5296:5371   */\n      sdiv\n        /* \"#utility.yul\":5293:5294   */\n      dup3\n        /* \"#utility.yul\":5289:5372   */\n      slt\n        /* \"#utility.yul\":5284:5285   */\n      0x00\n        /* \"#utility.yul\":5281:5282   */\n      dup5\n        /* \"#utility.yul\":5277:5286   */\n      sgt\n        /* \"#utility.yul\":5273:5274   */\n      0x00\n        /* \"#utility.yul\":5270:5271   */\n      dup5\n        /* \"#utility.yul\":5266:5275   */\n      slt\n        /* \"#utility.yul\":5262:5287   */\n      and\n        /* \"#utility.yul\":5258:5373   */\n      and\n        /* \"#utility.yul\":5255:5396   */\n      iszero\n      tag_135\n      jumpi\n        /* \"#utility.yul\":5376:5394   */\n      tag_136\n      tag_120\n      jump\t// in\n    tag_136:\n        /* \"#utility.yul\":5255:5396   */\n    tag_135:\n        /* \"#utility.yul\":5579:5580   */\n      dup3\n        /* \"#utility.yul\":5511:5577   */\n      0x7fffffffffffffffffffffffffffffffffffffffffffffffffffffffffffffff\n        /* \"#utility.yul\":5506:5581   */\n      sdiv\n        /* \"#utility.yul\":5503:5504   */\n      dup3\n        /* \"#utility.yul\":5499:5582   */\n      slt\n        /* \"#utility.yul\":5494:5495   */\n      0x00\n        /* \"#utility.yul\":5491:5492   */\n      dup5\n        /* \"#utility.yul\":5487:5496   */\n      slt\n        /* \"#utility.yul\":5483:5484   */\n      0x00\n        /* \"#utility.yul\":5480:5481   */\n      dup5\n        /* \"#utility.yul\":5476:5485   */\n      slt\n        /* \"#utility.yul\":5472:5497   */\n      and\n        /* \"#utility.yul\":5468:5583   */\n      and\n        /* \"#utility.yul\":5465:5606   */\n      iszero\n      tag_137\n      jumpi\n        /* \"#utility.yul\":5586:5604   */\n      tag_138\n      tag_120\n      jump\t// in\n    tag_138:\n        /* \"#utility.yul\":5465:5606   */\n    tag_137:\n        /* \"#utility.yul\":5634:5635   */\n      dup3\n        /* \"#utility.yul\":5631:5632   */\n      dup3\n        /* \"#utility.yul\":5627:5636   */\n      mul\n        /* \"#utility.yul\":5616:5636   */\n      swap1\n      pop\n        /* \"#utility.yul\":4651:5642   */\n      swap3\n      swap2\n      pop\n      pop\n      jump\t// out\n        /* \"#utility.yul\":5648:5996   */\n    tag_39:\n        /* \"#utility.yul\":5688:5695   */\n      0x00\n        /* \"#utility.yul\":5711:5731   */\n      tag_140\n        /* \"#utility.yul\":5729:5730   */\n      dup3\n        /* \"#utility.yul\":5711:5731   */\n      tag_107\n      jump\t// in\n    tag_140:\n        /* \"#utility.yul\":5706:5731   */\n      swap2\n      pop\n        /* \"#utility.yul\":5745:5765   */\n      tag_141\n        /* \"#utility.yul\":5763:5764   */\n      dup4\n        /* \"#utility.yul\":5745:5765   */\n      tag_107\n      jump\t// in\n    tag_141:\n        /* \"#utility.yul\":5740:5765   */\n      swap3\n      pop\n        /* \"#utility.yul\":5933:5934   */\n      dup2\n        /* \"#utility.yul\":5865:5931   */\n      0xffffffffffffffffffffffffffffffffffffffffffffffffffffffffffffffff\n        /* \"#utility.yul\":5861:5935   */\n      div\n        /* \"#utility.yul\":5858:5859   */\n      dup4\n        /* \"#utility.yul\":5855:5936   */\n      gt\n        /* \"#utility.yul\":5850:5851   */\n      dup3\n        /* \"#utility.yul\":5843:5852   */\n      iszero\n        /* \"#utility.yul\":5836:5853   */\n      iszero\n        /* \"#utility.yul\":5832:5937   */\n      and\n        /* \"#utility.yul\":5829:5960   */\n      iszero\n      tag_142\n      jumpi\n        /* \"#utility.yul\":5940:5958   */\n      tag_143\n      tag_120\n      jump\t// in\n    tag_143:\n        /* \"#utility.yul\":5829:5960   */\n    tag_142:\n        /* \"#utility.yul\":5988:5989   */\n      dup3\n        /* \"#utility.yul\":5985:5986   */\n      dup3\n        /* \"#utility.yul\":5981:5990   */\n      mul\n        /* \"#utility.yul\":5970:5990   */\n      swap1\n      pop\n        /* \"#utility.yul\":5648:5996   */\n      swap3\n      swap2\n      pop\n      pop\n      jump\t// out\n        /* \"#utility.yul\":6002:6098   */\n    tag_144:\n        /* \"#utility.yul\":6039:6046   */\n      0x00\n        /* \"#utility.yul\":6068:6092   */\n      tag_146\n        /* \"#utility.yul\":6086:6091   */\n      dup3\n        /* \"#utility.yul\":6068:6092   */\n      tag_147\n      jump\t// in\n    tag_146:\n        /* \"#utility.yul\":6057:6092   */\n      swap1\n      pop\n        /* \"#utility.yul\":6002:6098   */\n      swap2\n      swap1\n      pop\n      jump\t// out\n        /* \"#utility.yul\":6104:6180   */\n    tag_129:\n        /* \"#utility.yul\":6140:6147   */\n      0x00\n        /* \"#utility.yul\":6169:6174   */\n      dup2\n        /* \"#utility.yul\":6158:6174   */\n      swap1\n      pop\n        /* \"#utility.yul\":6104:6180   */\n      swap2\n      swap1\n      pop\n      jump\t// out\n        /* \"#utility.yul\":6186:6312   */\n    tag_147:\n        /* \"#utility.yul\":6223:6230   */\n      0x00\n        /* \"#utility.yul\":6263:6305   */\n      0xffffffffffffffffffffffffffffffffffffffff\n        /* \"#utility.yul\":6256:6261   */\n      dup3\n        /* \"#utility.yul\":6252:6306   */\n      and\n        /* \"#utility.yul\":6241:6306   */\n      swap1\n      pop\n        /* \"#utility.yul\":6186:6312   */\n      swap2\n      swap1\n      pop\n      jump\t// out\n        /* \"#utility.yul\":6318:6395   */\n    tag_107:\n        /* \"#utility.yul\":6355:6362   */\n      0x00\n        /* \"#utility.yul\":6384:6389   */\n      dup2\n        /* \"#utility.yul\":6373:6389   */\n      swap1\n      pop\n        /* \"#utility.yul\":6318:6395   */\n      swap2\n      swap1\n      pop\n      jump\t// out\n        /* \"#utility.yul\":6401:6506   */\n    tag_151:\n        /* \"#utility.yul\":6437:6444   */\n      0x00\n        /* \"#utility.yul\":6477:6499   */\n      0xffffffffffffffffffff\n        /* \"#utility.yul\":6470:6475   */\n      dup3\n        /* \"#utility.yul\":6466:6500   */\n      and\n        /* \"#utility.yul\":6455:6500   */\n      swap1\n      pop\n        /* \"#utility.yul\":6401:6506   */\n      swap2\n      swap1\n      pop\n      jump\t// out\n        /* \"#utility.yul\":6512:6692   */\n    tag_120:\n        /* \"#utility.yul\":6560:6637   */\n      0x4e487b7100000000000000000000000000000000000000000000000000000000\n        /* \"#utility.yul\":6557:6558   */\n      0x00\n        /* \"#utility.yul\":6550:6638   */\n      mstore\n        /* \"#utility.yul\":6657:6661   */\n      0x11\n        /* \"#utility.yul\":6654:6655   */\n      0x04\n        /* \"#utility.yul\":6647:6662   */\n      mstore\n        /* \"#utility.yul\":6681:6685   */\n      0x24\n        /* \"#utility.yul\":6678:6679   */\n      0x00\n        /* \"#utility.yul\":6671:6686   */\n      revert\n        /* \"#utility.yul\":6698:6878   */\n    tag_126:\n        /* \"#utility.yul\":6746:6823   */\n      0x4e487b7100000000000000000000000000000000000000000000000000000000\n        /* \"#utility.yul\":6743:6744   */\n      0x00\n        /* \"#utility.yul\":6736:6824   */\n      mstore\n        /* \"#utility.yul\":6843:6847   */\n      0x12\n        /* \"#utility.yul\":6840:6841   */\n      0x04\n        /* \"#utility.yul\":6833:6848   */\n      mstore\n        /* \"#utility.yul\":6867:6871   */\n      0x24\n        /* \"#utility.yul\":6864:6865   */\n      0x00\n        /* \"#utility.yul\":6857:6872   */\n      revert\n        /* \"#utility.yul\":7007:7124   */\n    tag_80:\n        /* \"#utility.yul\":7116:7117   */\n      0x00\n        /* \"#utility.yul\":7113:7114   */\n      dup1\n        /* \"#utility.yul\":7106:7118   */\n      revert\n        /* \"#utility.yul\":7130:7307   */\n    tag_103:\n        /* \"#utility.yul\":7270:7299   */\n      0x596f75206e65656420746f207370656e64206d6f726520455448210000000000\n        /* \"#utility.yul\":7266:7267   */\n      0x00\n        /* \"#utility.yul\":7258:7264   */\n      dup3\n        /* \"#utility.yul\":7254:7268   */\n      add\n        /* \"#utility.yul\":7247:7300   */\n      mstore\n        /* \"#utility.yul\":7130:7307   */\n      pop\n      jump\t// out\n        /* \"#utility.yul\":7313:7435   */\n    tag_61:\n        /* \"#utility.yul\":7386:7410   */\n      tag_160\n        /* \"#utility.yul\":7404:7409   */\n      dup2\n        /* \"#utility.yul\":7386:7410   */\n      tag_144\n      jump\t// in\n    tag_160:\n        /* \"#utility.yul\":7379:7384   */\n      dup2\n        /* \"#utility.yul\":7376:7411   */\n      eq\n        /* \"#utility.yul\":7366:7429   */\n      tag_161\n      jumpi\n        /* \"#utility.yul\":7425:7426   */\n      0x00\n        /* \"#utility.yul\":7422:7423   */\n      dup1\n        /* \"#utility.yul\":7415:7427   */\n      revert\n        /* \"#utility.yul\":7366:7429   */\n    tag_161:\n        /* \"#utility.yul\":7313:7435   */\n      pop\n      jump\t// out\n        /* \"#utility.yul\":7441:7561   */\n    tag_65:\n        /* \"#utility.yul\":7513:7536   */\n      tag_163\n        /* \"#utility.yul\":7530:7535   */\n      dup2\n        /* \"#utility.yul\":7513:7536   */\n      tag_129\n      jump\t// in\n    tag_163:\n        /* \"#utility.yul\":7506:7511   */\n      dup2\n        /* \"#utility.yul\":7503:7537   */\n      eq\n        /* \"#utility.yul\":7493:7555   */\n      tag_164\n      jumpi\n        /* \"#utility.yul\":7551:7552   */\n      0x00\n        /* \"#utility.yul\":7548:7549   */\n      dup1\n        /* \"#utility.yul\":7541:7553   */\n      revert\n        /* \"#utility.yul\":7493:7555   */\n    tag_164:\n        /* \"#utility.yul\":7441:7561   */\n      pop\n      jump\t// out\n        /* \"#utility.yul\":7567:7689   */\n    tag_69:\n        /* \"#utility.yul\":7640:7664   */\n      tag_166\n        /* \"#utility.yul\":7658:7663   */\n      dup2\n        /* \"#utility.yul\":7640:7664   */\n      tag_107\n      jump\t// in\n    tag_166:\n        /* \"#utility.yul\":7633:7638   */\n      dup2\n        /* \"#utility.yul\":7630:7665   */\n      eq\n        /* \"#utility.yul\":7620:7683   */\n      tag_167\n      jumpi\n        /* \"#utility.yul\":7679:7680   */\n      0x00\n        /* \"#utility.yul\":7676:7677   */\n      dup1\n        /* \"#utility.yul\":7669:7681   */\n      revert\n        /* \"#utility.yul\":7620:7683   */\n    tag_167:\n        /* \"#utility.yul\":7567:7689   */\n      pop\n      jump\t// out\n        /* \"#utility.yul\":7695:7815   */\n    tag_76:\n        /* \"#utility.yul\":7767:7790   */\n      tag_169\n        /* \"#utility.yul\":7784:7789   */\n      dup2\n        /* \"#utility.yul\":7767:7790   */\n      tag_151\n      jump\t// in\n    tag_169:\n        /* \"#utility.yul\":7760:7765   */\n      dup2\n        /* \"#utility.yul\":7757:7791   */\n      eq\n        /* \"#utility.yul\":7747:7809   */\n      tag_170\n      jumpi\n        /* \"#utility.yul\":7805:7806   */\n      0x00\n        /* \"#utility.yul\":7802:7803   */\n      dup1\n        /* \"#utility.yul\":7795:7807   */\n      revert\n        /* \"#utility.yul\":7747:7809   */\n    tag_170:\n        /* \"#utility.yul\":7695:7815   */\n      pop\n      jump\t// out\n\n    auxdata: 0xa2646970667358221220191734e1c5d8271613259046bfaa21ef349e1774433ac93436b9900b08a0eb8c64736f6c63430008070033\n}\n",
				"bytecode": {
					"linkReferences": {},
					"object": "608060405234801561001057600080fd5b506108dd806100206000396000f3fe60806040526004361061004a5760003560e01c80630d8e6e2c1461004f5780633e47d6f31461007a5780636e5b6b28146100b757806398d5fdca146100f4578063b60d42881461011f575b600080fd5b34801561005b57600080fd5b50610064610129565b604051610071919061053f565b60405180910390f35b34801561008657600080fd5b506100a1600480360381019061009c91906103eb565b6101c7565b6040516100ae919061053f565b60405180910390f35b3480156100c357600080fd5b506100de60048036038101906100d99190610418565b6101df565b6040516100eb919061053f565b60405180910390f35b34801561010057600080fd5b50610109610219565b604051610116919061053f565b60405180910390f35b6101276102d1565b005b600080738a753747a1fa494ec906ce90e9f37563a8af630e90508073ffffffffffffffffffffffffffffffffffffffff166354fd4d506040518163ffffffff1660e01b815260040160206040518083038186803b15801561018957600080fd5b505afa15801561019d573d6000803e3d6000fd5b505050506040513d601f19601f820116820180604052508101906101c19190610445565b91505090565b60006020528060005260406000206000915090505481565b6000806101ea610219565b90506000670de0b6b3a764000084836102039190610709565b61020d91906105c1565b90508092505050919050565b600080738a753747a1fa494ec906ce90e9f37563a8af630e905060008173ffffffffffffffffffffffffffffffffffffffff1663feaf968c6040518163ffffffff1660e01b815260040160a06040518083038186803b15801561027b57600080fd5b505afa15801561028f573d6000803e3d6000fd5b505050506040513d601f19601f820116820180604052508101906102b39190610472565b5050509150506402540be400816102ca91906105f2565b9250505090565b60006802b5e3af16b18800009050806102e9346101df565b101561032a576040517f08c379a00000000000000000000000000000000000000000000000000000000081526004016103219061051f565b60405180910390fd5b346000803373ffffffffffffffffffffffffffffffffffffffff1673ffffffffffffffffffffffffffffffffffffffff1681526020019081526020016000206000828254610378919061056b565b9250508190555050565b6000813590506103918161084b565b92915050565b6000815190506103a681610862565b92915050565b6000813590506103bb81610879565b92915050565b6000815190506103d081610879565b92915050565b6000815190506103e581610890565b92915050565b6000602082840312156104015761040061081d565b5b600061040f84828501610382565b91505092915050565b60006020828403121561042e5761042d61081d565b5b600061043c848285016103ac565b91505092915050565b60006020828403121561045b5761045a61081d565b5b6000610469848285016103c1565b91505092915050565b600080600080600060a0868803121561048e5761048d61081d565b5b600061049c888289016103d6565b95505060206104ad88828901610397565b94505060406104be888289016103c1565b93505060606104cf888289016103c1565b92505060806104e0888289016103d6565b9150509295509295909350565b60006104fa601b8361055a565b915061050582610822565b602082019050919050565b6105198161079f565b82525050565b60006020820190508181036000830152610538816104ed565b9050919050565b60006020820190506105546000830184610510565b92915050565b600082825260208201905092915050565b60006105768261079f565b91506105818361079f565b9250827fffffffffffffffffffffffffffffffffffffffffffffffffffffffffffffffff038211156105b6576105b56107bf565b5b828201905092915050565b60006105cc8261079f565b91506105d78361079f565b9250826105e7576105e66107ee565b5b828204905092915050565b60006105fd82610775565b915061060883610775565b9250827f7fffffffffffffffffffffffffffffffffffffffffffffffffffffffffffffff0482116000841360008413161615610647576106466107bf565b5b817f80000000000000000000000000000000000000000000000000000000000000000583126000841260008413161615610684576106836107bf565b5b827f800000000000000000000000000000000000000000000000000000000000000005821260008413600084121616156106c1576106c06107bf565b5b827f7fffffffffffffffffffffffffffffffffffffffffffffffffffffffffffffff05821260008412600084121616156106fe576106fd6107bf565b5b828202905092915050565b60006107148261079f565b915061071f8361079f565b9250817fffffffffffffffffffffffffffffffffffffffffffffffffffffffffffffffff0483118215151615610758576107576107bf565b5b828202905092915050565b600061076e8261077f565b9050919050565b6000819050919050565b600073ffffffffffffffffffffffffffffffffffffffff82169050919050565b6000819050919050565b600069ffffffffffffffffffff82169050919050565b7f4e487b7100000000000000000000000000000000000000000000000000000000600052601160045260246000fd5b7f4e487b7100000000000000000000000000000000000000000000000000000000600052601260045260246000fd5b600080fd5b7f596f75206e65656420746f207370656e64206d6f726520455448210000000000600082015250565b61085481610763565b811461085f57600080fd5b50565b61086b81610775565b811461087657600080fd5b50565b6108828161079f565b811461088d57600080fd5b50565b610899816107a9565b81146108a457600080fd5b5056fea2646970667358221220191734e1c5d8271613259046bfaa21ef349e1774433ac93436b9900b08a0eb8c64736f6c63430008070033",
					"opcodes": "PUSH1 0x80 PUSH1 0x40 MSTORE CALLVALUE DUP1 ISZERO PUSH2 0x10 JUMPI PUSH1 0x0 DUP1 REVERT JUMPDEST POP PUSH2 0x8DD DUP1 PUSH2 0x20 PUSH1 0x0 CODECOPY PUSH1 0x0 RETURN INVALID PUSH1 0x80 PUSH1 0x40 MSTORE PUSH1 0x4 CALLDATASIZE LT PUSH2 0x4A JUMPI PUSH1 0x0 CALLDATALOAD PUSH1 0xE0 SHR DUP1 PUSH4 0xD8E6E2C EQ PUSH2 0x4F JUMPI DUP1 PUSH4 0x3E47D6F3 EQ PUSH2 0x7A JUMPI DUP1 PUSH4 0x6E5B6B28 EQ PUSH2 0xB7 JUMPI DUP1 PUSH4 0x98D5FDCA EQ PUSH2 0xF4 JUMPI DUP1 PUSH4 0xB60D4288 EQ PUSH2 0x11F JUMPI JUMPDEST PUSH1 0x0 DUP1 REVERT JUMPDEST CALLVALUE DUP1 ISZERO PUSH2 0x5B JUMPI PUSH1 0x0 DUP1 REVERT JUMPDEST POP PUSH2 0x64 PUSH2 0x129 JUMP JUMPDEST PUSH1 0x40 MLOAD PUSH2 0x71 SWAP2 SWAP1 PUSH2 0x53F JUMP JUMPDEST PUSH1 0x40 MLOAD DUP1 SWAP2 SUB SWAP1 RETURN JUMPDEST CALLVALUE DUP1 ISZERO PUSH2 0x86 JUMPI PUSH1 0x0 DUP1 REVERT JUMPDEST POP PUSH2 0xA1 PUSH1 0x4 DUP1 CALLDATASIZE SUB DUP2 ADD SWAP1 PUSH2 0x9C SWAP2 SWAP1 PUSH2 0x3EB JUMP JUMPDEST PUSH2 0x1C7 JUMP JUMPDEST PUSH1 0x40 MLOAD PUSH2 0xAE SWAP2 SWAP1 PUSH2 0x53F JUMP JUMPDEST PUSH1 0x40 MLOAD DUP1 SWAP2 SUB SWAP1 RETURN JUMPDEST CALLVALUE DUP1 ISZERO PUSH2 0xC3 JUMPI PUSH1 0x0 DUP1 REVERT JUMPDEST POP PUSH2 0xDE PUSH1 0x4 DUP1 CALLDATASIZE SUB DUP2 ADD SWAP1 PUSH2 0xD9 SWAP2 SWAP1 PUSH2 0x418 JUMP JUMPDEST PUSH2 0x1DF JUMP JUMPDEST PUSH1 0x40 MLOAD PUSH2 0xEB SWAP2 SWAP1 PUSH2 0x53F JUMP JUMPDEST PUSH1 0x40 MLOAD DUP1 SWAP2 SUB SWAP1 RETURN JUMPDEST CALLVALUE DUP1 ISZERO PUSH2 0x100 JUMPI PUSH1 0x0 DUP1 REVERT JUMPDEST POP PUSH2 0x109 PUSH2 0x219 JUMP JUMPDEST PUSH1 0x40 MLOAD PUSH2 0x116 SWAP2 SWAP1 PUSH2 0x53F JUMP JUMPDEST PUSH1 0x40 MLOAD DUP1 SWAP2 SUB SWAP1 RETURN JUMPDEST PUSH2 0x127 PUSH2 0x2D1 JUMP JUMPDEST STOP JUMPDEST PUSH1 0x0 DUP1 PUSH20 0x8A753747A1FA494EC906CE90E9F37563A8AF630E SWAP1 POP DUP1 PUSH20 0xFFFFFFFFFFFFFFFFFFFFFFFFFFFFFFFFFFFFFFFF AND PUSH4 0x54FD4D50 PUSH1 0x40 MLOAD DUP2 PUSH4 0xFFFFFFFF AND PUSH1 0xE0 SHL DUP2 MSTORE PUSH1 0x4 ADD PUSH1 0x20 PUSH1 0x40 MLOAD DUP1 DUP4 SUB DUP2 DUP7 DUP1 EXTCODESIZE ISZERO DUP1 ISZERO PUSH2 0x189 JUMPI PUSH1 0x0 DUP1 REVERT JUMPDEST POP GAS STATICCALL ISZERO DUP1 ISZERO PUSH2 0x19D JUMPI RETURNDATASIZE PUSH1 0x0 DUP1 RETURNDATACOPY RETURNDATASIZE PUSH1 0x0 REVERT JUMPDEST POP POP POP POP PUSH1 0x40 MLOAD RETURNDATASIZE PUSH1 0x1F NOT PUSH1 0x1F DUP3 ADD AND DUP3 ADD DUP1 PUSH1 0x40 MSTORE POP DUP2 ADD SWAP1 PUSH2 0x1C1 SWAP2 SWAP1 PUSH2 0x445 JUMP JUMPDEST SWAP2 POP POP SWAP1 JUMP JUMPDEST PUSH1 0x0 PUSH1 0x20 MSTORE DUP1 PUSH1 0x0 MSTORE PUSH1 0x40 PUSH1 0x0 KECCAK256 PUSH1 0x0 SWAP2 POP SWAP1 POP SLOAD DUP2 JUMP JUMPDEST PUSH1 0x0 DUP1 PUSH2 0x1EA PUSH2 0x219 JUMP JUMPDEST SWAP1 POP PUSH1 0x0 PUSH8 0xDE0B6B3A7640000 DUP5 DUP4 PUSH2 0x203 SWAP2 SWAP1 PUSH2 0x709 JUMP JUMPDEST PUSH2 0x20D SWAP2 SWAP1 PUSH2 0x5C1 JUMP JUMPDEST SWAP1 POP DUP1 SWAP3 POP POP POP SWAP2 SWAP1 POP JUMP JUMPDEST PUSH1 0x0 DUP1 PUSH20 0x8A753747A1FA494EC906CE90E9F37563A8AF630E SWAP1 POP PUSH1 0x0 DUP2 PUSH20 0xFFFFFFFFFFFFFFFFFFFFFFFFFFFFFFFFFFFFFFFF AND PUSH4 0xFEAF968C PUSH1 0x40 MLOAD DUP2 PUSH4 0xFFFFFFFF AND PUSH1 0xE0 SHL DUP2 MSTORE PUSH1 0x4 ADD PUSH1 0xA0 PUSH1 0x40 MLOAD DUP1 DUP4 SUB DUP2 DUP7 DUP1 EXTCODESIZE ISZERO DUP1 ISZERO PUSH2 0x27B JUMPI PUSH1 0x0 DUP1 REVERT JUMPDEST POP GAS STATICCALL ISZERO DUP1 ISZERO PUSH2 0x28F JUMPI RETURNDATASIZE PUSH1 0x0 DUP1 RETURNDATACOPY RETURNDATASIZE PUSH1 0x0 REVERT JUMPDEST POP POP POP POP PUSH1 0x40 MLOAD RETURNDATASIZE PUSH1 0x1F NOT PUSH1 0x1F DUP3 ADD AND DUP3 ADD DUP1 PUSH1 0x40 MSTORE POP DUP2 ADD SWAP1 PUSH2 0x2B3 SWAP2 SWAP1 PUSH2 0x472 JUMP JUMPDEST POP POP POP SWAP2 POP POP PUSH5 0x2540BE400 DUP2 PUSH2 0x2CA SWAP2 SWAP1 PUSH2 0x5F2 JUMP JUMPDEST SWAP3 POP POP POP SWAP1 JUMP JUMPDEST PUSH1 0x0 PUSH9 0x2B5E3AF16B1880000 SWAP1 POP DUP1 PUSH2 0x2E9 CALLVALUE PUSH2 0x1DF JUMP JUMPDEST LT ISZERO PUSH2 0x32A JUMPI PUSH1 0x40 MLOAD PUSH32 0x8C379A000000000000000000000000000000000000000000000000000000000 DUP2 MSTORE PUSH1 0x4 ADD PUSH2 0x321 SWAP1 PUSH2 0x51F JUMP JUMPDEST PUSH1 0x40 MLOAD DUP1 SWAP2 SUB SWAP1 REVERT JUMPDEST CALLVALUE PUSH1 0x0 DUP1 CALLER PUSH20 0xFFFFFFFFFFFFFFFFFFFFFFFFFFFFFFFFFFFFFFFF AND PUSH20 0xFFFFFFFFFFFFFFFFFFFFFFFFFFFFFFFFFFFFFFFF AND DUP2 MSTORE PUSH1 0x20 ADD SWAP1 DUP2 MSTORE PUSH1 0x20 ADD PUSH1 0x0 KECCAK256 PUSH1 0x0 DUP3 DUP3 SLOAD PUSH2 0x378 SWAP2 SWAP1 PUSH2 0x56B JUMP JUMPDEST SWAP3 POP POP DUP2 SWAP1 SSTORE POP POP JUMP JUMPDEST PUSH1 0x0 DUP2 CALLDATALOAD SWAP1 POP PUSH2 0x391 DUP2 PUSH2 0x84B JUMP JUMPDEST SWAP3 SWAP2 POP POP JUMP JUMPDEST PUSH1 0x0 DUP2 MLOAD SWAP1 POP PUSH2 0x3A6 DUP2 PUSH2 0x862 JUMP JUMPDEST SWAP3 SWAP2 POP POP JUMP JUMPDEST PUSH1 0x0 DUP2 CALLDATALOAD SWAP1 POP PUSH2 0x3BB DUP2 PUSH2 0x879 JUMP JUMPDEST SWAP3 SWAP2 POP POP JUMP JUMPDEST PUSH1 0x0 DUP2 MLOAD SWAP1 POP PUSH2 0x3D0 DUP2 PUSH2 0x879 JUMP JUMPDEST SWAP3 SWAP2 POP POP JUMP JUMPDEST PUSH1 0x0 DUP2 MLOAD SWAP1 POP PUSH2 0x3E5 DUP2 PUSH2 0x890 JUMP JUMPDEST SWAP3 SWAP2 POP POP JUMP JUMPDEST PUSH1 0x0 PUSH1 0x20 DUP3 DUP5 SUB SLT ISZERO PUSH2 0x401 JUMPI PUSH2 0x400 PUSH2 0x81D JUMP JUMPDEST JUMPDEST PUSH1 0x0 PUSH2 0x40F DUP5 DUP3 DUP6 ADD PUSH2 0x382 JUMP JUMPDEST SWAP2 POP POP SWAP3 SWAP2 POP POP JUMP JUMPDEST PUSH1 0x0 PUSH1 0x20 DUP3 DUP5 SUB SLT ISZERO PUSH2 0x42E JUMPI PUSH2 0x42D PUSH2 0x81D JUMP JUMPDEST JUMPDEST PUSH1 0x0 PUSH2 0x43C DUP5 DUP3 DUP6 ADD PUSH2 0x3AC JUMP JUMPDEST SWAP2 POP POP SWAP3 SWAP2 POP POP JUMP JUMPDEST PUSH1 0x0 PUSH1 0x20 DUP3 DUP5 SUB SLT ISZERO PUSH2 0x45B JUMPI PUSH2 0x45A PUSH2 0x81D JUMP JUMPDEST JUMPDEST PUSH1 0x0 PUSH2 0x469 DUP5 DUP3 DUP6 ADD PUSH2 0x3C1 JUMP JUMPDEST SWAP2 POP POP SWAP3 SWAP2 POP POP JUMP JUMPDEST PUSH1 0x0 DUP1 PUSH1 0x0 DUP1 PUSH1 0x0 PUSH1 0xA0 DUP7 DUP9 SUB SLT ISZERO PUSH2 0x48E JUMPI PUSH2 0x48D PUSH2 0x81D JUMP JUMPDEST JUMPDEST PUSH1 0x0 PUSH2 0x49C DUP9 DUP3 DUP10 ADD PUSH2 0x3D6 JUMP JUMPDEST SWAP6 POP POP PUSH1 0x20 PUSH2 0x4AD DUP9 DUP3 DUP10 ADD PUSH2 0x397 JUMP JUMPDEST SWAP5 POP POP PUSH1 0x40 PUSH2 0x4BE DUP9 DUP3 DUP10 ADD PUSH2 0x3C1 JUMP JUMPDEST SWAP4 POP POP PUSH1 0x60 PUSH2 0x4CF DUP9 DUP3 DUP10 ADD PUSH2 0x3C1 JUMP JUMPDEST SWAP3 POP POP PUSH1 0x80 PUSH2 0x4E0 DUP9 DUP3 DUP10 ADD PUSH2 0x3D6 JUMP JUMPDEST SWAP2 POP POP SWAP3 SWAP6 POP SWAP3 SWAP6 SWAP1 SWAP4 POP JUMP JUMPDEST PUSH1 0x0 PUSH2 0x4FA PUSH1 0x1B DUP4 PUSH2 0x55A JUMP JUMPDEST SWAP2 POP PUSH2 0x505 DUP3 PUSH2 0x822 JUMP JUMPDEST PUSH1 0x20 DUP3 ADD SWAP1 POP SWAP2 SWAP1 POP JUMP JUMPDEST PUSH2 0x519 DUP2 PUSH2 0x79F JUMP JUMPDEST DUP3 MSTORE POP POP JUMP JUMPDEST PUSH1 0x0 PUSH1 0x20 DUP3 ADD SWAP1 POP DUP2 DUP2 SUB PUSH1 0x0 DUP4 ADD MSTORE PUSH2 0x538 DUP2 PUSH2 0x4ED JUMP JUMPDEST SWAP1 POP SWAP2 SWAP1 POP JUMP JUMPDEST PUSH1 0x0 PUSH1 0x20 DUP3 ADD SWAP1 POP PUSH2 0x554 PUSH1 0x0 DUP4 ADD DUP5 PUSH2 0x510 JUMP JUMPDEST SWAP3 SWAP2 POP POP JUMP JUMPDEST PUSH1 0x0 DUP3 DUP3 MSTORE PUSH1 0x20 DUP3 ADD SWAP1 POP SWAP3 SWAP2 POP POP JUMP JUMPDEST PUSH1 0x0 PUSH2 0x576 DUP3 PUSH2 0x79F JUMP JUMPDEST SWAP2 POP PUSH2 0x581 DUP4 PUSH2 0x79F JUMP JUMPDEST SWAP3 POP DUP3 PUSH32 0xFFFFFFFFFFFFFFFFFFFFFFFFFFFFFFFFFFFFFFFFFFFFFFFFFFFFFFFFFFFFFFFF SUB DUP3 GT ISZERO PUSH2 0x5B6 JUMPI PUSH2 0x5B5 PUSH2 0x7BF JUMP JUMPDEST JUMPDEST DUP3 DUP3 ADD SWAP1 POP SWAP3 SWAP2 POP POP JUMP JUMPDEST PUSH1 0x0 PUSH2 0x5CC DUP3 PUSH2 0x79F JUMP JUMPDEST SWAP2 POP PUSH2 0x5D7 DUP4 PUSH2 0x79F JUMP JUMPDEST SWAP3 POP DUP3 PUSH2 0x5E7 JUMPI PUSH2 0x5E6 PUSH2 0x7EE JUMP JUMPDEST JUMPDEST DUP3 DUP3 DIV SWAP1 POP SWAP3 SWAP2 POP POP JUMP JUMPDEST PUSH1 0x0 PUSH2 0x5FD DUP3 PUSH2 0x775 JUMP JUMPDEST SWAP2 POP PUSH2 0x608 DUP4 PUSH2 0x775 JUMP JUMPDEST SWAP3 POP DUP3 PUSH32 0x7FFFFFFFFFFFFFFFFFFFFFFFFFFFFFFFFFFFFFFFFFFFFFFFFFFFFFFFFFFFFFFF DIV DUP3 GT PUSH1 0x0 DUP5 SGT PUSH1 0x0 DUP5 SGT AND AND ISZERO PUSH2 0x647 JUMPI PUSH2 0x646 PUSH2 0x7BF JUMP JUMPDEST JUMPDEST DUP2 PUSH32 0x8000000000000000000000000000000000000000000000000000000000000000 SDIV DUP4 SLT PUSH1 0x0 DUP5 SLT PUSH1 0x0 DUP5 SGT AND AND ISZERO PUSH2 0x684 JUMPI PUSH2 0x683 PUSH2 0x7BF JUMP JUMPDEST JUMPDEST DUP3 PUSH32 0x8000000000000000000000000000000000000000000000000000000000000000 SDIV DUP3 SLT PUSH1 0x0 DUP5 SGT PUSH1 0x0 DUP5 SLT AND AND ISZERO PUSH2 0x6C1 JUMPI PUSH2 0x6C0 PUSH2 0x7BF JUMP JUMPDEST JUMPDEST DUP3 PUSH32 0x7FFFFFFFFFFFFFFFFFFFFFFFFFFFFFFFFFFFFFFFFFFFFFFFFFFFFFFFFFFFFFFF SDIV DUP3 SLT PUSH1 0x0 DUP5 SLT PUSH1 0x0 DUP5 SLT AND AND ISZERO PUSH2 0x6FE JUMPI PUSH2 0x6FD PUSH2 0x7BF JUMP JUMPDEST JUMPDEST DUP3 DUP3 MUL SWAP1 POP SWAP3 SWAP2 POP POP JUMP JUMPDEST PUSH1 0x0 PUSH2 0x714 DUP3 PUSH2 0x79F JUMP JUMPDEST SWAP2 POP PUSH2 0x71F DUP4 PUSH2 0x79F JUMP JUMPDEST SWAP3 POP DUP2 PUSH32 0xFFFFFFFFFFFFFFFFFFFFFFFFFFFFFFFFFFFFFFFFFFFFFFFFFFFFFFFFFFFFFFFF DIV DUP4 GT DUP3 ISZERO ISZERO AND ISZERO PUSH2 0x758 JUMPI PUSH2 0x757 PUSH2 0x7BF JUMP JUMPDEST JUMPDEST DUP3 DUP3 MUL SWAP1 POP SWAP3 SWAP2 POP POP JUMP JUMPDEST PUSH1 0x0 PUSH2 0x76E DUP3 PUSH2 0x77F JUMP JUMPDEST SWAP1 POP SWAP2 SWAP1 POP JUMP JUMPDEST PUSH1 0x0 DUP2 SWAP1 POP SWAP2 SWAP1 POP JUMP JUMPDEST PUSH1 0x0 PUSH20 0xFFFFFFFFFFFFFFFFFFFFFFFFFFFFFFFFFFFFFFFF DUP3 AND SWAP1 POP SWAP2 SWAP1 POP JUMP JUMPDEST PUSH1 0x0 DUP2 SWAP1 POP SWAP2 SWAP1 POP JUMP JUMPDEST PUSH1 0x0 PUSH10 0xFFFFFFFFFFFFFFFFFFFF DUP3 AND SWAP1 POP SWAP2 SWAP1 POP JUMP JUMPDEST PUSH32 0x4E487B7100000000000000000000000000000000000000000000000000000000 PUSH1 0x0 MSTORE PUSH1 0x11 PUSH1 0x4 MSTORE PUSH1 0x24 PUSH1 0x0 REVERT JUMPDEST PUSH32 0x4E487B7100000000000000000000000000000000000000000000000000000000 PUSH1 0x0 MSTORE PUSH1 0x12 PUSH1 0x4 MSTORE PUSH1 0x24 PUSH1 0x0 REVERT JUMPDEST PUSH1 0x0 DUP1 REVERT JUMPDEST PUSH32 0x596F75206E65656420746F207370656E64206D6F726520455448210000000000 PUSH1 0x0 DUP3 ADD MSTORE POP JUMP JUMPDEST PUSH2 0x854 DUP2 PUSH2 0x763 JUMP JUMPDEST DUP2 EQ PUSH2 0x85F JUMPI PUSH1 0x0 DUP1 REVERT JUMPDEST POP JUMP JUMPDEST PUSH2 0x86B DUP2 PUSH2 0x775 JUMP JUMPDEST DUP2 EQ PUSH2 0x876 JUMPI PUSH1 0x0 DUP1 REVERT JUMPDEST POP JUMP JUMPDEST PUSH2 0x882 DUP2 PUSH2 0x79F JUMP JUMPDEST DUP2 EQ PUSH2 0x88D JUMPI PUSH1 0x0 DUP1 REVERT JUMPDEST POP JUMP JUMPDEST PUSH2 0x899 DUP2 PUSH2 0x7A9 JUMP JUMPDEST DUP2 EQ PUSH2 0x8A4 JUMPI PUSH1 0x0 DUP1 REVERT JUMPDEST POP JUMP INVALID LOG2 PUSH5 0x6970667358 0x22 SLT KECCAK256 NOT OR CALLVALUE 0xE1 0xC5 0xD8 0x27 AND SGT 0x25 SWAP1 CHAINID 0xBF 0xAA 0x21 0xEF CALLVALUE SWAP15 OR PUSH21 0x433AC93436B9900B08A0EB8C64736F6C6343000807 STOP CALLER "
				},
				"gasEstimates": {
					"creation": {
						"codeDepositCost": "453800",
						"executionCost": "486",
						"totalCost": "454286"
					},
					"external": {
						"addressToAmountFunded(address)": "2814",
						"fund()": "infinite",
						"getConversionRate(uint256)": "infinite",
						"getPrice()": "infinite",
						"getVersion()": "infinite"
					}
				},
				"methodIdentifiers": {
					"addressToAmountFunded(address)": "3e47d6f3",
					"fund()": "b60d4288",
					"getConversionRate(uint256)": "6e5b6b28",
					"getPrice()": "98d5fdca",
					"getVersion()": "0d8e6e2c"
				}
			},
			"storageLayout": {
				"storage": [
					{
						"astId": 52,
						"contract": "contracts/FundMe.sol:FundMe",
						"label": "addressToAmountFunded",
						"offset": 0,
						"slot": "0",
						"type": "t_mapping(t_address,t_uint256)"
					}
				],
				"types": {
					"t_address": {
						"encoding": "inplace",
						"label": "address",
						"numberOfBytes": "20"
					},
					"t_mapping(t_address,t_uint256)": {
						"encoding": "mapping",
						"key": "t_address",
						"label": "mapping(address => uint256)",
						"numberOfBytes": "32",
						"value": "t_uint256"
					},
					"t_uint256": {
						"encoding": "inplace",
						"label": "uint256",
						"numberOfBytes": "32"
					}
				}
			},
			"userdoc": {
				"kind": "user",
				"methods": {},
				"version": 1
			}
		}
	}
}