{
	"contracts/FundMe.sol": {
		"FundMe": {
			"abi": [
				{
					"inputs": [
						{
							"internalType": "address",
							"name": "",
							"type": "address"
						}
					],
					"name": "addressToAmountFunded",
					"outputs": [
						{
							"internalType": "uint256",
							"name": "",
							"type": "uint256"
						}
					],
					"stateMutability": "view",
					"type": "function"
				},
				{
					"inputs": [],
					"name": "fund",
					"outputs": [],
					"stateMutability": "payable",
					"type": "function"
				},
				{
					"inputs": [],
					"name": "getPrice",
					"outputs": [
						{
							"internalType": "uint256",
							"name": "",
							"type": "uint256"
						}
					],
					"stateMutability": "view",
					"type": "function"
				},
				{
					"inputs": [],
					"name": "getVersion",
					"outputs": [
						{
							"internalType": "uint256",
							"name": "",
							"type": "uint256"
						}
					],
					"stateMutability": "view",
					"type": "function"
				}
			],
			"devdoc": {
				"kind": "dev",
				"methods": {},
				"version": 1
			},
			"evm": {
				"assembly": "    /* \"contracts/FundMe.sol\":926:1594  contract FundMe {\r... */\n  mstore(0x40, 0x80)\n  callvalue\n  dup1\n  iszero\n  tag_1\n  jumpi\n  0x00\n  dup1\n  revert\ntag_1:\n  pop\n  dataSize(sub_0)\n  dup1\n  dataOffset(sub_0)\n  0x00\n  codecopy\n  0x00\n  return\nstop\n\nsub_0: assembly {\n        /* \"contracts/FundMe.sol\":926:1594  contract FundMe {\r... */\n      mstore(0x40, 0x80)\n      jumpi(tag_1, lt(calldatasize, 0x04))\n      shr(0xe0, calldataload(0x00))\n      dup1\n      0x0d8e6e2c\n      eq\n      tag_2\n      jumpi\n      dup1\n      0x3e47d6f3\n      eq\n      tag_3\n      jumpi\n      dup1\n      0x98d5fdca\n      eq\n      tag_4\n      jumpi\n      dup1\n      0xb60d4288\n      eq\n      tag_5\n      jumpi\n    tag_1:\n      0x00\n      dup1\n      revert\n        /* \"contracts/FundMe.sol\":1124:1327  function getVersion() public view returns (uint256) {\r... */\n    tag_2:\n      callvalue\n      dup1\n      iszero\n      tag_6\n      jumpi\n      0x00\n      dup1\n      revert\n    tag_6:\n      pop\n      tag_7\n      tag_8\n      jump\t// in\n    tag_7:\n      mload(0x40)\n      tag_9\n      swap2\n      swap1\n      tag_10\n      jump\t// in\n    tag_9:\n      mload(0x40)\n      dup1\n      swap2\n      sub\n      swap1\n      return\n        /* \"contracts/FundMe.sol\":951:1007  mapping(address => uint256) public addressToAmountFunded */\n    tag_3:\n      callvalue\n      dup1\n      iszero\n      tag_11\n      jumpi\n      0x00\n      dup1\n      revert\n    tag_11:\n      pop\n      tag_12\n      0x04\n      dup1\n      calldatasize\n      sub\n      dup2\n      add\n      swap1\n      tag_13\n      swap2\n      swap1\n      tag_14\n      jump\t// in\n    tag_13:\n      tag_15\n      jump\t// in\n    tag_12:\n      mload(0x40)\n      tag_16\n      swap2\n      swap1\n      tag_10\n      jump\t// in\n    tag_16:\n      mload(0x40)\n      dup1\n      swap2\n      sub\n      swap1\n      return\n        /* \"contracts/FundMe.sol\":1335:1589  function getPrice() public view returns(uint256) {\r... */\n    tag_4:\n      callvalue\n      dup1\n      iszero\n      tag_17\n      jumpi\n      0x00\n      dup1\n      revert\n    tag_17:\n      pop\n      tag_18\n      tag_19\n      jump\t// in\n    tag_18:\n      mload(0x40)\n      tag_20\n      swap2\n      swap1\n      tag_10\n      jump\t// in\n    tag_20:\n      mload(0x40)\n      dup1\n      swap2\n      sub\n      swap1\n      return\n        /* \"contracts/FundMe.sol\":1020:1116  function fund() public payable {\r... */\n    tag_5:\n      tag_21\n      tag_22\n      jump\t// in\n    tag_21:\n      stop\n        /* \"contracts/FundMe.sol\":1124:1327  function getVersion() public view returns (uint256) {\r... */\n    tag_8:\n        /* \"contracts/FundMe.sol\":1167:1174  uint256 */\n      0x00\n        /* \"contracts/FundMe.sol\":1185:1216  AggregatorV3Interface priceFeed */\n      dup1\n        /* \"contracts/FundMe.sol\":1241:1283  0x8A753747A1Fa494EC906cE90E9f37563A8AF630e */\n      0x8a753747a1fa494ec906ce90e9f37563a8af630e\n        /* \"contracts/FundMe.sol\":1185:1284  AggregatorV3Interface priceFeed = AggregatorV3Interface(0x8A753747A1Fa494EC906cE90E9f37563A8AF630e) */\n      swap1\n      pop\n        /* \"contracts/FundMe.sol\":1300:1309  priceFeed */\n      dup1\n        /* \"contracts/FundMe.sol\":1300:1317  priceFeed.version */\n      0xffffffffffffffffffffffffffffffffffffffff\n      and\n      0x54fd4d50\n        /* \"contracts/FundMe.sol\":1300:1319  priceFeed.version() */\n      mload(0x40)\n      dup2\n      0xffffffff\n      and\n      0xe0\n      shl\n      dup2\n      mstore\n      0x04\n      add\n      0x20\n      mload(0x40)\n      dup1\n      dup4\n      sub\n      dup2\n      dup7\n      dup1\n      extcodesize\n      iszero\n      dup1\n      iszero\n      tag_24\n      jumpi\n      0x00\n      dup1\n      revert\n    tag_24:\n      pop\n      gas\n      staticcall\n      iszero\n      dup1\n      iszero\n      tag_26\n      jumpi\n      returndatasize\n      0x00\n      dup1\n      returndatacopy\n      revert(0x00, returndatasize)\n    tag_26:\n      pop\n      pop\n      pop\n      pop\n      mload(0x40)\n      returndatasize\n      not(0x1f)\n      0x1f\n      dup3\n      add\n      and\n      dup3\n      add\n      dup1\n      0x40\n      mstore\n      pop\n      dup2\n      add\n      swap1\n      tag_27\n      swap2\n      swap1\n      tag_28\n      jump\t// in\n    tag_27:\n        /* \"contracts/FundMe.sol\":1293:1319  return priceFeed.version() */\n      swap2\n      pop\n      pop\n        /* \"contracts/FundMe.sol\":1124:1327  function getVersion() public view returns (uint256) {\r... */\n      swap1\n      jump\t// out\n        /* \"contracts/FundMe.sol\":951:1007  mapping(address => uint256) public addressToAmountFunded */\n    tag_15:\n      mstore(0x20, 0x00)\n      dup1\n      0x00\n      mstore\n      keccak256(0x00, 0x40)\n      0x00\n      swap2\n      pop\n      swap1\n      pop\n      sload\n      dup2\n      jump\t// out\n        /* \"contracts/FundMe.sol\":1335:1589  function getPrice() public view returns(uint256) {\r... */\n    tag_19:\n        /* \"contracts/FundMe.sol\":1375:1382  uint256 */\n      0x00\n        /* \"contracts/FundMe.sol\":1393:1424  AggregatorV3Interface priceFeed */\n      dup1\n        /* \"contracts/FundMe.sol\":1449:1491  0x8A753747A1Fa494EC906cE90E9f37563A8AF630e */\n      0x8a753747a1fa494ec906ce90e9f37563a8af630e\n        /* \"contracts/FundMe.sol\":1393:1492  AggregatorV3Interface priceFeed = AggregatorV3Interface(0x8A753747A1Fa494EC906cE90E9f37563A8AF630e) */\n      swap1\n      pop\n        /* \"contracts/FundMe.sol\":1503:1516  int256 answer */\n      0x00\n        /* \"contracts/FundMe.sol\":1523:1532  priceFeed */\n      dup2\n        /* \"contracts/FundMe.sol\":1523:1548  priceFeed.latestRoundData */\n      0xffffffffffffffffffffffffffffffffffffffff\n      and\n      0xfeaf968c\n        /* \"contracts/FundMe.sol\":1523:1550  priceFeed.latestRoundData() */\n      mload(0x40)\n      dup2\n      0xffffffff\n      and\n      0xe0\n      shl\n      dup2\n      mstore\n      0x04\n      add\n      0xa0\n      mload(0x40)\n      dup1\n      dup4\n      sub\n      dup2\n      dup7\n      dup1\n      extcodesize\n      iszero\n      dup1\n      iszero\n      tag_30\n      jumpi\n      0x00\n      dup1\n      revert\n    tag_30:\n      pop\n      gas\n      staticcall\n      iszero\n      dup1\n      iszero\n      tag_32\n      jumpi\n      returndatasize\n      0x00\n      dup1\n      returndatacopy\n      revert(0x00, returndatasize)\n    tag_32:\n      pop\n      pop\n      pop\n      pop\n      mload(0x40)\n      returndatasize\n      not(0x1f)\n      0x1f\n      dup3\n      add\n      and\n      dup3\n      add\n      dup1\n      0x40\n      mstore\n      pop\n      dup2\n      add\n      swap1\n      tag_33\n      swap2\n      swap1\n      tag_34\n      jump\t// in\n    tag_33:\n        /* \"contracts/FundMe.sol\":1501:1550  (,int256 answer,,,) = priceFeed.latestRoundData() */\n      pop\n      pop\n      pop\n      swap2\n      pop\n      pop\n        /* \"contracts/FundMe.sol\":1574:1580  answer */\n      dup1\n        /* \"contracts/FundMe.sol\":1559:1581  return uint256(answer) */\n      swap3\n      pop\n      pop\n      pop\n        /* \"contracts/FundMe.sol\":1335:1589  function getPrice() public view returns(uint256) {\r... */\n      swap1\n      jump\t// out\n        /* \"contracts/FundMe.sol\":1020:1116  function fund() public payable {\r... */\n    tag_22:\n        /* \"contracts/FundMe.sol\":1097:1106  msg.value */\n      callvalue\n        /* \"contracts/FundMe.sol\":1060:1081  addressToAmountFunded */\n      0x00\n        /* \"contracts/FundMe.sol\":1060:1093  addressToAmountFunded[msg.sender] */\n      dup1\n        /* \"contracts/FundMe.sol\":1082:1092  msg.sender */\n      caller\n        /* \"contracts/FundMe.sol\":1060:1093  addressToAmountFunded[msg.sender] */\n      0xffffffffffffffffffffffffffffffffffffffff\n      and\n      0xffffffffffffffffffffffffffffffffffffffff\n      and\n      dup2\n      mstore\n      0x20\n      add\n      swap1\n      dup2\n      mstore\n      0x20\n      add\n      0x00\n      keccak256\n      0x00\n        /* \"contracts/FundMe.sol\":1060:1106  addressToAmountFunded[msg.sender] += msg.value */\n      dup3\n      dup3\n      sload\n      tag_36\n      swap2\n      swap1\n      tag_37\n      jump\t// in\n    tag_36:\n      swap3\n      pop\n      pop\n      dup2\n      swap1\n      sstore\n      pop\n        /* \"contracts/FundMe.sol\":1020:1116  function fund() public payable {\r... */\n      jump\t// out\n        /* \"#utility.yul\":7:146   */\n    tag_39:\n        /* \"#utility.yul\":53:58   */\n      0x00\n        /* \"#utility.yul\":91:97   */\n      dup2\n        /* \"#utility.yul\":78:98   */\n      calldataload\n        /* \"#utility.yul\":69:98   */\n      swap1\n      pop\n        /* \"#utility.yul\":107:140   */\n      tag_41\n        /* \"#utility.yul\":134:139   */\n      dup2\n        /* \"#utility.yul\":107:140   */\n      tag_42\n      jump\t// in\n    tag_41:\n        /* \"#utility.yul\":7:146   */\n      swap3\n      swap2\n      pop\n      pop\n      jump\t// out\n        /* \"#utility.yul\":152:293   */\n    tag_43:\n        /* \"#utility.yul\":208:213   */\n      0x00\n        /* \"#utility.yul\":239:245   */\n      dup2\n        /* \"#utility.yul\":233:246   */\n      mload\n        /* \"#utility.yul\":224:246   */\n      swap1\n      pop\n        /* \"#utility.yul\":255:287   */\n      tag_45\n        /* \"#utility.yul\":281:286   */\n      dup2\n        /* \"#utility.yul\":255:287   */\n      tag_46\n      jump\t// in\n    tag_45:\n        /* \"#utility.yul\":152:293   */\n      swap3\n      swap2\n      pop\n      pop\n      jump\t// out\n        /* \"#utility.yul\":299:442   */\n    tag_47:\n        /* \"#utility.yul\":356:361   */\n      0x00\n        /* \"#utility.yul\":387:393   */\n      dup2\n        /* \"#utility.yul\":381:394   */\n      mload\n        /* \"#utility.yul\":372:394   */\n      swap1\n      pop\n        /* \"#utility.yul\":403:436   */\n      tag_49\n        /* \"#utility.yul\":430:435   */\n      dup2\n        /* \"#utility.yul\":403:436   */\n      tag_50\n      jump\t// in\n    tag_49:\n        /* \"#utility.yul\":299:442   */\n      swap3\n      swap2\n      pop\n      pop\n      jump\t// out\n        /* \"#utility.yul\":448:589   */\n    tag_51:\n        /* \"#utility.yul\":504:509   */\n      0x00\n        /* \"#utility.yul\":535:541   */\n      dup2\n        /* \"#utility.yul\":529:542   */\n      mload\n        /* \"#utility.yul\":520:542   */\n      swap1\n      pop\n        /* \"#utility.yul\":551:583   */\n      tag_53\n        /* \"#utility.yul\":577:582   */\n      dup2\n        /* \"#utility.yul\":551:583   */\n      tag_54\n      jump\t// in\n    tag_53:\n        /* \"#utility.yul\":448:589   */\n      swap3\n      swap2\n      pop\n      pop\n      jump\t// out\n        /* \"#utility.yul\":595:924   */\n    tag_14:\n        /* \"#utility.yul\":654:660   */\n      0x00\n        /* \"#utility.yul\":703:705   */\n      0x20\n        /* \"#utility.yul\":691:700   */\n      dup3\n        /* \"#utility.yul\":682:689   */\n      dup5\n        /* \"#utility.yul\":678:701   */\n      sub\n        /* \"#utility.yul\":674:706   */\n      slt\n        /* \"#utility.yul\":671:790   */\n      iszero\n      tag_56\n      jumpi\n        /* \"#utility.yul\":709:788   */\n      tag_57\n      tag_58\n      jump\t// in\n    tag_57:\n        /* \"#utility.yul\":671:790   */\n    tag_56:\n        /* \"#utility.yul\":829:830   */\n      0x00\n        /* \"#utility.yul\":854:907   */\n      tag_59\n        /* \"#utility.yul\":899:906   */\n      dup5\n        /* \"#utility.yul\":890:896   */\n      dup3\n        /* \"#utility.yul\":879:888   */\n      dup6\n        /* \"#utility.yul\":875:897   */\n      add\n        /* \"#utility.yul\":854:907   */\n      tag_39\n      jump\t// in\n    tag_59:\n        /* \"#utility.yul\":844:907   */\n      swap2\n      pop\n        /* \"#utility.yul\":800:917   */\n      pop\n        /* \"#utility.yul\":595:924   */\n      swap3\n      swap2\n      pop\n      pop\n      jump\t// out\n        /* \"#utility.yul\":930:1281   */\n    tag_28:\n        /* \"#utility.yul\":1000:1006   */\n      0x00\n        /* \"#utility.yul\":1049:1051   */\n      0x20\n        /* \"#utility.yul\":1037:1046   */\n      dup3\n        /* \"#utility.yul\":1028:1035   */\n      dup5\n        /* \"#utility.yul\":1024:1047   */\n      sub\n        /* \"#utility.yul\":1020:1052   */\n      slt\n        /* \"#utility.yul\":1017:1136   */\n      iszero\n      tag_61\n      jumpi\n        /* \"#utility.yul\":1055:1134   */\n      tag_62\n      tag_58\n      jump\t// in\n    tag_62:\n        /* \"#utility.yul\":1017:1136   */\n    tag_61:\n        /* \"#utility.yul\":1175:1176   */\n      0x00\n        /* \"#utility.yul\":1200:1264   */\n      tag_63\n        /* \"#utility.yul\":1256:1263   */\n      dup5\n        /* \"#utility.yul\":1247:1253   */\n      dup3\n        /* \"#utility.yul\":1236:1245   */\n      dup6\n        /* \"#utility.yul\":1232:1254   */\n      add\n        /* \"#utility.yul\":1200:1264   */\n      tag_47\n      jump\t// in\n    tag_63:\n        /* \"#utility.yul\":1190:1264   */\n      swap2\n      pop\n        /* \"#utility.yul\":1146:1274   */\n      pop\n        /* \"#utility.yul\":930:1281   */\n      swap3\n      swap2\n      pop\n      pop\n      jump\t// out\n        /* \"#utility.yul\":1287:2258   */\n    tag_34:\n        /* \"#utility.yul\":1390:1396   */\n      0x00\n        /* \"#utility.yul\":1398:1404   */\n      dup1\n        /* \"#utility.yul\":1406:1412   */\n      0x00\n        /* \"#utility.yul\":1414:1420   */\n      dup1\n        /* \"#utility.yul\":1422:1428   */\n      0x00\n        /* \"#utility.yul\":1471:1474   */\n      0xa0\n        /* \"#utility.yul\":1459:1468   */\n      dup7\n        /* \"#utility.yul\":1450:1457   */\n      dup9\n        /* \"#utility.yul\":1446:1469   */\n      sub\n        /* \"#utility.yul\":1442:1475   */\n      slt\n        /* \"#utility.yul\":1439:1559   */\n      iszero\n      tag_65\n      jumpi\n        /* \"#utility.yul\":1478:1557   */\n      tag_66\n      tag_58\n      jump\t// in\n    tag_66:\n        /* \"#utility.yul\":1439:1559   */\n    tag_65:\n        /* \"#utility.yul\":1598:1599   */\n      0x00\n        /* \"#utility.yul\":1623:1686   */\n      tag_67\n        /* \"#utility.yul\":1678:1685   */\n      dup9\n        /* \"#utility.yul\":1669:1675   */\n      dup3\n        /* \"#utility.yul\":1658:1667   */\n      dup10\n        /* \"#utility.yul\":1654:1676   */\n      add\n        /* \"#utility.yul\":1623:1686   */\n      tag_51\n      jump\t// in\n    tag_67:\n        /* \"#utility.yul\":1613:1686   */\n      swap6\n      pop\n        /* \"#utility.yul\":1569:1696   */\n      pop\n        /* \"#utility.yul\":1735:1737   */\n      0x20\n        /* \"#utility.yul\":1761:1824   */\n      tag_68\n        /* \"#utility.yul\":1816:1823   */\n      dup9\n        /* \"#utility.yul\":1807:1813   */\n      dup3\n        /* \"#utility.yul\":1796:1805   */\n      dup10\n        /* \"#utility.yul\":1792:1814   */\n      add\n        /* \"#utility.yul\":1761:1824   */\n      tag_43\n      jump\t// in\n    tag_68:\n        /* \"#utility.yul\":1751:1824   */\n      swap5\n      pop\n        /* \"#utility.yul\":1706:1834   */\n      pop\n        /* \"#utility.yul\":1873:1875   */\n      0x40\n        /* \"#utility.yul\":1899:1963   */\n      tag_69\n        /* \"#utility.yul\":1955:1962   */\n      dup9\n        /* \"#utility.yul\":1946:1952   */\n      dup3\n        /* \"#utility.yul\":1935:1944   */\n      dup10\n        /* \"#utility.yul\":1931:1953   */\n      add\n        /* \"#utility.yul\":1899:1963   */\n      tag_47\n      jump\t// in\n    tag_69:\n        /* \"#utility.yul\":1889:1963   */\n      swap4\n      pop\n        /* \"#utility.yul\":1844:1973   */\n      pop\n        /* \"#utility.yul\":2012:2014   */\n      0x60\n        /* \"#utility.yul\":2038:2102   */\n      tag_70\n        /* \"#utility.yul\":2094:2101   */\n      dup9\n        /* \"#utility.yul\":2085:2091   */\n      dup3\n        /* \"#utility.yul\":2074:2083   */\n      dup10\n        /* \"#utility.yul\":2070:2092   */\n      add\n        /* \"#utility.yul\":2038:2102   */\n      tag_47\n      jump\t// in\n    tag_70:\n        /* \"#utility.yul\":2028:2102   */\n      swap3\n      pop\n        /* \"#utility.yul\":1983:2112   */\n      pop\n        /* \"#utility.yul\":2151:2154   */\n      0x80\n        /* \"#utility.yul\":2178:2241   */\n      tag_71\n        /* \"#utility.yul\":2233:2240   */\n      dup9\n        /* \"#utility.yul\":2224:2230   */\n      dup3\n        /* \"#utility.yul\":2213:2222   */\n      dup10\n        /* \"#utility.yul\":2209:2231   */\n      add\n        /* \"#utility.yul\":2178:2241   */\n      tag_51\n      jump\t// in\n    tag_71:\n        /* \"#utility.yul\":2168:2241   */\n      swap2\n      pop\n        /* \"#utility.yul\":2122:2251   */\n      pop\n        /* \"#utility.yul\":1287:2258   */\n      swap3\n      swap6\n      pop\n      swap3\n      swap6\n      swap1\n      swap4\n      pop\n      jump\t// out\n        /* \"#utility.yul\":2264:2382   */\n    tag_72:\n        /* \"#utility.yul\":2351:2375   */\n      tag_74\n        /* \"#utility.yul\":2369:2374   */\n      dup2\n        /* \"#utility.yul\":2351:2375   */\n      tag_75\n      jump\t// in\n    tag_74:\n        /* \"#utility.yul\":2346:2349   */\n      dup3\n        /* \"#utility.yul\":2339:2376   */\n      mstore\n        /* \"#utility.yul\":2264:2382   */\n      pop\n      pop\n      jump\t// out\n        /* \"#utility.yul\":2388:2610   */\n    tag_10:\n        /* \"#utility.yul\":2481:2485   */\n      0x00\n        /* \"#utility.yul\":2519:2521   */\n      0x20\n        /* \"#utility.yul\":2508:2517   */\n      dup3\n        /* \"#utility.yul\":2504:2522   */\n      add\n        /* \"#utility.yul\":2496:2522   */\n      swap1\n      pop\n        /* \"#utility.yul\":2532:2603   */\n      tag_77\n        /* \"#utility.yul\":2600:2601   */\n      0x00\n        /* \"#utility.yul\":2589:2598   */\n      dup4\n        /* \"#utility.yul\":2585:2602   */\n      add\n        /* \"#utility.yul\":2576:2582   */\n      dup5\n        /* \"#utility.yul\":2532:2603   */\n      tag_72\n      jump\t// in\n    tag_77:\n        /* \"#utility.yul\":2388:2610   */\n      swap3\n      swap2\n      pop\n      pop\n      jump\t// out\n        /* \"#utility.yul\":2697:3002   */\n    tag_37:\n        /* \"#utility.yul\":2737:2740   */\n      0x00\n        /* \"#utility.yul\":2756:2776   */\n      tag_81\n        /* \"#utility.yul\":2774:2775   */\n      dup3\n        /* \"#utility.yul\":2756:2776   */\n      tag_75\n      jump\t// in\n    tag_81:\n        /* \"#utility.yul\":2751:2776   */\n      swap2\n      pop\n        /* \"#utility.yul\":2790:2810   */\n      tag_82\n        /* \"#utility.yul\":2808:2809   */\n      dup4\n        /* \"#utility.yul\":2790:2810   */\n      tag_75\n      jump\t// in\n    tag_82:\n        /* \"#utility.yul\":2785:2810   */\n      swap3\n      pop\n        /* \"#utility.yul\":2944:2945   */\n      dup3\n        /* \"#utility.yul\":2876:2942   */\n      0xffffffffffffffffffffffffffffffffffffffffffffffffffffffffffffffff\n        /* \"#utility.yul\":2872:2946   */\n      sub\n        /* \"#utility.yul\":2869:2870   */\n      dup3\n        /* \"#utility.yul\":2866:2947   */\n      gt\n        /* \"#utility.yul\":2863:2970   */\n      iszero\n      tag_83\n      jumpi\n        /* \"#utility.yul\":2950:2968   */\n      tag_84\n      tag_85\n      jump\t// in\n    tag_84:\n        /* \"#utility.yul\":2863:2970   */\n    tag_83:\n        /* \"#utility.yul\":2994:2995   */\n      dup3\n        /* \"#utility.yul\":2991:2992   */\n      dup3\n        /* \"#utility.yul\":2987:2996   */\n      add\n        /* \"#utility.yul\":2980:2996   */\n      swap1\n      pop\n        /* \"#utility.yul\":2697:3002   */\n      swap3\n      swap2\n      pop\n      pop\n      jump\t// out\n        /* \"#utility.yul\":3008:3104   */\n    tag_86:\n        /* \"#utility.yul\":3045:3052   */\n      0x00\n        /* \"#utility.yul\":3074:3098   */\n      tag_88\n        /* \"#utility.yul\":3092:3097   */\n      dup3\n        /* \"#utility.yul\":3074:3098   */\n      tag_89\n      jump\t// in\n    tag_88:\n        /* \"#utility.yul\":3063:3098   */\n      swap1\n      pop\n        /* \"#utility.yul\":3008:3104   */\n      swap2\n      swap1\n      pop\n      jump\t// out\n        /* \"#utility.yul\":3110:3186   */\n    tag_90:\n        /* \"#utility.yul\":3146:3153   */\n      0x00\n        /* \"#utility.yul\":3175:3180   */\n      dup2\n        /* \"#utility.yul\":3164:3180   */\n      swap1\n      pop\n        /* \"#utility.yul\":3110:3186   */\n      swap2\n      swap1\n      pop\n      jump\t// out\n        /* \"#utility.yul\":3192:3318   */\n    tag_89:\n        /* \"#utility.yul\":3229:3236   */\n      0x00\n        /* \"#utility.yul\":3269:3311   */\n      0xffffffffffffffffffffffffffffffffffffffff\n        /* \"#utility.yul\":3262:3267   */\n      dup3\n        /* \"#utility.yul\":3258:3312   */\n      and\n        /* \"#utility.yul\":3247:3312   */\n      swap1\n      pop\n        /* \"#utility.yul\":3192:3318   */\n      swap2\n      swap1\n      pop\n      jump\t// out\n        /* \"#utility.yul\":3324:3401   */\n    tag_75:\n        /* \"#utility.yul\":3361:3368   */\n      0x00\n        /* \"#utility.yul\":3390:3395   */\n      dup2\n        /* \"#utility.yul\":3379:3395   */\n      swap1\n      pop\n        /* \"#utility.yul\":3324:3401   */\n      swap2\n      swap1\n      pop\n      jump\t// out\n        /* \"#utility.yul\":3407:3512   */\n    tag_94:\n        /* \"#utility.yul\":3443:3450   */\n      0x00\n        /* \"#utility.yul\":3483:3505   */\n      0xffffffffffffffffffff\n        /* \"#utility.yul\":3476:3481   */\n      dup3\n        /* \"#utility.yul\":3472:3506   */\n      and\n        /* \"#utility.yul\":3461:3506   */\n      swap1\n      pop\n        /* \"#utility.yul\":3407:3512   */\n      swap2\n      swap1\n      pop\n      jump\t// out\n        /* \"#utility.yul\":3518:3698   */\n    tag_85:\n        /* \"#utility.yul\":3566:3643   */\n      0x4e487b7100000000000000000000000000000000000000000000000000000000\n        /* \"#utility.yul\":3563:3564   */\n      0x00\n        /* \"#utility.yul\":3556:3644   */\n      mstore\n        /* \"#utility.yul\":3663:3667   */\n      0x11\n        /* \"#utility.yul\":3660:3661   */\n      0x04\n        /* \"#utility.yul\":3653:3668   */\n      mstore\n        /* \"#utility.yul\":3687:3691   */\n      0x24\n        /* \"#utility.yul\":3684:3685   */\n      0x00\n        /* \"#utility.yul\":3677:3692   */\n      revert\n        /* \"#utility.yul\":3827:3944   */\n    tag_58:\n        /* \"#utility.yul\":3936:3937   */\n      0x00\n        /* \"#utility.yul\":3933:3934   */\n      dup1\n        /* \"#utility.yul\":3926:3938   */\n      revert\n        /* \"#utility.yul\":3950:4072   */\n    tag_42:\n        /* \"#utility.yul\":4023:4047   */\n      tag_101\n        /* \"#utility.yul\":4041:4046   */\n      dup2\n        /* \"#utility.yul\":4023:4047   */\n      tag_86\n      jump\t// in\n    tag_101:\n        /* \"#utility.yul\":4016:4021   */\n      dup2\n        /* \"#utility.yul\":4013:4048   */\n      eq\n        /* \"#utility.yul\":4003:4066   */\n      tag_102\n      jumpi\n        /* \"#utility.yul\":4062:4063   */\n      0x00\n        /* \"#utility.yul\":4059:4060   */\n      dup1\n        /* \"#utility.yul\":4052:4064   */\n      revert\n        /* \"#utility.yul\":4003:4066   */\n    tag_102:\n        /* \"#utility.yul\":3950:4072   */\n      pop\n      jump\t// out\n        /* \"#utility.yul\":4078:4198   */\n    tag_46:\n        /* \"#utility.yul\":4150:4173   */\n      tag_104\n        /* \"#utility.yul\":4167:4172   */\n      dup2\n        /* \"#utility.yul\":4150:4173   */\n      tag_90\n      jump\t// in\n    tag_104:\n        /* \"#utility.yul\":4143:4148   */\n      dup2\n        /* \"#utility.yul\":4140:4174   */\n      eq\n        /* \"#utility.yul\":4130:4192   */\n      tag_105\n      jumpi\n        /* \"#utility.yul\":4188:4189   */\n      0x00\n        /* \"#utility.yul\":4185:4186   */\n      dup1\n        /* \"#utility.yul\":4178:4190   */\n      revert\n        /* \"#utility.yul\":4130:4192   */\n    tag_105:\n        /* \"#utility.yul\":4078:4198   */\n      pop\n      jump\t// out\n        /* \"#utility.yul\":4204:4326   */\n    tag_50:\n        /* \"#utility.yul\":4277:4301   */\n      tag_107\n        /* \"#utility.yul\":4295:4300   */\n      dup2\n        /* \"#utility.yul\":4277:4301   */\n      tag_75\n      jump\t// in\n    tag_107:\n        /* \"#utility.yul\":4270:4275   */\n      dup2\n        /* \"#utility.yul\":4267:4302   */\n      eq\n        /* \"#utility.yul\":4257:4320   */\n      tag_108\n      jumpi\n        /* \"#utility.yul\":4316:4317   */\n      0x00\n        /* \"#utility.yul\":4313:4314   */\n      dup1\n        /* \"#utility.yul\":4306:4318   */\n      revert\n        /* \"#utility.yul\":4257:4320   */\n    tag_108:\n        /* \"#utility.yul\":4204:4326   */\n      pop\n      jump\t// out\n        /* \"#utility.yul\":4332:4452   */\n    tag_54:\n        /* \"#utility.yul\":4404:4427   */\n      tag_110\n        /* \"#utility.yul\":4421:4426   */\n      dup2\n        /* \"#utility.yul\":4404:4427   */\n      tag_94\n      jump\t// in\n    tag_110:\n        /* \"#utility.yul\":4397:4402   */\n      dup2\n        /* \"#utility.yul\":4394:4428   */\n      eq\n        /* \"#utility.yul\":4384:4446   */\n      tag_111\n      jumpi\n        /* \"#utility.yul\":4442:4443   */\n      0x00\n        /* \"#utility.yul\":4439:4440   */\n      dup1\n        /* \"#utility.yul\":4432:4444   */\n      revert\n        /* \"#utility.yul\":4384:4446   */\n    tag_111:\n        /* \"#utility.yul\":4332:4452   */\n      pop\n      jump\t// out\n\n    auxdata: 0xa264697066735822122045317bba2237e5eb9aad4ab8ab5f3c27569adccc6fe9123c389972852a70f6cd64736f6c63430008070033\n}\n",
				"bytecode": {
					"linkReferences": {},
					"object": "608060405234801561001057600080fd5b50610561806100206000396000f3fe60806040526004361061003f5760003560e01c80630d8e6e2c146100445780633e47d6f31461006f57806398d5fdca146100ac578063b60d4288146100d7575b600080fd5b34801561005057600080fd5b506100596100e1565b60405161006691906103ce565b60405180910390f35b34801561007b57600080fd5b50610096600480360381019061009191906102ea565b61017f565b6040516100a391906103ce565b60405180910390f35b3480156100b857600080fd5b506100c1610197565b6040516100ce91906103ce565b60405180910390f35b6100df61023f565b005b600080738a753747a1fa494ec906ce90e9f37563a8af630e90508073ffffffffffffffffffffffffffffffffffffffff166354fd4d506040518163ffffffff1660e01b815260040160206040518083038186803b15801561014157600080fd5b505afa158015610155573d6000803e3d6000fd5b505050506040513d601f19601f820116820180604052508101906101799190610317565b91505090565b60006020528060005260406000206000915090505481565b600080738a753747a1fa494ec906ce90e9f37563a8af630e905060008173ffffffffffffffffffffffffffffffffffffffff1663feaf968c6040518163ffffffff1660e01b815260040160a06040518083038186803b1580156101f957600080fd5b505afa15801561020d573d6000803e3d6000fd5b505050506040513d601f19601f820116820180604052508101906102319190610344565b505050915050809250505090565b346000803373ffffffffffffffffffffffffffffffffffffffff1673ffffffffffffffffffffffffffffffffffffffff168152602001908152602001600020600082825461028d91906103e9565b92505081905550565b6000813590506102a5816104cf565b92915050565b6000815190506102ba816104e6565b92915050565b6000815190506102cf816104fd565b92915050565b6000815190506102e481610514565b92915050565b600060208284031215610300576102ff6104ca565b5b600061030e84828501610296565b91505092915050565b60006020828403121561032d5761032c6104ca565b5b600061033b848285016102c0565b91505092915050565b600080600080600060a086880312156103605761035f6104ca565b5b600061036e888289016102d5565b955050602061037f888289016102ab565b9450506040610390888289016102c0565b93505060606103a1888289016102c0565b92505060806103b2888289016102d5565b9150509295509295909350565b6103c88161047b565b82525050565b60006020820190506103e360008301846103bf565b92915050565b60006103f48261047b565b91506103ff8361047b565b9250827fffffffffffffffffffffffffffffffffffffffffffffffffffffffffffffffff038211156104345761043361049b565b5b828201905092915050565b600061044a8261045b565b9050919050565b6000819050919050565b600073ffffffffffffffffffffffffffffffffffffffff82169050919050565b6000819050919050565b600069ffffffffffffffffffff82169050919050565b7f4e487b7100000000000000000000000000000000000000000000000000000000600052601160045260246000fd5b600080fd5b6104d88161043f565b81146104e357600080fd5b50565b6104ef81610451565b81146104fa57600080fd5b50565b6105068161047b565b811461051157600080fd5b50565b61051d81610485565b811461052857600080fd5b5056fea264697066735822122045317bba2237e5eb9aad4ab8ab5f3c27569adccc6fe9123c389972852a70f6cd64736f6c63430008070033",
					"opcodes": "PUSH1 0x80 PUSH1 0x40 MSTORE CALLVALUE DUP1 ISZERO PUSH2 0x10 JUMPI PUSH1 0x0 DUP1 REVERT JUMPDEST POP PUSH2 0x561 DUP1 PUSH2 0x20 PUSH1 0x0 CODECOPY PUSH1 0x0 RETURN INVALID PUSH1 0x80 PUSH1 0x40 MSTORE PUSH1 0x4 CALLDATASIZE LT PUSH2 0x3F JUMPI PUSH1 0x0 CALLDATALOAD PUSH1 0xE0 SHR DUP1 PUSH4 0xD8E6E2C EQ PUSH2 0x44 JUMPI DUP1 PUSH4 0x3E47D6F3 EQ PUSH2 0x6F JUMPI DUP1 PUSH4 0x98D5FDCA EQ PUSH2 0xAC JUMPI DUP1 PUSH4 0xB60D4288 EQ PUSH2 0xD7 JUMPI JUMPDEST PUSH1 0x0 DUP1 REVERT JUMPDEST CALLVALUE DUP1 ISZERO PUSH2 0x50 JUMPI PUSH1 0x0 DUP1 REVERT JUMPDEST POP PUSH2 0x59 PUSH2 0xE1 JUMP JUMPDEST PUSH1 0x40 MLOAD PUSH2 0x66 SWAP2 SWAP1 PUSH2 0x3CE JUMP JUMPDEST PUSH1 0x40 MLOAD DUP1 SWAP2 SUB SWAP1 RETURN JUMPDEST CALLVALUE DUP1 ISZERO PUSH2 0x7B JUMPI PUSH1 0x0 DUP1 REVERT JUMPDEST POP PUSH2 0x96 PUSH1 0x4 DUP1 CALLDATASIZE SUB DUP2 ADD SWAP1 PUSH2 0x91 SWAP2 SWAP1 PUSH2 0x2EA JUMP JUMPDEST PUSH2 0x17F JUMP JUMPDEST PUSH1 0x40 MLOAD PUSH2 0xA3 SWAP2 SWAP1 PUSH2 0x3CE JUMP JUMPDEST PUSH1 0x40 MLOAD DUP1 SWAP2 SUB SWAP1 RETURN JUMPDEST CALLVALUE DUP1 ISZERO PUSH2 0xB8 JUMPI PUSH1 0x0 DUP1 REVERT JUMPDEST POP PUSH2 0xC1 PUSH2 0x197 JUMP JUMPDEST PUSH1 0x40 MLOAD PUSH2 0xCE SWAP2 SWAP1 PUSH2 0x3CE JUMP JUMPDEST PUSH1 0x40 MLOAD DUP1 SWAP2 SUB SWAP1 RETURN JUMPDEST PUSH2 0xDF PUSH2 0x23F JUMP JUMPDEST STOP JUMPDEST PUSH1 0x0 DUP1 PUSH20 0x8A753747A1FA494EC906CE90E9F37563A8AF630E SWAP1 POP DUP1 PUSH20 0xFFFFFFFFFFFFFFFFFFFFFFFFFFFFFFFFFFFFFFFF AND PUSH4 0x54FD4D50 PUSH1 0x40 MLOAD DUP2 PUSH4 0xFFFFFFFF AND PUSH1 0xE0 SHL DUP2 MSTORE PUSH1 0x4 ADD PUSH1 0x20 PUSH1 0x40 MLOAD DUP1 DUP4 SUB DUP2 DUP7 DUP1 EXTCODESIZE ISZERO DUP1 ISZERO PUSH2 0x141 JUMPI PUSH1 0x0 DUP1 REVERT JUMPDEST POP GAS STATICCALL ISZERO DUP1 ISZERO PUSH2 0x155 JUMPI RETURNDATASIZE PUSH1 0x0 DUP1 RETURNDATACOPY RETURNDATASIZE PUSH1 0x0 REVERT JUMPDEST POP POP POP POP PUSH1 0x40 MLOAD RETURNDATASIZE PUSH1 0x1F NOT PUSH1 0x1F DUP3 ADD AND DUP3 ADD DUP1 PUSH1 0x40 MSTORE POP DUP2 ADD SWAP1 PUSH2 0x179 SWAP2 SWAP1 PUSH2 0x317 JUMP JUMPDEST SWAP2 POP POP SWAP1 JUMP JUMPDEST PUSH1 0x0 PUSH1 0x20 MSTORE DUP1 PUSH1 0x0 MSTORE PUSH1 0x40 PUSH1 0x0 KECCAK256 PUSH1 0x0 SWAP2 POP SWAP1 POP SLOAD DUP2 JUMP JUMPDEST PUSH1 0x0 DUP1 PUSH20 0x8A753747A1FA494EC906CE90E9F37563A8AF630E SWAP1 POP PUSH1 0x0 DUP2 PUSH20 0xFFFFFFFFFFFFFFFFFFFFFFFFFFFFFFFFFFFFFFFF AND PUSH4 0xFEAF968C PUSH1 0x40 MLOAD DUP2 PUSH4 0xFFFFFFFF AND PUSH1 0xE0 SHL DUP2 MSTORE PUSH1 0x4 ADD PUSH1 0xA0 PUSH1 0x40 MLOAD DUP1 DUP4 SUB DUP2 DUP7 DUP1 EXTCODESIZE ISZERO DUP1 ISZERO PUSH2 0x1F9 JUMPI PUSH1 0x0 DUP1 REVERT JUMPDEST POP GAS STATICCALL ISZERO DUP1 ISZERO PUSH2 0x20D JUMPI RETURNDATASIZE PUSH1 0x0 DUP1 RETURNDATACOPY RETURNDATASIZE PUSH1 0x0 REVERT JUMPDEST POP POP POP POP PUSH1 0x40 MLOAD RETURNDATASIZE PUSH1 0x1F NOT PUSH1 0x1F DUP3 ADD AND DUP3 ADD DUP1 PUSH1 0x40 MSTORE POP DUP2 ADD SWAP1 PUSH2 0x231 SWAP2 SWAP1 PUSH2 0x344 JUMP JUMPDEST POP POP POP SWAP2 POP POP DUP1 SWAP3 POP POP POP SWAP1 JUMP JUMPDEST CALLVALUE PUSH1 0x0 DUP1 CALLER PUSH20 0xFFFFFFFFFFFFFFFFFFFFFFFFFFFFFFFFFFFFFFFF AND PUSH20 0xFFFFFFFFFFFFFFFFFFFFFFFFFFFFFFFFFFFFFFFF AND DUP2 MSTORE PUSH1 0x20 ADD SWAP1 DUP2 MSTORE PUSH1 0x20 ADD PUSH1 0x0 KECCAK256 PUSH1 0x0 DUP3 DUP3 SLOAD PUSH2 0x28D SWAP2 SWAP1 PUSH2 0x3E9 JUMP JUMPDEST SWAP3 POP POP DUP2 SWAP1 SSTORE POP JUMP JUMPDEST PUSH1 0x0 DUP2 CALLDATALOAD SWAP1 POP PUSH2 0x2A5 DUP2 PUSH2 0x4CF JUMP JUMPDEST SWAP3 SWAP2 POP POP JUMP JUMPDEST PUSH1 0x0 DUP2 MLOAD SWAP1 POP PUSH2 0x2BA DUP2 PUSH2 0x4E6 JUMP JUMPDEST SWAP3 SWAP2 POP POP JUMP JUMPDEST PUSH1 0x0 DUP2 MLOAD SWAP1 POP PUSH2 0x2CF DUP2 PUSH2 0x4FD JUMP JUMPDEST SWAP3 SWAP2 POP POP JUMP JUMPDEST PUSH1 0x0 DUP2 MLOAD SWAP1 POP PUSH2 0x2E4 DUP2 PUSH2 0x514 JUMP JUMPDEST SWAP3 SWAP2 POP POP JUMP JUMPDEST PUSH1 0x0 PUSH1 0x20 DUP3 DUP5 SUB SLT ISZERO PUSH2 0x300 JUMPI PUSH2 0x2FF PUSH2 0x4CA JUMP JUMPDEST JUMPDEST PUSH1 0x0 PUSH2 0x30E DUP5 DUP3 DUP6 ADD PUSH2 0x296 JUMP JUMPDEST SWAP2 POP POP SWAP3 SWAP2 POP POP JUMP JUMPDEST PUSH1 0x0 PUSH1 0x20 DUP3 DUP5 SUB SLT ISZERO PUSH2 0x32D JUMPI PUSH2 0x32C PUSH2 0x4CA JUMP JUMPDEST JUMPDEST PUSH1 0x0 PUSH2 0x33B DUP5 DUP3 DUP6 ADD PUSH2 0x2C0 JUMP JUMPDEST SWAP2 POP POP SWAP3 SWAP2 POP POP JUMP JUMPDEST PUSH1 0x0 DUP1 PUSH1 0x0 DUP1 PUSH1 0x0 PUSH1 0xA0 DUP7 DUP9 SUB SLT ISZERO PUSH2 0x360 JUMPI PUSH2 0x35F PUSH2 0x4CA JUMP JUMPDEST JUMPDEST PUSH1 0x0 PUSH2 0x36E DUP9 DUP3 DUP10 ADD PUSH2 0x2D5 JUMP JUMPDEST SWAP6 POP POP PUSH1 0x20 PUSH2 0x37F DUP9 DUP3 DUP10 ADD PUSH2 0x2AB JUMP JUMPDEST SWAP5 POP POP PUSH1 0x40 PUSH2 0x390 DUP9 DUP3 DUP10 ADD PUSH2 0x2C0 JUMP JUMPDEST SWAP4 POP POP PUSH1 0x60 PUSH2 0x3A1 DUP9 DUP3 DUP10 ADD PUSH2 0x2C0 JUMP JUMPDEST SWAP3 POP POP PUSH1 0x80 PUSH2 0x3B2 DUP9 DUP3 DUP10 ADD PUSH2 0x2D5 JUMP JUMPDEST SWAP2 POP POP SWAP3 SWAP6 POP SWAP3 SWAP6 SWAP1 SWAP4 POP JUMP JUMPDEST PUSH2 0x3C8 DUP2 PUSH2 0x47B JUMP JUMPDEST DUP3 MSTORE POP POP JUMP JUMPDEST PUSH1 0x0 PUSH1 0x20 DUP3 ADD SWAP1 POP PUSH2 0x3E3 PUSH1 0x0 DUP4 ADD DUP5 PUSH2 0x3BF JUMP JUMPDEST SWAP3 SWAP2 POP POP JUMP JUMPDEST PUSH1 0x0 PUSH2 0x3F4 DUP3 PUSH2 0x47B JUMP JUMPDEST SWAP2 POP PUSH2 0x3FF DUP4 PUSH2 0x47B JUMP JUMPDEST SWAP3 POP DUP3 PUSH32 0xFFFFFFFFFFFFFFFFFFFFFFFFFFFFFFFFFFFFFFFFFFFFFFFFFFFFFFFFFFFFFFFF SUB DUP3 GT ISZERO PUSH2 0x434 JUMPI PUSH2 0x433 PUSH2 0x49B JUMP JUMPDEST JUMPDEST DUP3 DUP3 ADD SWAP1 POP SWAP3 SWAP2 POP POP JUMP JUMPDEST PUSH1 0x0 PUSH2 0x44A DUP3 PUSH2 0x45B JUMP JUMPDEST SWAP1 POP SWAP2 SWAP1 POP JUMP JUMPDEST PUSH1 0x0 DUP2 SWAP1 POP SWAP2 SWAP1 POP JUMP JUMPDEST PUSH1 0x0 PUSH20 0xFFFFFFFFFFFFFFFFFFFFFFFFFFFFFFFFFFFFFFFF DUP3 AND SWAP1 POP SWAP2 SWAP1 POP JUMP JUMPDEST PUSH1 0x0 DUP2 SWAP1 POP SWAP2 SWAP1 POP JUMP JUMPDEST PUSH1 0x0 PUSH10 0xFFFFFFFFFFFFFFFFFFFF DUP3 AND SWAP1 POP SWAP2 SWAP1 POP JUMP JUMPDEST PUSH32 0x4E487B7100000000000000000000000000000000000000000000000000000000 PUSH1 0x0 MSTORE PUSH1 0x11 PUSH1 0x4 MSTORE PUSH1 0x24 PUSH1 0x0 REVERT JUMPDEST PUSH1 0x0 DUP1 REVERT JUMPDEST PUSH2 0x4D8 DUP2 PUSH2 0x43F JUMP JUMPDEST DUP2 EQ PUSH2 0x4E3 JUMPI PUSH1 0x0 DUP1 REVERT JUMPDEST POP JUMP JUMPDEST PUSH2 0x4EF DUP2 PUSH2 0x451 JUMP JUMPDEST DUP2 EQ PUSH2 0x4FA JUMPI PUSH1 0x0 DUP1 REVERT JUMPDEST POP JUMP JUMPDEST PUSH2 0x506 DUP2 PUSH2 0x47B JUMP JUMPDEST DUP2 EQ PUSH2 0x511 JUMPI PUSH1 0x0 DUP1 REVERT JUMPDEST POP JUMP JUMPDEST PUSH2 0x51D DUP2 PUSH2 0x485 JUMP JUMPDEST DUP2 EQ PUSH2 0x528 JUMPI PUSH1 0x0 DUP1 REVERT JUMPDEST POP JUMP INVALID LOG2 PUSH5 0x6970667358 0x22 SLT KECCAK256 GASLIMIT BALANCE PUSH28 0xBA2237E5EB9AAD4AB8AB5F3C27569ADCCC6FE9123C389972852A70F6 0xCD PUSH5 0x736F6C6343 STOP ADDMOD SMOD STOP CALLER "
				},
				"gasEstimates": {
					"creation": {
						"codeDepositCost": "275400",
						"executionCost": "318",
						"totalCost": "275718"
					},
					"external": {
						"addressToAmountFunded(address)": "2814",
						"fund()": "infinite",
						"getPrice()": "infinite",
						"getVersion()": "infinite"
					}
				},
				"methodIdentifiers": {
					"addressToAmountFunded(address)": "3e47d6f3",
					"fund()": "b60d4288",
					"getPrice()": "98d5fdca",
					"getVersion()": "0d8e6e2c"
				}
			},
			"storageLayout": {
				"storage": [
					{
						"astId": 49,
						"contract": "contracts/FundMe.sol:FundMe",
						"label": "addressToAmountFunded",
						"offset": 0,
						"slot": "0",
						"type": "t_mapping(t_address,t_uint256)"
					}
				],
				"types": {
					"t_address": {
						"encoding": "inplace",
						"label": "address",
						"numberOfBytes": "20"
					},
					"t_mapping(t_address,t_uint256)": {
						"encoding": "mapping",
						"key": "t_address",
						"label": "mapping(address => uint256)",
						"numberOfBytes": "32",
						"value": "t_uint256"
					},
					"t_uint256": {
						"encoding": "inplace",
						"label": "uint256",
						"numberOfBytes": "32"
					}
				}
			},
			"userdoc": {
				"kind": "user",
				"methods": {},
				"version": 1
			}
		}
	}
}