{
	"contracts/FundMe.sol": {
		"FundMe": {
			"abi": [
				{
					"inputs": [],
					"stateMutability": "nonpayable",
					"type": "constructor"
				},
				{
					"inputs": [
						{
							"internalType": "address",
							"name": "",
							"type": "address"
						}
					],
					"name": "addressToAmountFunded",
					"outputs": [
						{
							"internalType": "uint256",
							"name": "",
							"type": "uint256"
						}
					],
					"stateMutability": "view",
					"type": "function"
				},
				{
					"inputs": [],
					"name": "fund",
					"outputs": [],
					"stateMutability": "payable",
					"type": "function"
				},
				{
					"inputs": [
						{
							"internalType": "uint256",
							"name": "ethAmount",
							"type": "uint256"
						}
					],
					"name": "getConversionRate",
					"outputs": [
						{
							"internalType": "uint256",
							"name": "",
							"type": "uint256"
						}
					],
					"stateMutability": "view",
					"type": "function"
				},
				{
					"inputs": [],
					"name": "getPrice",
					"outputs": [
						{
							"internalType": "uint256",
							"name": "",
							"type": "uint256"
						}
					],
					"stateMutability": "view",
					"type": "function"
				},
				{
					"inputs": [],
					"name": "getVersion",
					"outputs": [
						{
							"internalType": "uint256",
							"name": "",
							"type": "uint256"
						}
					],
					"stateMutability": "view",
					"type": "function"
				},
				{
					"inputs": [],
					"name": "owner",
					"outputs": [
						{
							"internalType": "address",
							"name": "",
							"type": "address"
						}
					],
					"stateMutability": "view",
					"type": "function"
				},
				{
					"inputs": [],
					"name": "withdraw",
					"outputs": [],
					"stateMutability": "payable",
					"type": "function"
				}
			],
			"devdoc": {
				"kind": "dev",
				"methods": {},
				"version": 1
			},
			"evm": {
				"assembly": "    /* \"contracts/FundMe.sol\":150:1444  contract FundMe {\r... */\n  mstore(0x40, 0x80)\n    /* \"contracts/FundMe.sol\":267:323  constructor() public {\r... */\n  callvalue\n  dup1\n  iszero\n  tag_1\n  jumpi\n  0x00\n  dup1\n  revert\ntag_1:\n  pop\n    /* \"contracts/FundMe.sol\":305:315  msg.sender */\n  caller\n    /* \"contracts/FundMe.sol\":297:302  owner */\n  0x01\n  0x00\n    /* \"contracts/FundMe.sol\":297:315  owner = msg.sender */\n  0x0100\n  exp\n  dup2\n  sload\n  dup2\n  0xffffffffffffffffffffffffffffffffffffffff\n  mul\n  not\n  and\n  swap1\n  dup4\n  0xffffffffffffffffffffffffffffffffffffffff\n  and\n  mul\n  or\n  swap1\n  sstore\n  pop\n    /* \"contracts/FundMe.sol\":150:1444  contract FundMe {\r... */\n  dataSize(sub_0)\n  dup1\n  dataOffset(sub_0)\n  0x00\n  codecopy\n  0x00\n  return\nstop\n\nsub_0: assembly {\n        /* \"contracts/FundMe.sol\":150:1444  contract FundMe {\r... */\n      mstore(0x40, 0x80)\n      jumpi(tag_1, lt(calldatasize, 0x04))\n      shr(0xe0, calldataload(0x00))\n      dup1\n      0x6e5b6b28\n      gt\n      tag_9\n      jumpi\n      dup1\n      0x6e5b6b28\n      eq\n      tag_5\n      jumpi\n      dup1\n      0x8da5cb5b\n      eq\n      tag_6\n      jumpi\n      dup1\n      0x98d5fdca\n      eq\n      tag_7\n      jumpi\n      dup1\n      0xb60d4288\n      eq\n      tag_8\n      jumpi\n      jump(tag_1)\n    tag_9:\n      dup1\n      0x0d8e6e2c\n      eq\n      tag_2\n      jumpi\n      dup1\n      0x3ccfd60b\n      eq\n      tag_3\n      jumpi\n      dup1\n      0x3e47d6f3\n      eq\n      tag_4\n      jumpi\n    tag_1:\n      0x00\n      dup1\n      revert\n        /* \"contracts/FundMe.sol\":571:774  function getVersion() public view returns (uint256) {\r... */\n    tag_2:\n      callvalue\n      dup1\n      iszero\n      tag_10\n      jumpi\n      0x00\n      dup1\n      revert\n    tag_10:\n      pop\n      tag_11\n      tag_12\n      jump\t// in\n    tag_11:\n      mload(0x40)\n      tag_13\n      swap2\n      swap1\n      tag_14\n      jump\t// in\n    tag_13:\n      mload(0x40)\n      dup1\n      swap2\n      sub\n      swap1\n      return\n        /* \"contracts/FundMe.sol\":1295:1437  function withdraw() public payable {\r... */\n    tag_3:\n      tag_15\n      tag_16\n      jump\t// in\n    tag_15:\n      stop\n        /* \"contracts/FundMe.sol\":175:231  mapping(address => uint256) public addressToAmountFunded */\n    tag_4:\n      callvalue\n      dup1\n      iszero\n      tag_17\n      jumpi\n      0x00\n      dup1\n      revert\n    tag_17:\n      pop\n      tag_18\n      0x04\n      dup1\n      calldatasize\n      sub\n      dup2\n      add\n      swap1\n      tag_19\n      swap2\n      swap1\n      tag_20\n      jump\t// in\n    tag_19:\n      tag_21\n      jump\t// in\n    tag_18:\n      mload(0x40)\n      tag_22\n      swap2\n      swap1\n      tag_14\n      jump\t// in\n    tag_22:\n      mload(0x40)\n      dup1\n      swap2\n      sub\n      swap1\n      return\n        /* \"contracts/FundMe.sol\":1058:1287  function getConversionRate(uint256 ethAmount) public view returns (uint256){\r... */\n    tag_5:\n      callvalue\n      dup1\n      iszero\n      tag_23\n      jumpi\n      0x00\n      dup1\n      revert\n    tag_23:\n      pop\n      tag_24\n      0x04\n      dup1\n      calldatasize\n      sub\n      dup2\n      add\n      swap1\n      tag_25\n      swap2\n      swap1\n      tag_26\n      jump\t// in\n    tag_25:\n      tag_27\n      jump\t// in\n    tag_24:\n      mload(0x40)\n      tag_28\n      swap2\n      swap1\n      tag_14\n      jump\t// in\n    tag_28:\n      mload(0x40)\n      dup1\n      swap2\n      sub\n      swap1\n      return\n        /* \"contracts/FundMe.sol\":238:258  address public owner */\n    tag_6:\n      callvalue\n      dup1\n      iszero\n      tag_29\n      jumpi\n      0x00\n      dup1\n      revert\n    tag_29:\n      pop\n      tag_30\n      tag_31\n      jump\t// in\n    tag_30:\n      mload(0x40)\n      tag_32\n      swap2\n      swap1\n      tag_33\n      jump\t// in\n    tag_32:\n      mload(0x40)\n      dup1\n      swap2\n      sub\n      swap1\n      return\n        /* \"contracts/FundMe.sol\":782:1050  function getPrice() public view returns(uint256) {\r... */\n    tag_7:\n      callvalue\n      dup1\n      iszero\n      tag_34\n      jumpi\n      0x00\n      dup1\n      revert\n    tag_34:\n      pop\n      tag_35\n      tag_36\n      jump\t// in\n    tag_35:\n      mload(0x40)\n      tag_37\n      swap2\n      swap1\n      tag_14\n      jump\t// in\n    tag_37:\n      mload(0x40)\n      dup1\n      swap2\n      sub\n      swap1\n      return\n        /* \"contracts/FundMe.sol\":335:563  function fund() public payable {\r... */\n    tag_8:\n      tag_38\n      tag_39\n      jump\t// in\n    tag_38:\n      stop\n        /* \"contracts/FundMe.sol\":571:774  function getVersion() public view returns (uint256) {\r... */\n    tag_12:\n        /* \"contracts/FundMe.sol\":614:621  uint256 */\n      0x00\n        /* \"contracts/FundMe.sol\":632:663  AggregatorV3Interface priceFeed */\n      dup1\n        /* \"contracts/FundMe.sol\":688:730  0x8A753747A1Fa494EC906cE90E9f37563A8AF630e */\n      0x8a753747a1fa494ec906ce90e9f37563a8af630e\n        /* \"contracts/FundMe.sol\":632:731  AggregatorV3Interface priceFeed = AggregatorV3Interface(0x8A753747A1Fa494EC906cE90E9f37563A8AF630e) */\n      swap1\n      pop\n        /* \"contracts/FundMe.sol\":747:756  priceFeed */\n      dup1\n        /* \"contracts/FundMe.sol\":747:764  priceFeed.version */\n      0xffffffffffffffffffffffffffffffffffffffff\n      and\n      0x54fd4d50\n        /* \"contracts/FundMe.sol\":747:766  priceFeed.version() */\n      mload(0x40)\n      dup2\n      0xffffffff\n      and\n      0xe0\n      shl\n      dup2\n      mstore\n      0x04\n      add\n      0x20\n      mload(0x40)\n      dup1\n      dup4\n      sub\n      dup2\n      dup7\n      dup1\n      extcodesize\n      iszero\n      dup1\n      iszero\n      tag_41\n      jumpi\n      0x00\n      dup1\n      revert\n    tag_41:\n      pop\n      gas\n      staticcall\n      iszero\n      dup1\n      iszero\n      tag_43\n      jumpi\n      returndatasize\n      0x00\n      dup1\n      returndatacopy\n      revert(0x00, returndatasize)\n    tag_43:\n      pop\n      pop\n      pop\n      pop\n      mload(0x40)\n      returndatasize\n      not(0x1f)\n      0x1f\n      dup3\n      add\n      and\n      dup3\n      add\n      dup1\n      0x40\n      mstore\n      pop\n      dup2\n      add\n      swap1\n      tag_44\n      swap2\n      swap1\n      tag_45\n      jump\t// in\n    tag_44:\n        /* \"contracts/FundMe.sol\":740:766  return priceFeed.version() */\n      swap2\n      pop\n      pop\n        /* \"contracts/FundMe.sol\":571:774  function getVersion() public view returns (uint256) {\r... */\n      swap1\n      jump\t// out\n        /* \"contracts/FundMe.sol\":1295:1437  function withdraw() public payable {\r... */\n    tag_16:\n        /* \"contracts/FundMe.sol\":1386:1396  msg.sender */\n      caller\n        /* \"contracts/FundMe.sol\":1378:1406  payable(msg.sender).transfer */\n      0xffffffffffffffffffffffffffffffffffffffff\n      and\n        /* \"contracts/FundMe.sol\":1378:1429  payable(msg.sender).transfer(address(this).balance) */\n      0x08fc\n        /* \"contracts/FundMe.sol\":1407:1428  address(this).balance */\n      selfbalance\n        /* \"contracts/FundMe.sol\":1378:1429  payable(msg.sender).transfer(address(this).balance) */\n      swap1\n      dup2\n      iszero\n      mul\n      swap1\n      mload(0x40)\n      0x00\n      mload(0x40)\n      dup1\n      dup4\n      sub\n      dup2\n      dup6\n      dup9\n      dup9\n      call\n      swap4\n      pop\n      pop\n      pop\n      pop\n      iszero\n      dup1\n      iszero\n      tag_48\n      jumpi\n      returndatasize\n      0x00\n      dup1\n      returndatacopy\n      revert(0x00, returndatasize)\n    tag_48:\n      pop\n        /* \"contracts/FundMe.sol\":1295:1437  function withdraw() public payable {\r... */\n      jump\t// out\n        /* \"contracts/FundMe.sol\":175:231  mapping(address => uint256) public addressToAmountFunded */\n    tag_21:\n      mstore(0x20, 0x00)\n      dup1\n      0x00\n      mstore\n      keccak256(0x00, 0x40)\n      0x00\n      swap2\n      pop\n      swap1\n      pop\n      sload\n      dup2\n      jump\t// out\n        /* \"contracts/FundMe.sol\":1058:1287  function getConversionRate(uint256 ethAmount) public view returns (uint256){\r... */\n    tag_27:\n        /* \"contracts/FundMe.sol\":1125:1132  uint256 */\n      0x00\n        /* \"contracts/FundMe.sol\":1142:1158  uint256 ethPrice */\n      dup1\n        /* \"contracts/FundMe.sol\":1161:1171  getPrice() */\n      tag_50\n        /* \"contracts/FundMe.sol\":1161:1169  getPrice */\n      tag_36\n        /* \"contracts/FundMe.sol\":1161:1171  getPrice() */\n      jump\t// in\n    tag_50:\n        /* \"contracts/FundMe.sol\":1142:1171  uint256 ethPrice = getPrice() */\n      swap1\n      pop\n        /* \"contracts/FundMe.sol\":1180:1202  uint256 ethAmountInUsd */\n      0x00\n        /* \"contracts/FundMe.sol\":1230:1249  1000000000000000000 */\n      0x0de0b6b3a7640000\n        /* \"contracts/FundMe.sol\":1217:1226  ethAmount */\n      dup5\n        /* \"contracts/FundMe.sol\":1206:1214  ethPrice */\n      dup4\n        /* \"contracts/FundMe.sol\":1206:1226  ethPrice * ethAmount */\n      tag_51\n      swap2\n      swap1\n      tag_52\n      jump\t// in\n    tag_51:\n        /* \"contracts/FundMe.sol\":1205:1249  (ethPrice * ethAmount) / 1000000000000000000 */\n      tag_53\n      swap2\n      swap1\n      tag_54\n      jump\t// in\n    tag_53:\n        /* \"contracts/FundMe.sol\":1180:1249  uint256 ethAmountInUsd = (ethPrice * ethAmount) / 1000000000000000000 */\n      swap1\n      pop\n        /* \"contracts/FundMe.sol\":1265:1279  ethAmountInUsd */\n      dup1\n        /* \"contracts/FundMe.sol\":1258:1279  return ethAmountInUsd */\n      swap3\n      pop\n      pop\n      pop\n        /* \"contracts/FundMe.sol\":1058:1287  function getConversionRate(uint256 ethAmount) public view returns (uint256){\r... */\n      swap2\n      swap1\n      pop\n      jump\t// out\n        /* \"contracts/FundMe.sol\":238:258  address public owner */\n    tag_31:\n      0x01\n      0x00\n      swap1\n      sload\n      swap1\n      0x0100\n      exp\n      swap1\n      div\n      0xffffffffffffffffffffffffffffffffffffffff\n      and\n      dup2\n      jump\t// out\n        /* \"contracts/FundMe.sol\":782:1050  function getPrice() public view returns(uint256) {\r... */\n    tag_36:\n        /* \"contracts/FundMe.sol\":822:829  uint256 */\n      0x00\n        /* \"contracts/FundMe.sol\":840:871  AggregatorV3Interface priceFeed */\n      dup1\n        /* \"contracts/FundMe.sol\":896:938  0x8A753747A1Fa494EC906cE90E9f37563A8AF630e */\n      0x8a753747a1fa494ec906ce90e9f37563a8af630e\n        /* \"contracts/FundMe.sol\":840:939  AggregatorV3Interface priceFeed = AggregatorV3Interface(0x8A753747A1Fa494EC906cE90E9f37563A8AF630e) */\n      swap1\n      pop\n        /* \"contracts/FundMe.sol\":950:963  int256 answer */\n      0x00\n        /* \"contracts/FundMe.sol\":970:979  priceFeed */\n      dup2\n        /* \"contracts/FundMe.sol\":970:995  priceFeed.latestRoundData */\n      0xffffffffffffffffffffffffffffffffffffffff\n      and\n      0xfeaf968c\n        /* \"contracts/FundMe.sol\":970:997  priceFeed.latestRoundData() */\n      mload(0x40)\n      dup2\n      0xffffffff\n      and\n      0xe0\n      shl\n      dup2\n      mstore\n      0x04\n      add\n      0xa0\n      mload(0x40)\n      dup1\n      dup4\n      sub\n      dup2\n      dup7\n      dup1\n      extcodesize\n      iszero\n      dup1\n      iszero\n      tag_56\n      jumpi\n      0x00\n      dup1\n      revert\n    tag_56:\n      pop\n      gas\n      staticcall\n      iszero\n      dup1\n      iszero\n      tag_58\n      jumpi\n      returndatasize\n      0x00\n      dup1\n      returndatacopy\n      revert(0x00, returndatasize)\n    tag_58:\n      pop\n      pop\n      pop\n      pop\n      mload(0x40)\n      returndatasize\n      not(0x1f)\n      0x1f\n      dup3\n      add\n      and\n      dup3\n      add\n      dup1\n      0x40\n      mstore\n      pop\n      dup2\n      add\n      swap1\n      tag_59\n      swap2\n      swap1\n      tag_60\n      jump\t// in\n    tag_59:\n        /* \"contracts/FundMe.sol\":948:997  (,int256 answer,,,) = priceFeed.latestRoundData() */\n      pop\n      pop\n      pop\n      swap2\n      pop\n      pop\n        /* \"contracts/FundMe.sol\":1030:1041  10000000000 */\n      0x02540be400\n        /* \"contracts/FundMe.sol\":1021:1027  answer */\n      dup2\n        /* \"contracts/FundMe.sol\":1021:1041  answer * 10000000000 */\n      tag_61\n      swap2\n      swap1\n      tag_62\n      jump\t// in\n    tag_61:\n        /* \"contracts/FundMe.sol\":1006:1042  return uint256(answer * 10000000000) */\n      swap3\n      pop\n      pop\n      pop\n        /* \"contracts/FundMe.sol\":782:1050  function getPrice() public view returns(uint256) {\r... */\n      swap1\n      jump\t// out\n        /* \"contracts/FundMe.sol\":335:563  function fund() public payable {\r... */\n    tag_39:\n        /* \"contracts/FundMe.sol\":375:393  uint256 mimimumUSD */\n      0x00\n        /* \"contracts/FundMe.sol\":396:409  50 * 10 ** 18 */\n      0x02b5e3af16b1880000\n        /* \"contracts/FundMe.sol\":375:409  uint256 mimimumUSD = 50 * 10 ** 18 */\n      swap1\n      pop\n        /* \"contracts/FundMe.sol\":458:468  mimimumUSD */\n      dup1\n        /* \"contracts/FundMe.sol\":426:454  getConversionRate(msg.value) */\n      tag_64\n        /* \"contracts/FundMe.sol\":444:453  msg.value */\n      callvalue\n        /* \"contracts/FundMe.sol\":426:443  getConversionRate */\n      tag_27\n        /* \"contracts/FundMe.sol\":426:454  getConversionRate(msg.value) */\n      jump\t// in\n    tag_64:\n        /* \"contracts/FundMe.sol\":426:468  getConversionRate(msg.value) >= mimimumUSD */\n      lt\n      iszero\n        /* \"contracts/FundMe.sol\":418:500  require(getConversionRate(msg.value) >= mimimumUSD, \"You need to spend more ETH!\") */\n      tag_65\n      jumpi\n      mload(0x40)\n      0x08c379a000000000000000000000000000000000000000000000000000000000\n      dup2\n      mstore\n      0x04\n      add\n      tag_66\n      swap1\n      tag_67\n      jump\t// in\n    tag_66:\n      mload(0x40)\n      dup1\n      swap2\n      sub\n      swap1\n      revert\n    tag_65:\n        /* \"contracts/FundMe.sol\":546:555  msg.value */\n      callvalue\n        /* \"contracts/FundMe.sol\":509:530  addressToAmountFunded */\n      0x00\n        /* \"contracts/FundMe.sol\":509:542  addressToAmountFunded[msg.sender] */\n      dup1\n        /* \"contracts/FundMe.sol\":531:541  msg.sender */\n      caller\n        /* \"contracts/FundMe.sol\":509:542  addressToAmountFunded[msg.sender] */\n      0xffffffffffffffffffffffffffffffffffffffff\n      and\n      0xffffffffffffffffffffffffffffffffffffffff\n      and\n      dup2\n      mstore\n      0x20\n      add\n      swap1\n      dup2\n      mstore\n      0x20\n      add\n      0x00\n      keccak256\n      0x00\n        /* \"contracts/FundMe.sol\":509:555  addressToAmountFunded[msg.sender] += msg.value */\n      dup3\n      dup3\n      sload\n      tag_68\n      swap2\n      swap1\n      tag_69\n      jump\t// in\n    tag_68:\n      swap3\n      pop\n      pop\n      dup2\n      swap1\n      sstore\n      pop\n        /* \"contracts/FundMe.sol\":366:563  {\r... */\n      pop\n        /* \"contracts/FundMe.sol\":335:563  function fund() public payable {\r... */\n      jump\t// out\n        /* \"#utility.yul\":7:146   */\n    tag_71:\n        /* \"#utility.yul\":53:58   */\n      0x00\n        /* \"#utility.yul\":91:97   */\n      dup2\n        /* \"#utility.yul\":78:98   */\n      calldataload\n        /* \"#utility.yul\":69:98   */\n      swap1\n      pop\n        /* \"#utility.yul\":107:140   */\n      tag_73\n        /* \"#utility.yul\":134:139   */\n      dup2\n        /* \"#utility.yul\":107:140   */\n      tag_74\n      jump\t// in\n    tag_73:\n        /* \"#utility.yul\":7:146   */\n      swap3\n      swap2\n      pop\n      pop\n      jump\t// out\n        /* \"#utility.yul\":152:293   */\n    tag_75:\n        /* \"#utility.yul\":208:213   */\n      0x00\n        /* \"#utility.yul\":239:245   */\n      dup2\n        /* \"#utility.yul\":233:246   */\n      mload\n        /* \"#utility.yul\":224:246   */\n      swap1\n      pop\n        /* \"#utility.yul\":255:287   */\n      tag_77\n        /* \"#utility.yul\":281:286   */\n      dup2\n        /* \"#utility.yul\":255:287   */\n      tag_78\n      jump\t// in\n    tag_77:\n        /* \"#utility.yul\":152:293   */\n      swap3\n      swap2\n      pop\n      pop\n      jump\t// out\n        /* \"#utility.yul\":299:438   */\n    tag_79:\n        /* \"#utility.yul\":345:350   */\n      0x00\n        /* \"#utility.yul\":383:389   */\n      dup2\n        /* \"#utility.yul\":370:390   */\n      calldataload\n        /* \"#utility.yul\":361:390   */\n      swap1\n      pop\n        /* \"#utility.yul\":399:432   */\n      tag_81\n        /* \"#utility.yul\":426:431   */\n      dup2\n        /* \"#utility.yul\":399:432   */\n      tag_82\n      jump\t// in\n    tag_81:\n        /* \"#utility.yul\":299:438   */\n      swap3\n      swap2\n      pop\n      pop\n      jump\t// out\n        /* \"#utility.yul\":444:587   */\n    tag_83:\n        /* \"#utility.yul\":501:506   */\n      0x00\n        /* \"#utility.yul\":532:538   */\n      dup2\n        /* \"#utility.yul\":526:539   */\n      mload\n        /* \"#utility.yul\":517:539   */\n      swap1\n      pop\n        /* \"#utility.yul\":548:581   */\n      tag_85\n        /* \"#utility.yul\":575:580   */\n      dup2\n        /* \"#utility.yul\":548:581   */\n      tag_82\n      jump\t// in\n    tag_85:\n        /* \"#utility.yul\":444:587   */\n      swap3\n      swap2\n      pop\n      pop\n      jump\t// out\n        /* \"#utility.yul\":593:734   */\n    tag_86:\n        /* \"#utility.yul\":649:654   */\n      0x00\n        /* \"#utility.yul\":680:686   */\n      dup2\n        /* \"#utility.yul\":674:687   */\n      mload\n        /* \"#utility.yul\":665:687   */\n      swap1\n      pop\n        /* \"#utility.yul\":696:728   */\n      tag_88\n        /* \"#utility.yul\":722:727   */\n      dup2\n        /* \"#utility.yul\":696:728   */\n      tag_89\n      jump\t// in\n    tag_88:\n        /* \"#utility.yul\":593:734   */\n      swap3\n      swap2\n      pop\n      pop\n      jump\t// out\n        /* \"#utility.yul\":740:1069   */\n    tag_20:\n        /* \"#utility.yul\":799:805   */\n      0x00\n        /* \"#utility.yul\":848:850   */\n      0x20\n        /* \"#utility.yul\":836:845   */\n      dup3\n        /* \"#utility.yul\":827:834   */\n      dup5\n        /* \"#utility.yul\":823:846   */\n      sub\n        /* \"#utility.yul\":819:851   */\n      slt\n        /* \"#utility.yul\":816:935   */\n      iszero\n      tag_91\n      jumpi\n        /* \"#utility.yul\":854:933   */\n      tag_92\n      tag_93\n      jump\t// in\n    tag_92:\n        /* \"#utility.yul\":816:935   */\n    tag_91:\n        /* \"#utility.yul\":974:975   */\n      0x00\n        /* \"#utility.yul\":999:1052   */\n      tag_94\n        /* \"#utility.yul\":1044:1051   */\n      dup5\n        /* \"#utility.yul\":1035:1041   */\n      dup3\n        /* \"#utility.yul\":1024:1033   */\n      dup6\n        /* \"#utility.yul\":1020:1042   */\n      add\n        /* \"#utility.yul\":999:1052   */\n      tag_71\n      jump\t// in\n    tag_94:\n        /* \"#utility.yul\":989:1052   */\n      swap2\n      pop\n        /* \"#utility.yul\":945:1062   */\n      pop\n        /* \"#utility.yul\":740:1069   */\n      swap3\n      swap2\n      pop\n      pop\n      jump\t// out\n        /* \"#utility.yul\":1075:1404   */\n    tag_26:\n        /* \"#utility.yul\":1134:1140   */\n      0x00\n        /* \"#utility.yul\":1183:1185   */\n      0x20\n        /* \"#utility.yul\":1171:1180   */\n      dup3\n        /* \"#utility.yul\":1162:1169   */\n      dup5\n        /* \"#utility.yul\":1158:1181   */\n      sub\n        /* \"#utility.yul\":1154:1186   */\n      slt\n        /* \"#utility.yul\":1151:1270   */\n      iszero\n      tag_96\n      jumpi\n        /* \"#utility.yul\":1189:1268   */\n      tag_97\n      tag_93\n      jump\t// in\n    tag_97:\n        /* \"#utility.yul\":1151:1270   */\n    tag_96:\n        /* \"#utility.yul\":1309:1310   */\n      0x00\n        /* \"#utility.yul\":1334:1387   */\n      tag_98\n        /* \"#utility.yul\":1379:1386   */\n      dup5\n        /* \"#utility.yul\":1370:1376   */\n      dup3\n        /* \"#utility.yul\":1359:1368   */\n      dup6\n        /* \"#utility.yul\":1355:1377   */\n      add\n        /* \"#utility.yul\":1334:1387   */\n      tag_79\n      jump\t// in\n    tag_98:\n        /* \"#utility.yul\":1324:1387   */\n      swap2\n      pop\n        /* \"#utility.yul\":1280:1397   */\n      pop\n        /* \"#utility.yul\":1075:1404   */\n      swap3\n      swap2\n      pop\n      pop\n      jump\t// out\n        /* \"#utility.yul\":1410:1761   */\n    tag_45:\n        /* \"#utility.yul\":1480:1486   */\n      0x00\n        /* \"#utility.yul\":1529:1531   */\n      0x20\n        /* \"#utility.yul\":1517:1526   */\n      dup3\n        /* \"#utility.yul\":1508:1515   */\n      dup5\n        /* \"#utility.yul\":1504:1527   */\n      sub\n        /* \"#utility.yul\":1500:1532   */\n      slt\n        /* \"#utility.yul\":1497:1616   */\n      iszero\n      tag_100\n      jumpi\n        /* \"#utility.yul\":1535:1614   */\n      tag_101\n      tag_93\n      jump\t// in\n    tag_101:\n        /* \"#utility.yul\":1497:1616   */\n    tag_100:\n        /* \"#utility.yul\":1655:1656   */\n      0x00\n        /* \"#utility.yul\":1680:1744   */\n      tag_102\n        /* \"#utility.yul\":1736:1743   */\n      dup5\n        /* \"#utility.yul\":1727:1733   */\n      dup3\n        /* \"#utility.yul\":1716:1725   */\n      dup6\n        /* \"#utility.yul\":1712:1734   */\n      add\n        /* \"#utility.yul\":1680:1744   */\n      tag_83\n      jump\t// in\n    tag_102:\n        /* \"#utility.yul\":1670:1744   */\n      swap2\n      pop\n        /* \"#utility.yul\":1626:1754   */\n      pop\n        /* \"#utility.yul\":1410:1761   */\n      swap3\n      swap2\n      pop\n      pop\n      jump\t// out\n        /* \"#utility.yul\":1767:2738   */\n    tag_60:\n        /* \"#utility.yul\":1870:1876   */\n      0x00\n        /* \"#utility.yul\":1878:1884   */\n      dup1\n        /* \"#utility.yul\":1886:1892   */\n      0x00\n        /* \"#utility.yul\":1894:1900   */\n      dup1\n        /* \"#utility.yul\":1902:1908   */\n      0x00\n        /* \"#utility.yul\":1951:1954   */\n      0xa0\n        /* \"#utility.yul\":1939:1948   */\n      dup7\n        /* \"#utility.yul\":1930:1937   */\n      dup9\n        /* \"#utility.yul\":1926:1949   */\n      sub\n        /* \"#utility.yul\":1922:1955   */\n      slt\n        /* \"#utility.yul\":1919:2039   */\n      iszero\n      tag_104\n      jumpi\n        /* \"#utility.yul\":1958:2037   */\n      tag_105\n      tag_93\n      jump\t// in\n    tag_105:\n        /* \"#utility.yul\":1919:2039   */\n    tag_104:\n        /* \"#utility.yul\":2078:2079   */\n      0x00\n        /* \"#utility.yul\":2103:2166   */\n      tag_106\n        /* \"#utility.yul\":2158:2165   */\n      dup9\n        /* \"#utility.yul\":2149:2155   */\n      dup3\n        /* \"#utility.yul\":2138:2147   */\n      dup10\n        /* \"#utility.yul\":2134:2156   */\n      add\n        /* \"#utility.yul\":2103:2166   */\n      tag_86\n      jump\t// in\n    tag_106:\n        /* \"#utility.yul\":2093:2166   */\n      swap6\n      pop\n        /* \"#utility.yul\":2049:2176   */\n      pop\n        /* \"#utility.yul\":2215:2217   */\n      0x20\n        /* \"#utility.yul\":2241:2304   */\n      tag_107\n        /* \"#utility.yul\":2296:2303   */\n      dup9\n        /* \"#utility.yul\":2287:2293   */\n      dup3\n        /* \"#utility.yul\":2276:2285   */\n      dup10\n        /* \"#utility.yul\":2272:2294   */\n      add\n        /* \"#utility.yul\":2241:2304   */\n      tag_75\n      jump\t// in\n    tag_107:\n        /* \"#utility.yul\":2231:2304   */\n      swap5\n      pop\n        /* \"#utility.yul\":2186:2314   */\n      pop\n        /* \"#utility.yul\":2353:2355   */\n      0x40\n        /* \"#utility.yul\":2379:2443   */\n      tag_108\n        /* \"#utility.yul\":2435:2442   */\n      dup9\n        /* \"#utility.yul\":2426:2432   */\n      dup3\n        /* \"#utility.yul\":2415:2424   */\n      dup10\n        /* \"#utility.yul\":2411:2433   */\n      add\n        /* \"#utility.yul\":2379:2443   */\n      tag_83\n      jump\t// in\n    tag_108:\n        /* \"#utility.yul\":2369:2443   */\n      swap4\n      pop\n        /* \"#utility.yul\":2324:2453   */\n      pop\n        /* \"#utility.yul\":2492:2494   */\n      0x60\n        /* \"#utility.yul\":2518:2582   */\n      tag_109\n        /* \"#utility.yul\":2574:2581   */\n      dup9\n        /* \"#utility.yul\":2565:2571   */\n      dup3\n        /* \"#utility.yul\":2554:2563   */\n      dup10\n        /* \"#utility.yul\":2550:2572   */\n      add\n        /* \"#utility.yul\":2518:2582   */\n      tag_83\n      jump\t// in\n    tag_109:\n        /* \"#utility.yul\":2508:2582   */\n      swap3\n      pop\n        /* \"#utility.yul\":2463:2592   */\n      pop\n        /* \"#utility.yul\":2631:2634   */\n      0x80\n        /* \"#utility.yul\":2658:2721   */\n      tag_110\n        /* \"#utility.yul\":2713:2720   */\n      dup9\n        /* \"#utility.yul\":2704:2710   */\n      dup3\n        /* \"#utility.yul\":2693:2702   */\n      dup10\n        /* \"#utility.yul\":2689:2711   */\n      add\n        /* \"#utility.yul\":2658:2721   */\n      tag_86\n      jump\t// in\n    tag_110:\n        /* \"#utility.yul\":2648:2721   */\n      swap2\n      pop\n        /* \"#utility.yul\":2602:2731   */\n      pop\n        /* \"#utility.yul\":1767:2738   */\n      swap3\n      swap6\n      pop\n      swap3\n      swap6\n      swap1\n      swap4\n      pop\n      jump\t// out\n        /* \"#utility.yul\":2744:2862   */\n    tag_111:\n        /* \"#utility.yul\":2831:2855   */\n      tag_113\n        /* \"#utility.yul\":2849:2854   */\n      dup2\n        /* \"#utility.yul\":2831:2855   */\n      tag_114\n      jump\t// in\n    tag_113:\n        /* \"#utility.yul\":2826:2829   */\n      dup3\n        /* \"#utility.yul\":2819:2856   */\n      mstore\n        /* \"#utility.yul\":2744:2862   */\n      pop\n      pop\n      jump\t// out\n        /* \"#utility.yul\":2868:3234   */\n    tag_115:\n        /* \"#utility.yul\":3010:3013   */\n      0x00\n        /* \"#utility.yul\":3031:3098   */\n      tag_117\n        /* \"#utility.yul\":3095:3097   */\n      0x1b\n        /* \"#utility.yul\":3090:3093   */\n      dup4\n        /* \"#utility.yul\":3031:3098   */\n      tag_118\n      jump\t// in\n    tag_117:\n        /* \"#utility.yul\":3024:3098   */\n      swap2\n      pop\n        /* \"#utility.yul\":3107:3200   */\n      tag_119\n        /* \"#utility.yul\":3196:3199   */\n      dup3\n        /* \"#utility.yul\":3107:3200   */\n      tag_120\n      jump\t// in\n    tag_119:\n        /* \"#utility.yul\":3225:3227   */\n      0x20\n        /* \"#utility.yul\":3220:3223   */\n      dup3\n        /* \"#utility.yul\":3216:3228   */\n      add\n        /* \"#utility.yul\":3209:3228   */\n      swap1\n      pop\n        /* \"#utility.yul\":2868:3234   */\n      swap2\n      swap1\n      pop\n      jump\t// out\n        /* \"#utility.yul\":3240:3358   */\n    tag_121:\n        /* \"#utility.yul\":3327:3351   */\n      tag_123\n        /* \"#utility.yul\":3345:3350   */\n      dup2\n        /* \"#utility.yul\":3327:3351   */\n      tag_124\n      jump\t// in\n    tag_123:\n        /* \"#utility.yul\":3322:3325   */\n      dup3\n        /* \"#utility.yul\":3315:3352   */\n      mstore\n        /* \"#utility.yul\":3240:3358   */\n      pop\n      pop\n      jump\t// out\n        /* \"#utility.yul\":3364:3586   */\n    tag_33:\n        /* \"#utility.yul\":3457:3461   */\n      0x00\n        /* \"#utility.yul\":3495:3497   */\n      0x20\n        /* \"#utility.yul\":3484:3493   */\n      dup3\n        /* \"#utility.yul\":3480:3498   */\n      add\n        /* \"#utility.yul\":3472:3498   */\n      swap1\n      pop\n        /* \"#utility.yul\":3508:3579   */\n      tag_126\n        /* \"#utility.yul\":3576:3577   */\n      0x00\n        /* \"#utility.yul\":3565:3574   */\n      dup4\n        /* \"#utility.yul\":3561:3578   */\n      add\n        /* \"#utility.yul\":3552:3558   */\n      dup5\n        /* \"#utility.yul\":3508:3579   */\n      tag_111\n      jump\t// in\n    tag_126:\n        /* \"#utility.yul\":3364:3586   */\n      swap3\n      swap2\n      pop\n      pop\n      jump\t// out\n        /* \"#utility.yul\":3592:4011   */\n    tag_67:\n        /* \"#utility.yul\":3758:3762   */\n      0x00\n        /* \"#utility.yul\":3796:3798   */\n      0x20\n        /* \"#utility.yul\":3785:3794   */\n      dup3\n        /* \"#utility.yul\":3781:3799   */\n      add\n        /* \"#utility.yul\":3773:3799   */\n      swap1\n      pop\n        /* \"#utility.yul\":3845:3854   */\n      dup2\n        /* \"#utility.yul\":3839:3843   */\n      dup2\n        /* \"#utility.yul\":3835:3855   */\n      sub\n        /* \"#utility.yul\":3831:3832   */\n      0x00\n        /* \"#utility.yul\":3820:3829   */\n      dup4\n        /* \"#utility.yul\":3816:3833   */\n      add\n        /* \"#utility.yul\":3809:3856   */\n      mstore\n        /* \"#utility.yul\":3873:4004   */\n      tag_128\n        /* \"#utility.yul\":3999:4003   */\n      dup2\n        /* \"#utility.yul\":3873:4004   */\n      tag_115\n      jump\t// in\n    tag_128:\n        /* \"#utility.yul\":3865:4004   */\n      swap1\n      pop\n        /* \"#utility.yul\":3592:4011   */\n      swap2\n      swap1\n      pop\n      jump\t// out\n        /* \"#utility.yul\":4017:4239   */\n    tag_14:\n        /* \"#utility.yul\":4110:4114   */\n      0x00\n        /* \"#utility.yul\":4148:4150   */\n      0x20\n        /* \"#utility.yul\":4137:4146   */\n      dup3\n        /* \"#utility.yul\":4133:4151   */\n      add\n        /* \"#utility.yul\":4125:4151   */\n      swap1\n      pop\n        /* \"#utility.yul\":4161:4232   */\n      tag_130\n        /* \"#utility.yul\":4229:4230   */\n      0x00\n        /* \"#utility.yul\":4218:4227   */\n      dup4\n        /* \"#utility.yul\":4214:4231   */\n      add\n        /* \"#utility.yul\":4205:4211   */\n      dup5\n        /* \"#utility.yul\":4161:4232   */\n      tag_121\n      jump\t// in\n    tag_130:\n        /* \"#utility.yul\":4017:4239   */\n      swap3\n      swap2\n      pop\n      pop\n      jump\t// out\n        /* \"#utility.yul\":4326:4495   */\n    tag_118:\n        /* \"#utility.yul\":4410:4421   */\n      0x00\n        /* \"#utility.yul\":4444:4450   */\n      dup3\n        /* \"#utility.yul\":4439:4442   */\n      dup3\n        /* \"#utility.yul\":4432:4451   */\n      mstore\n        /* \"#utility.yul\":4484:4488   */\n      0x20\n        /* \"#utility.yul\":4479:4482   */\n      dup3\n        /* \"#utility.yul\":4475:4489   */\n      add\n        /* \"#utility.yul\":4460:4489   */\n      swap1\n      pop\n        /* \"#utility.yul\":4326:4495   */\n      swap3\n      swap2\n      pop\n      pop\n      jump\t// out\n        /* \"#utility.yul\":4501:4806   */\n    tag_69:\n        /* \"#utility.yul\":4541:4544   */\n      0x00\n        /* \"#utility.yul\":4560:4580   */\n      tag_135\n        /* \"#utility.yul\":4578:4579   */\n      dup3\n        /* \"#utility.yul\":4560:4580   */\n      tag_124\n      jump\t// in\n    tag_135:\n        /* \"#utility.yul\":4555:4580   */\n      swap2\n      pop\n        /* \"#utility.yul\":4594:4614   */\n      tag_136\n        /* \"#utility.yul\":4612:4613   */\n      dup4\n        /* \"#utility.yul\":4594:4614   */\n      tag_124\n      jump\t// in\n    tag_136:\n        /* \"#utility.yul\":4589:4614   */\n      swap3\n      pop\n        /* \"#utility.yul\":4748:4749   */\n      dup3\n        /* \"#utility.yul\":4680:4746   */\n      0xffffffffffffffffffffffffffffffffffffffffffffffffffffffffffffffff\n        /* \"#utility.yul\":4676:4750   */\n      sub\n        /* \"#utility.yul\":4673:4674   */\n      dup3\n        /* \"#utility.yul\":4670:4751   */\n      gt\n        /* \"#utility.yul\":4667:4774   */\n      iszero\n      tag_137\n      jumpi\n        /* \"#utility.yul\":4754:4772   */\n      tag_138\n      tag_139\n      jump\t// in\n    tag_138:\n        /* \"#utility.yul\":4667:4774   */\n    tag_137:\n        /* \"#utility.yul\":4798:4799   */\n      dup3\n        /* \"#utility.yul\":4795:4796   */\n      dup3\n        /* \"#utility.yul\":4791:4800   */\n      add\n        /* \"#utility.yul\":4784:4800   */\n      swap1\n      pop\n        /* \"#utility.yul\":4501:4806   */\n      swap3\n      swap2\n      pop\n      pop\n      jump\t// out\n        /* \"#utility.yul\":4812:4997   */\n    tag_54:\n        /* \"#utility.yul\":4852:4853   */\n      0x00\n        /* \"#utility.yul\":4869:4889   */\n      tag_141\n        /* \"#utility.yul\":4887:4888   */\n      dup3\n        /* \"#utility.yul\":4869:4889   */\n      tag_124\n      jump\t// in\n    tag_141:\n        /* \"#utility.yul\":4864:4889   */\n      swap2\n      pop\n        /* \"#utility.yul\":4903:4923   */\n      tag_142\n        /* \"#utility.yul\":4921:4922   */\n      dup4\n        /* \"#utility.yul\":4903:4923   */\n      tag_124\n      jump\t// in\n    tag_142:\n        /* \"#utility.yul\":4898:4923   */\n      swap3\n      pop\n        /* \"#utility.yul\":4942:4943   */\n      dup3\n        /* \"#utility.yul\":4932:4967   */\n      tag_143\n      jumpi\n        /* \"#utility.yul\":4947:4965   */\n      tag_144\n      tag_145\n      jump\t// in\n    tag_144:\n        /* \"#utility.yul\":4932:4967   */\n    tag_143:\n        /* \"#utility.yul\":4989:4990   */\n      dup3\n        /* \"#utility.yul\":4986:4987   */\n      dup3\n        /* \"#utility.yul\":4982:4991   */\n      div\n        /* \"#utility.yul\":4977:4991   */\n      swap1\n      pop\n        /* \"#utility.yul\":4812:4997   */\n      swap3\n      swap2\n      pop\n      pop\n      jump\t// out\n        /* \"#utility.yul\":5003:5994   */\n    tag_62:\n        /* \"#utility.yul\":5042:5049   */\n      0x00\n        /* \"#utility.yul\":5065:5084   */\n      tag_147\n        /* \"#utility.yul\":5082:5083   */\n      dup3\n        /* \"#utility.yul\":5065:5084   */\n      tag_148\n      jump\t// in\n    tag_147:\n        /* \"#utility.yul\":5060:5084   */\n      swap2\n      pop\n        /* \"#utility.yul\":5098:5117   */\n      tag_149\n        /* \"#utility.yul\":5115:5116   */\n      dup4\n        /* \"#utility.yul\":5098:5117   */\n      tag_148\n      jump\t// in\n    tag_149:\n        /* \"#utility.yul\":5093:5117   */\n      swap3\n      pop\n        /* \"#utility.yul\":5299:5300   */\n      dup3\n        /* \"#utility.yul\":5231:5297   */\n      0x7fffffffffffffffffffffffffffffffffffffffffffffffffffffffffffffff\n        /* \"#utility.yul\":5227:5301   */\n      div\n        /* \"#utility.yul\":5224:5225   */\n      dup3\n        /* \"#utility.yul\":5221:5302   */\n      gt\n        /* \"#utility.yul\":5216:5217   */\n      0x00\n        /* \"#utility.yul\":5213:5214   */\n      dup5\n        /* \"#utility.yul\":5209:5218   */\n      sgt\n        /* \"#utility.yul\":5205:5206   */\n      0x00\n        /* \"#utility.yul\":5202:5203   */\n      dup5\n        /* \"#utility.yul\":5198:5207   */\n      sgt\n        /* \"#utility.yul\":5194:5219   */\n      and\n        /* \"#utility.yul\":5190:5303   */\n      and\n        /* \"#utility.yul\":5187:5326   */\n      iszero\n      tag_150\n      jumpi\n        /* \"#utility.yul\":5306:5324   */\n      tag_151\n      tag_139\n      jump\t// in\n    tag_151:\n        /* \"#utility.yul\":5187:5326   */\n    tag_150:\n        /* \"#utility.yul\":5510:5511   */\n      dup2\n        /* \"#utility.yul\":5442:5508   */\n      0x8000000000000000000000000000000000000000000000000000000000000000\n        /* \"#utility.yul\":5437:5512   */\n      sdiv\n        /* \"#utility.yul\":5434:5435   */\n      dup4\n        /* \"#utility.yul\":5430:5513   */\n      slt\n        /* \"#utility.yul\":5425:5426   */\n      0x00\n        /* \"#utility.yul\":5422:5423   */\n      dup5\n        /* \"#utility.yul\":5418:5427   */\n      slt\n        /* \"#utility.yul\":5414:5415   */\n      0x00\n        /* \"#utility.yul\":5411:5412   */\n      dup5\n        /* \"#utility.yul\":5407:5416   */\n      sgt\n        /* \"#utility.yul\":5403:5428   */\n      and\n        /* \"#utility.yul\":5399:5514   */\n      and\n        /* \"#utility.yul\":5396:5537   */\n      iszero\n      tag_152\n      jumpi\n        /* \"#utility.yul\":5517:5535   */\n      tag_153\n      tag_139\n      jump\t// in\n    tag_153:\n        /* \"#utility.yul\":5396:5537   */\n    tag_152:\n        /* \"#utility.yul\":5721:5722   */\n      dup3\n        /* \"#utility.yul\":5653:5719   */\n      0x8000000000000000000000000000000000000000000000000000000000000000\n        /* \"#utility.yul\":5648:5723   */\n      sdiv\n        /* \"#utility.yul\":5645:5646   */\n      dup3\n        /* \"#utility.yul\":5641:5724   */\n      slt\n        /* \"#utility.yul\":5636:5637   */\n      0x00\n        /* \"#utility.yul\":5633:5634   */\n      dup5\n        /* \"#utility.yul\":5629:5638   */\n      sgt\n        /* \"#utility.yul\":5625:5626   */\n      0x00\n        /* \"#utility.yul\":5622:5623   */\n      dup5\n        /* \"#utility.yul\":5618:5627   */\n      slt\n        /* \"#utility.yul\":5614:5639   */\n      and\n        /* \"#utility.yul\":5610:5725   */\n      and\n        /* \"#utility.yul\":5607:5748   */\n      iszero\n      tag_154\n      jumpi\n        /* \"#utility.yul\":5728:5746   */\n      tag_155\n      tag_139\n      jump\t// in\n    tag_155:\n        /* \"#utility.yul\":5607:5748   */\n    tag_154:\n        /* \"#utility.yul\":5931:5932   */\n      dup3\n        /* \"#utility.yul\":5863:5929   */\n      0x7fffffffffffffffffffffffffffffffffffffffffffffffffffffffffffffff\n        /* \"#utility.yul\":5858:5933   */\n      sdiv\n        /* \"#utility.yul\":5855:5856   */\n      dup3\n        /* \"#utility.yul\":5851:5934   */\n      slt\n        /* \"#utility.yul\":5846:5847   */\n      0x00\n        /* \"#utility.yul\":5843:5844   */\n      dup5\n        /* \"#utility.yul\":5839:5848   */\n      slt\n        /* \"#utility.yul\":5835:5836   */\n      0x00\n        /* \"#utility.yul\":5832:5833   */\n      dup5\n        /* \"#utility.yul\":5828:5837   */\n      slt\n        /* \"#utility.yul\":5824:5849   */\n      and\n        /* \"#utility.yul\":5820:5935   */\n      and\n        /* \"#utility.yul\":5817:5958   */\n      iszero\n      tag_156\n      jumpi\n        /* \"#utility.yul\":5938:5956   */\n      tag_157\n      tag_139\n      jump\t// in\n    tag_157:\n        /* \"#utility.yul\":5817:5958   */\n    tag_156:\n        /* \"#utility.yul\":5986:5987   */\n      dup3\n        /* \"#utility.yul\":5983:5984   */\n      dup3\n        /* \"#utility.yul\":5979:5988   */\n      mul\n        /* \"#utility.yul\":5968:5988   */\n      swap1\n      pop\n        /* \"#utility.yul\":5003:5994   */\n      swap3\n      swap2\n      pop\n      pop\n      jump\t// out\n        /* \"#utility.yul\":6000:6348   */\n    tag_52:\n        /* \"#utility.yul\":6040:6047   */\n      0x00\n        /* \"#utility.yul\":6063:6083   */\n      tag_159\n        /* \"#utility.yul\":6081:6082   */\n      dup3\n        /* \"#utility.yul\":6063:6083   */\n      tag_124\n      jump\t// in\n    tag_159:\n        /* \"#utility.yul\":6058:6083   */\n      swap2\n      pop\n        /* \"#utility.yul\":6097:6117   */\n      tag_160\n        /* \"#utility.yul\":6115:6116   */\n      dup4\n        /* \"#utility.yul\":6097:6117   */\n      tag_124\n      jump\t// in\n    tag_160:\n        /* \"#utility.yul\":6092:6117   */\n      swap3\n      pop\n        /* \"#utility.yul\":6285:6286   */\n      dup2\n        /* \"#utility.yul\":6217:6283   */\n      0xffffffffffffffffffffffffffffffffffffffffffffffffffffffffffffffff\n        /* \"#utility.yul\":6213:6287   */\n      div\n        /* \"#utility.yul\":6210:6211   */\n      dup4\n        /* \"#utility.yul\":6207:6288   */\n      gt\n        /* \"#utility.yul\":6202:6203   */\n      dup3\n        /* \"#utility.yul\":6195:6204   */\n      iszero\n        /* \"#utility.yul\":6188:6205   */\n      iszero\n        /* \"#utility.yul\":6184:6289   */\n      and\n        /* \"#utility.yul\":6181:6312   */\n      iszero\n      tag_161\n      jumpi\n        /* \"#utility.yul\":6292:6310   */\n      tag_162\n      tag_139\n      jump\t// in\n    tag_162:\n        /* \"#utility.yul\":6181:6312   */\n    tag_161:\n        /* \"#utility.yul\":6340:6341   */\n      dup3\n        /* \"#utility.yul\":6337:6338   */\n      dup3\n        /* \"#utility.yul\":6333:6342   */\n      mul\n        /* \"#utility.yul\":6322:6342   */\n      swap1\n      pop\n        /* \"#utility.yul\":6000:6348   */\n      swap3\n      swap2\n      pop\n      pop\n      jump\t// out\n        /* \"#utility.yul\":6354:6450   */\n    tag_114:\n        /* \"#utility.yul\":6391:6398   */\n      0x00\n        /* \"#utility.yul\":6420:6444   */\n      tag_164\n        /* \"#utility.yul\":6438:6443   */\n      dup3\n        /* \"#utility.yul\":6420:6444   */\n      tag_165\n      jump\t// in\n    tag_164:\n        /* \"#utility.yul\":6409:6444   */\n      swap1\n      pop\n        /* \"#utility.yul\":6354:6450   */\n      swap2\n      swap1\n      pop\n      jump\t// out\n        /* \"#utility.yul\":6456:6532   */\n    tag_148:\n        /* \"#utility.yul\":6492:6499   */\n      0x00\n        /* \"#utility.yul\":6521:6526   */\n      dup2\n        /* \"#utility.yul\":6510:6526   */\n      swap1\n      pop\n        /* \"#utility.yul\":6456:6532   */\n      swap2\n      swap1\n      pop\n      jump\t// out\n        /* \"#utility.yul\":6538:6664   */\n    tag_165:\n        /* \"#utility.yul\":6575:6582   */\n      0x00\n        /* \"#utility.yul\":6615:6657   */\n      0xffffffffffffffffffffffffffffffffffffffff\n        /* \"#utility.yul\":6608:6613   */\n      dup3\n        /* \"#utility.yul\":6604:6658   */\n      and\n        /* \"#utility.yul\":6593:6658   */\n      swap1\n      pop\n        /* \"#utility.yul\":6538:6664   */\n      swap2\n      swap1\n      pop\n      jump\t// out\n        /* \"#utility.yul\":6670:6747   */\n    tag_124:\n        /* \"#utility.yul\":6707:6714   */\n      0x00\n        /* \"#utility.yul\":6736:6741   */\n      dup2\n        /* \"#utility.yul\":6725:6741   */\n      swap1\n      pop\n        /* \"#utility.yul\":6670:6747   */\n      swap2\n      swap1\n      pop\n      jump\t// out\n        /* \"#utility.yul\":6753:6858   */\n    tag_169:\n        /* \"#utility.yul\":6789:6796   */\n      0x00\n        /* \"#utility.yul\":6829:6851   */\n      0xffffffffffffffffffff\n        /* \"#utility.yul\":6822:6827   */\n      dup3\n        /* \"#utility.yul\":6818:6852   */\n      and\n        /* \"#utility.yul\":6807:6852   */\n      swap1\n      pop\n        /* \"#utility.yul\":6753:6858   */\n      swap2\n      swap1\n      pop\n      jump\t// out\n        /* \"#utility.yul\":6864:7044   */\n    tag_139:\n        /* \"#utility.yul\":6912:6989   */\n      0x4e487b7100000000000000000000000000000000000000000000000000000000\n        /* \"#utility.yul\":6909:6910   */\n      0x00\n        /* \"#utility.yul\":6902:6990   */\n      mstore\n        /* \"#utility.yul\":7009:7013   */\n      0x11\n        /* \"#utility.yul\":7006:7007   */\n      0x04\n        /* \"#utility.yul\":6999:7014   */\n      mstore\n        /* \"#utility.yul\":7033:7037   */\n      0x24\n        /* \"#utility.yul\":7030:7031   */\n      0x00\n        /* \"#utility.yul\":7023:7038   */\n      revert\n        /* \"#utility.yul\":7050:7230   */\n    tag_145:\n        /* \"#utility.yul\":7098:7175   */\n      0x4e487b7100000000000000000000000000000000000000000000000000000000\n        /* \"#utility.yul\":7095:7096   */\n      0x00\n        /* \"#utility.yul\":7088:7176   */\n      mstore\n        /* \"#utility.yul\":7195:7199   */\n      0x12\n        /* \"#utility.yul\":7192:7193   */\n      0x04\n        /* \"#utility.yul\":7185:7200   */\n      mstore\n        /* \"#utility.yul\":7219:7223   */\n      0x24\n        /* \"#utility.yul\":7216:7217   */\n      0x00\n        /* \"#utility.yul\":7209:7224   */\n      revert\n        /* \"#utility.yul\":7359:7476   */\n    tag_93:\n        /* \"#utility.yul\":7468:7469   */\n      0x00\n        /* \"#utility.yul\":7465:7466   */\n      dup1\n        /* \"#utility.yul\":7458:7470   */\n      revert\n        /* \"#utility.yul\":7482:7659   */\n    tag_120:\n        /* \"#utility.yul\":7622:7651   */\n      0x596f75206e65656420746f207370656e64206d6f726520455448210000000000\n        /* \"#utility.yul\":7618:7619   */\n      0x00\n        /* \"#utility.yul\":7610:7616   */\n      dup3\n        /* \"#utility.yul\":7606:7620   */\n      add\n        /* \"#utility.yul\":7599:7652   */\n      mstore\n        /* \"#utility.yul\":7482:7659   */\n      pop\n      jump\t// out\n        /* \"#utility.yul\":7665:7787   */\n    tag_74:\n        /* \"#utility.yul\":7738:7762   */\n      tag_178\n        /* \"#utility.yul\":7756:7761   */\n      dup2\n        /* \"#utility.yul\":7738:7762   */\n      tag_114\n      jump\t// in\n    tag_178:\n        /* \"#utility.yul\":7731:7736   */\n      dup2\n        /* \"#utility.yul\":7728:7763   */\n      eq\n        /* \"#utility.yul\":7718:7781   */\n      tag_179\n      jumpi\n        /* \"#utility.yul\":7777:7778   */\n      0x00\n        /* \"#utility.yul\":7774:7775   */\n      dup1\n        /* \"#utility.yul\":7767:7779   */\n      revert\n        /* \"#utility.yul\":7718:7781   */\n    tag_179:\n        /* \"#utility.yul\":7665:7787   */\n      pop\n      jump\t// out\n        /* \"#utility.yul\":7793:7913   */\n    tag_78:\n        /* \"#utility.yul\":7865:7888   */\n      tag_181\n        /* \"#utility.yul\":7882:7887   */\n      dup2\n        /* \"#utility.yul\":7865:7888   */\n      tag_148\n      jump\t// in\n    tag_181:\n        /* \"#utility.yul\":7858:7863   */\n      dup2\n        /* \"#utility.yul\":7855:7889   */\n      eq\n        /* \"#utility.yul\":7845:7907   */\n      tag_182\n      jumpi\n        /* \"#utility.yul\":7903:7904   */\n      0x00\n        /* \"#utility.yul\":7900:7901   */\n      dup1\n        /* \"#utility.yul\":7893:7905   */\n      revert\n        /* \"#utility.yul\":7845:7907   */\n    tag_182:\n        /* \"#utility.yul\":7793:7913   */\n      pop\n      jump\t// out\n        /* \"#utility.yul\":7919:8041   */\n    tag_82:\n        /* \"#utility.yul\":7992:8016   */\n      tag_184\n        /* \"#utility.yul\":8010:8015   */\n      dup2\n        /* \"#utility.yul\":7992:8016   */\n      tag_124\n      jump\t// in\n    tag_184:\n        /* \"#utility.yul\":7985:7990   */\n      dup2\n        /* \"#utility.yul\":7982:8017   */\n      eq\n        /* \"#utility.yul\":7972:8035   */\n      tag_185\n      jumpi\n        /* \"#utility.yul\":8031:8032   */\n      0x00\n        /* \"#utility.yul\":8028:8029   */\n      dup1\n        /* \"#utility.yul\":8021:8033   */\n      revert\n        /* \"#utility.yul\":7972:8035   */\n    tag_185:\n        /* \"#utility.yul\":7919:8041   */\n      pop\n      jump\t// out\n        /* \"#utility.yul\":8047:8167   */\n    tag_89:\n        /* \"#utility.yul\":8119:8142   */\n      tag_187\n        /* \"#utility.yul\":8136:8141   */\n      dup2\n        /* \"#utility.yul\":8119:8142   */\n      tag_169\n      jump\t// in\n    tag_187:\n        /* \"#utility.yul\":8112:8117   */\n      dup2\n        /* \"#utility.yul\":8109:8143   */\n      eq\n        /* \"#utility.yul\":8099:8161   */\n      tag_188\n      jumpi\n        /* \"#utility.yul\":8157:8158   */\n      0x00\n        /* \"#utility.yul\":8154:8155   */\n      dup1\n        /* \"#utility.yul\":8147:8159   */\n      revert\n        /* \"#utility.yul\":8099:8161   */\n    tag_188:\n        /* \"#utility.yul\":8047:8167   */\n      pop\n      jump\t// out\n\n    auxdata: 0xa264697066735822122074071a65549b535b2caa8c8c63d6caf0d78d62dc20244b525332c3733910940364736f6c63430008070033\n}\n",
				"bytecode": {
					"linkReferences": {},
					"object": "608060405234801561001057600080fd5b5033600160006101000a81548173ffffffffffffffffffffffffffffffffffffffff021916908373ffffffffffffffffffffffffffffffffffffffff1602179055506109d1806100616000396000f3fe6080604052600436106100705760003560e01c80636e5b6b281161004e5780636e5b6b28146100e75780638da5cb5b1461012457806398d5fdca1461014f578063b60d42881461017a57610070565b80630d8e6e2c146100755780633ccfd60b146100a05780633e47d6f3146100aa575b600080fd5b34801561008157600080fd5b5061008a610184565b6040516100979190610633565b60405180910390f35b6100a8610222565b005b3480156100b657600080fd5b506100d160048036038101906100cc91906104b5565b61026b565b6040516100de9190610633565b60405180910390f35b3480156100f357600080fd5b5061010e600480360381019061010991906104e2565b610283565b60405161011b9190610633565b60405180910390f35b34801561013057600080fd5b506101396102bd565b60405161014691906105f8565b60405180910390f35b34801561015b57600080fd5b506101646102e3565b6040516101719190610633565b60405180910390f35b61018261039b565b005b600080738a753747a1fa494ec906ce90e9f37563a8af630e90508073ffffffffffffffffffffffffffffffffffffffff166354fd4d506040518163ffffffff1660e01b815260040160206040518083038186803b1580156101e457600080fd5b505afa1580156101f8573d6000803e3d6000fd5b505050506040513d601f19601f8201168201806040525081019061021c919061050f565b91505090565b3373ffffffffffffffffffffffffffffffffffffffff166108fc479081150290604051600060405180830381858888f19350505050158015610268573d6000803e3d6000fd5b50565b60006020528060005260406000206000915090505481565b60008061028e6102e3565b90506000670de0b6b3a764000084836102a791906107fd565b6102b191906106b5565b90508092505050919050565b600160009054906101000a900473ffffffffffffffffffffffffffffffffffffffff1681565b600080738a753747a1fa494ec906ce90e9f37563a8af630e905060008173ffffffffffffffffffffffffffffffffffffffff1663feaf968c6040518163ffffffff1660e01b815260040160a06040518083038186803b15801561034557600080fd5b505afa158015610359573d6000803e3d6000fd5b505050506040513d601f19601f8201168201806040525081019061037d919061053c565b5050509150506402540be4008161039491906106e6565b9250505090565b60006802b5e3af16b18800009050806103b334610283565b10156103f4576040517f08c379a00000000000000000000000000000000000000000000000000000000081526004016103eb90610613565b60405180910390fd5b346000803373ffffffffffffffffffffffffffffffffffffffff1673ffffffffffffffffffffffffffffffffffffffff1681526020019081526020016000206000828254610442919061065f565b9250508190555050565b60008135905061045b8161093f565b92915050565b60008151905061047081610956565b92915050565b6000813590506104858161096d565b92915050565b60008151905061049a8161096d565b92915050565b6000815190506104af81610984565b92915050565b6000602082840312156104cb576104ca610911565b5b60006104d98482850161044c565b91505092915050565b6000602082840312156104f8576104f7610911565b5b600061050684828501610476565b91505092915050565b60006020828403121561052557610524610911565b5b60006105338482850161048b565b91505092915050565b600080600080600060a0868803121561055857610557610911565b5b6000610566888289016104a0565b955050602061057788828901610461565b94505060406105888882890161048b565b93505060606105998882890161048b565b92505060806105aa888289016104a0565b9150509295509295909350565b6105c081610857565b82525050565b60006105d3601b8361064e565b91506105de82610916565b602082019050919050565b6105f281610893565b82525050565b600060208201905061060d60008301846105b7565b92915050565b6000602082019050818103600083015261062c816105c6565b9050919050565b600060208201905061064860008301846105e9565b92915050565b600082825260208201905092915050565b600061066a82610893565b915061067583610893565b9250827fffffffffffffffffffffffffffffffffffffffffffffffffffffffffffffffff038211156106aa576106a96108b3565b5b828201905092915050565b60006106c082610893565b91506106cb83610893565b9250826106db576106da6108e2565b5b828204905092915050565b60006106f182610869565b91506106fc83610869565b9250827f7fffffffffffffffffffffffffffffffffffffffffffffffffffffffffffffff048211600084136000841316161561073b5761073a6108b3565b5b817f80000000000000000000000000000000000000000000000000000000000000000583126000841260008413161615610778576107776108b3565b5b827f800000000000000000000000000000000000000000000000000000000000000005821260008413600084121616156107b5576107b46108b3565b5b827f7fffffffffffffffffffffffffffffffffffffffffffffffffffffffffffffff05821260008412600084121616156107f2576107f16108b3565b5b828202905092915050565b600061080882610893565b915061081383610893565b9250817fffffffffffffffffffffffffffffffffffffffffffffffffffffffffffffffff048311821515161561084c5761084b6108b3565b5b828202905092915050565b600061086282610873565b9050919050565b6000819050919050565b600073ffffffffffffffffffffffffffffffffffffffff82169050919050565b6000819050919050565b600069ffffffffffffffffffff82169050919050565b7f4e487b7100000000000000000000000000000000000000000000000000000000600052601160045260246000fd5b7f4e487b7100000000000000000000000000000000000000000000000000000000600052601260045260246000fd5b600080fd5b7f596f75206e65656420746f207370656e64206d6f726520455448210000000000600082015250565b61094881610857565b811461095357600080fd5b50565b61095f81610869565b811461096a57600080fd5b50565b61097681610893565b811461098157600080fd5b50565b61098d8161089d565b811461099857600080fd5b5056fea264697066735822122074071a65549b535b2caa8c8c63d6caf0d78d62dc20244b525332c3733910940364736f6c63430008070033",
					"opcodes": "PUSH1 0x80 PUSH1 0x40 MSTORE CALLVALUE DUP1 ISZERO PUSH2 0x10 JUMPI PUSH1 0x0 DUP1 REVERT JUMPDEST POP CALLER PUSH1 0x1 PUSH1 0x0 PUSH2 0x100 EXP DUP2 SLOAD DUP2 PUSH20 0xFFFFFFFFFFFFFFFFFFFFFFFFFFFFFFFFFFFFFFFF MUL NOT AND SWAP1 DUP4 PUSH20 0xFFFFFFFFFFFFFFFFFFFFFFFFFFFFFFFFFFFFFFFF AND MUL OR SWAP1 SSTORE POP PUSH2 0x9D1 DUP1 PUSH2 0x61 PUSH1 0x0 CODECOPY PUSH1 0x0 RETURN INVALID PUSH1 0x80 PUSH1 0x40 MSTORE PUSH1 0x4 CALLDATASIZE LT PUSH2 0x70 JUMPI PUSH1 0x0 CALLDATALOAD PUSH1 0xE0 SHR DUP1 PUSH4 0x6E5B6B28 GT PUSH2 0x4E JUMPI DUP1 PUSH4 0x6E5B6B28 EQ PUSH2 0xE7 JUMPI DUP1 PUSH4 0x8DA5CB5B EQ PUSH2 0x124 JUMPI DUP1 PUSH4 0x98D5FDCA EQ PUSH2 0x14F JUMPI DUP1 PUSH4 0xB60D4288 EQ PUSH2 0x17A JUMPI PUSH2 0x70 JUMP JUMPDEST DUP1 PUSH4 0xD8E6E2C EQ PUSH2 0x75 JUMPI DUP1 PUSH4 0x3CCFD60B EQ PUSH2 0xA0 JUMPI DUP1 PUSH4 0x3E47D6F3 EQ PUSH2 0xAA JUMPI JUMPDEST PUSH1 0x0 DUP1 REVERT JUMPDEST CALLVALUE DUP1 ISZERO PUSH2 0x81 JUMPI PUSH1 0x0 DUP1 REVERT JUMPDEST POP PUSH2 0x8A PUSH2 0x184 JUMP JUMPDEST PUSH1 0x40 MLOAD PUSH2 0x97 SWAP2 SWAP1 PUSH2 0x633 JUMP JUMPDEST PUSH1 0x40 MLOAD DUP1 SWAP2 SUB SWAP1 RETURN JUMPDEST PUSH2 0xA8 PUSH2 0x222 JUMP JUMPDEST STOP JUMPDEST CALLVALUE DUP1 ISZERO PUSH2 0xB6 JUMPI PUSH1 0x0 DUP1 REVERT JUMPDEST POP PUSH2 0xD1 PUSH1 0x4 DUP1 CALLDATASIZE SUB DUP2 ADD SWAP1 PUSH2 0xCC SWAP2 SWAP1 PUSH2 0x4B5 JUMP JUMPDEST PUSH2 0x26B JUMP JUMPDEST PUSH1 0x40 MLOAD PUSH2 0xDE SWAP2 SWAP1 PUSH2 0x633 JUMP JUMPDEST PUSH1 0x40 MLOAD DUP1 SWAP2 SUB SWAP1 RETURN JUMPDEST CALLVALUE DUP1 ISZERO PUSH2 0xF3 JUMPI PUSH1 0x0 DUP1 REVERT JUMPDEST POP PUSH2 0x10E PUSH1 0x4 DUP1 CALLDATASIZE SUB DUP2 ADD SWAP1 PUSH2 0x109 SWAP2 SWAP1 PUSH2 0x4E2 JUMP JUMPDEST PUSH2 0x283 JUMP JUMPDEST PUSH1 0x40 MLOAD PUSH2 0x11B SWAP2 SWAP1 PUSH2 0x633 JUMP JUMPDEST PUSH1 0x40 MLOAD DUP1 SWAP2 SUB SWAP1 RETURN JUMPDEST CALLVALUE DUP1 ISZERO PUSH2 0x130 JUMPI PUSH1 0x0 DUP1 REVERT JUMPDEST POP PUSH2 0x139 PUSH2 0x2BD JUMP JUMPDEST PUSH1 0x40 MLOAD PUSH2 0x146 SWAP2 SWAP1 PUSH2 0x5F8 JUMP JUMPDEST PUSH1 0x40 MLOAD DUP1 SWAP2 SUB SWAP1 RETURN JUMPDEST CALLVALUE DUP1 ISZERO PUSH2 0x15B JUMPI PUSH1 0x0 DUP1 REVERT JUMPDEST POP PUSH2 0x164 PUSH2 0x2E3 JUMP JUMPDEST PUSH1 0x40 MLOAD PUSH2 0x171 SWAP2 SWAP1 PUSH2 0x633 JUMP JUMPDEST PUSH1 0x40 MLOAD DUP1 SWAP2 SUB SWAP1 RETURN JUMPDEST PUSH2 0x182 PUSH2 0x39B JUMP JUMPDEST STOP JUMPDEST PUSH1 0x0 DUP1 PUSH20 0x8A753747A1FA494EC906CE90E9F37563A8AF630E SWAP1 POP DUP1 PUSH20 0xFFFFFFFFFFFFFFFFFFFFFFFFFFFFFFFFFFFFFFFF AND PUSH4 0x54FD4D50 PUSH1 0x40 MLOAD DUP2 PUSH4 0xFFFFFFFF AND PUSH1 0xE0 SHL DUP2 MSTORE PUSH1 0x4 ADD PUSH1 0x20 PUSH1 0x40 MLOAD DUP1 DUP4 SUB DUP2 DUP7 DUP1 EXTCODESIZE ISZERO DUP1 ISZERO PUSH2 0x1E4 JUMPI PUSH1 0x0 DUP1 REVERT JUMPDEST POP GAS STATICCALL ISZERO DUP1 ISZERO PUSH2 0x1F8 JUMPI RETURNDATASIZE PUSH1 0x0 DUP1 RETURNDATACOPY RETURNDATASIZE PUSH1 0x0 REVERT JUMPDEST POP POP POP POP PUSH1 0x40 MLOAD RETURNDATASIZE PUSH1 0x1F NOT PUSH1 0x1F DUP3 ADD AND DUP3 ADD DUP1 PUSH1 0x40 MSTORE POP DUP2 ADD SWAP1 PUSH2 0x21C SWAP2 SWAP1 PUSH2 0x50F JUMP JUMPDEST SWAP2 POP POP SWAP1 JUMP JUMPDEST CALLER PUSH20 0xFFFFFFFFFFFFFFFFFFFFFFFFFFFFFFFFFFFFFFFF AND PUSH2 0x8FC SELFBALANCE SWAP1 DUP2 ISZERO MUL SWAP1 PUSH1 0x40 MLOAD PUSH1 0x0 PUSH1 0x40 MLOAD DUP1 DUP4 SUB DUP2 DUP6 DUP9 DUP9 CALL SWAP4 POP POP POP POP ISZERO DUP1 ISZERO PUSH2 0x268 JUMPI RETURNDATASIZE PUSH1 0x0 DUP1 RETURNDATACOPY RETURNDATASIZE PUSH1 0x0 REVERT JUMPDEST POP JUMP JUMPDEST PUSH1 0x0 PUSH1 0x20 MSTORE DUP1 PUSH1 0x0 MSTORE PUSH1 0x40 PUSH1 0x0 KECCAK256 PUSH1 0x0 SWAP2 POP SWAP1 POP SLOAD DUP2 JUMP JUMPDEST PUSH1 0x0 DUP1 PUSH2 0x28E PUSH2 0x2E3 JUMP JUMPDEST SWAP1 POP PUSH1 0x0 PUSH8 0xDE0B6B3A7640000 DUP5 DUP4 PUSH2 0x2A7 SWAP2 SWAP1 PUSH2 0x7FD JUMP JUMPDEST PUSH2 0x2B1 SWAP2 SWAP1 PUSH2 0x6B5 JUMP JUMPDEST SWAP1 POP DUP1 SWAP3 POP POP POP SWAP2 SWAP1 POP JUMP JUMPDEST PUSH1 0x1 PUSH1 0x0 SWAP1 SLOAD SWAP1 PUSH2 0x100 EXP SWAP1 DIV PUSH20 0xFFFFFFFFFFFFFFFFFFFFFFFFFFFFFFFFFFFFFFFF AND DUP2 JUMP JUMPDEST PUSH1 0x0 DUP1 PUSH20 0x8A753747A1FA494EC906CE90E9F37563A8AF630E SWAP1 POP PUSH1 0x0 DUP2 PUSH20 0xFFFFFFFFFFFFFFFFFFFFFFFFFFFFFFFFFFFFFFFF AND PUSH4 0xFEAF968C PUSH1 0x40 MLOAD DUP2 PUSH4 0xFFFFFFFF AND PUSH1 0xE0 SHL DUP2 MSTORE PUSH1 0x4 ADD PUSH1 0xA0 PUSH1 0x40 MLOAD DUP1 DUP4 SUB DUP2 DUP7 DUP1 EXTCODESIZE ISZERO DUP1 ISZERO PUSH2 0x345 JUMPI PUSH1 0x0 DUP1 REVERT JUMPDEST POP GAS STATICCALL ISZERO DUP1 ISZERO PUSH2 0x359 JUMPI RETURNDATASIZE PUSH1 0x0 DUP1 RETURNDATACOPY RETURNDATASIZE PUSH1 0x0 REVERT JUMPDEST POP POP POP POP PUSH1 0x40 MLOAD RETURNDATASIZE PUSH1 0x1F NOT PUSH1 0x1F DUP3 ADD AND DUP3 ADD DUP1 PUSH1 0x40 MSTORE POP DUP2 ADD SWAP1 PUSH2 0x37D SWAP2 SWAP1 PUSH2 0x53C JUMP JUMPDEST POP POP POP SWAP2 POP POP PUSH5 0x2540BE400 DUP2 PUSH2 0x394 SWAP2 SWAP1 PUSH2 0x6E6 JUMP JUMPDEST SWAP3 POP POP POP SWAP1 JUMP JUMPDEST PUSH1 0x0 PUSH9 0x2B5E3AF16B1880000 SWAP1 POP DUP1 PUSH2 0x3B3 CALLVALUE PUSH2 0x283 JUMP JUMPDEST LT ISZERO PUSH2 0x3F4 JUMPI PUSH1 0x40 MLOAD PUSH32 0x8C379A000000000000000000000000000000000000000000000000000000000 DUP2 MSTORE PUSH1 0x4 ADD PUSH2 0x3EB SWAP1 PUSH2 0x613 JUMP JUMPDEST PUSH1 0x40 MLOAD DUP1 SWAP2 SUB SWAP1 REVERT JUMPDEST CALLVALUE PUSH1 0x0 DUP1 CALLER PUSH20 0xFFFFFFFFFFFFFFFFFFFFFFFFFFFFFFFFFFFFFFFF AND PUSH20 0xFFFFFFFFFFFFFFFFFFFFFFFFFFFFFFFFFFFFFFFF AND DUP2 MSTORE PUSH1 0x20 ADD SWAP1 DUP2 MSTORE PUSH1 0x20 ADD PUSH1 0x0 KECCAK256 PUSH1 0x0 DUP3 DUP3 SLOAD PUSH2 0x442 SWAP2 SWAP1 PUSH2 0x65F JUMP JUMPDEST SWAP3 POP POP DUP2 SWAP1 SSTORE POP POP JUMP JUMPDEST PUSH1 0x0 DUP2 CALLDATALOAD SWAP1 POP PUSH2 0x45B DUP2 PUSH2 0x93F JUMP JUMPDEST SWAP3 SWAP2 POP POP JUMP JUMPDEST PUSH1 0x0 DUP2 MLOAD SWAP1 POP PUSH2 0x470 DUP2 PUSH2 0x956 JUMP JUMPDEST SWAP3 SWAP2 POP POP JUMP JUMPDEST PUSH1 0x0 DUP2 CALLDATALOAD SWAP1 POP PUSH2 0x485 DUP2 PUSH2 0x96D JUMP JUMPDEST SWAP3 SWAP2 POP POP JUMP JUMPDEST PUSH1 0x0 DUP2 MLOAD SWAP1 POP PUSH2 0x49A DUP2 PUSH2 0x96D JUMP JUMPDEST SWAP3 SWAP2 POP POP JUMP JUMPDEST PUSH1 0x0 DUP2 MLOAD SWAP1 POP PUSH2 0x4AF DUP2 PUSH2 0x984 JUMP JUMPDEST SWAP3 SWAP2 POP POP JUMP JUMPDEST PUSH1 0x0 PUSH1 0x20 DUP3 DUP5 SUB SLT ISZERO PUSH2 0x4CB JUMPI PUSH2 0x4CA PUSH2 0x911 JUMP JUMPDEST JUMPDEST PUSH1 0x0 PUSH2 0x4D9 DUP5 DUP3 DUP6 ADD PUSH2 0x44C JUMP JUMPDEST SWAP2 POP POP SWAP3 SWAP2 POP POP JUMP JUMPDEST PUSH1 0x0 PUSH1 0x20 DUP3 DUP5 SUB SLT ISZERO PUSH2 0x4F8 JUMPI PUSH2 0x4F7 PUSH2 0x911 JUMP JUMPDEST JUMPDEST PUSH1 0x0 PUSH2 0x506 DUP5 DUP3 DUP6 ADD PUSH2 0x476 JUMP JUMPDEST SWAP2 POP POP SWAP3 SWAP2 POP POP JUMP JUMPDEST PUSH1 0x0 PUSH1 0x20 DUP3 DUP5 SUB SLT ISZERO PUSH2 0x525 JUMPI PUSH2 0x524 PUSH2 0x911 JUMP JUMPDEST JUMPDEST PUSH1 0x0 PUSH2 0x533 DUP5 DUP3 DUP6 ADD PUSH2 0x48B JUMP JUMPDEST SWAP2 POP POP SWAP3 SWAP2 POP POP JUMP JUMPDEST PUSH1 0x0 DUP1 PUSH1 0x0 DUP1 PUSH1 0x0 PUSH1 0xA0 DUP7 DUP9 SUB SLT ISZERO PUSH2 0x558 JUMPI PUSH2 0x557 PUSH2 0x911 JUMP JUMPDEST JUMPDEST PUSH1 0x0 PUSH2 0x566 DUP9 DUP3 DUP10 ADD PUSH2 0x4A0 JUMP JUMPDEST SWAP6 POP POP PUSH1 0x20 PUSH2 0x577 DUP9 DUP3 DUP10 ADD PUSH2 0x461 JUMP JUMPDEST SWAP5 POP POP PUSH1 0x40 PUSH2 0x588 DUP9 DUP3 DUP10 ADD PUSH2 0x48B JUMP JUMPDEST SWAP4 POP POP PUSH1 0x60 PUSH2 0x599 DUP9 DUP3 DUP10 ADD PUSH2 0x48B JUMP JUMPDEST SWAP3 POP POP PUSH1 0x80 PUSH2 0x5AA DUP9 DUP3 DUP10 ADD PUSH2 0x4A0 JUMP JUMPDEST SWAP2 POP POP SWAP3 SWAP6 POP SWAP3 SWAP6 SWAP1 SWAP4 POP JUMP JUMPDEST PUSH2 0x5C0 DUP2 PUSH2 0x857 JUMP JUMPDEST DUP3 MSTORE POP POP JUMP JUMPDEST PUSH1 0x0 PUSH2 0x5D3 PUSH1 0x1B DUP4 PUSH2 0x64E JUMP JUMPDEST SWAP2 POP PUSH2 0x5DE DUP3 PUSH2 0x916 JUMP JUMPDEST PUSH1 0x20 DUP3 ADD SWAP1 POP SWAP2 SWAP1 POP JUMP JUMPDEST PUSH2 0x5F2 DUP2 PUSH2 0x893 JUMP JUMPDEST DUP3 MSTORE POP POP JUMP JUMPDEST PUSH1 0x0 PUSH1 0x20 DUP3 ADD SWAP1 POP PUSH2 0x60D PUSH1 0x0 DUP4 ADD DUP5 PUSH2 0x5B7 JUMP JUMPDEST SWAP3 SWAP2 POP POP JUMP JUMPDEST PUSH1 0x0 PUSH1 0x20 DUP3 ADD SWAP1 POP DUP2 DUP2 SUB PUSH1 0x0 DUP4 ADD MSTORE PUSH2 0x62C DUP2 PUSH2 0x5C6 JUMP JUMPDEST SWAP1 POP SWAP2 SWAP1 POP JUMP JUMPDEST PUSH1 0x0 PUSH1 0x20 DUP3 ADD SWAP1 POP PUSH2 0x648 PUSH1 0x0 DUP4 ADD DUP5 PUSH2 0x5E9 JUMP JUMPDEST SWAP3 SWAP2 POP POP JUMP JUMPDEST PUSH1 0x0 DUP3 DUP3 MSTORE PUSH1 0x20 DUP3 ADD SWAP1 POP SWAP3 SWAP2 POP POP JUMP JUMPDEST PUSH1 0x0 PUSH2 0x66A DUP3 PUSH2 0x893 JUMP JUMPDEST SWAP2 POP PUSH2 0x675 DUP4 PUSH2 0x893 JUMP JUMPDEST SWAP3 POP DUP3 PUSH32 0xFFFFFFFFFFFFFFFFFFFFFFFFFFFFFFFFFFFFFFFFFFFFFFFFFFFFFFFFFFFFFFFF SUB DUP3 GT ISZERO PUSH2 0x6AA JUMPI PUSH2 0x6A9 PUSH2 0x8B3 JUMP JUMPDEST JUMPDEST DUP3 DUP3 ADD SWAP1 POP SWAP3 SWAP2 POP POP JUMP JUMPDEST PUSH1 0x0 PUSH2 0x6C0 DUP3 PUSH2 0x893 JUMP JUMPDEST SWAP2 POP PUSH2 0x6CB DUP4 PUSH2 0x893 JUMP JUMPDEST SWAP3 POP DUP3 PUSH2 0x6DB JUMPI PUSH2 0x6DA PUSH2 0x8E2 JUMP JUMPDEST JUMPDEST DUP3 DUP3 DIV SWAP1 POP SWAP3 SWAP2 POP POP JUMP JUMPDEST PUSH1 0x0 PUSH2 0x6F1 DUP3 PUSH2 0x869 JUMP JUMPDEST SWAP2 POP PUSH2 0x6FC DUP4 PUSH2 0x869 JUMP JUMPDEST SWAP3 POP DUP3 PUSH32 0x7FFFFFFFFFFFFFFFFFFFFFFFFFFFFFFFFFFFFFFFFFFFFFFFFFFFFFFFFFFFFFFF DIV DUP3 GT PUSH1 0x0 DUP5 SGT PUSH1 0x0 DUP5 SGT AND AND ISZERO PUSH2 0x73B JUMPI PUSH2 0x73A PUSH2 0x8B3 JUMP JUMPDEST JUMPDEST DUP2 PUSH32 0x8000000000000000000000000000000000000000000000000000000000000000 SDIV DUP4 SLT PUSH1 0x0 DUP5 SLT PUSH1 0x0 DUP5 SGT AND AND ISZERO PUSH2 0x778 JUMPI PUSH2 0x777 PUSH2 0x8B3 JUMP JUMPDEST JUMPDEST DUP3 PUSH32 0x8000000000000000000000000000000000000000000000000000000000000000 SDIV DUP3 SLT PUSH1 0x0 DUP5 SGT PUSH1 0x0 DUP5 SLT AND AND ISZERO PUSH2 0x7B5 JUMPI PUSH2 0x7B4 PUSH2 0x8B3 JUMP JUMPDEST JUMPDEST DUP3 PUSH32 0x7FFFFFFFFFFFFFFFFFFFFFFFFFFFFFFFFFFFFFFFFFFFFFFFFFFFFFFFFFFFFFFF SDIV DUP3 SLT PUSH1 0x0 DUP5 SLT PUSH1 0x0 DUP5 SLT AND AND ISZERO PUSH2 0x7F2 JUMPI PUSH2 0x7F1 PUSH2 0x8B3 JUMP JUMPDEST JUMPDEST DUP3 DUP3 MUL SWAP1 POP SWAP3 SWAP2 POP POP JUMP JUMPDEST PUSH1 0x0 PUSH2 0x808 DUP3 PUSH2 0x893 JUMP JUMPDEST SWAP2 POP PUSH2 0x813 DUP4 PUSH2 0x893 JUMP JUMPDEST SWAP3 POP DUP2 PUSH32 0xFFFFFFFFFFFFFFFFFFFFFFFFFFFFFFFFFFFFFFFFFFFFFFFFFFFFFFFFFFFFFFFF DIV DUP4 GT DUP3 ISZERO ISZERO AND ISZERO PUSH2 0x84C JUMPI PUSH2 0x84B PUSH2 0x8B3 JUMP JUMPDEST JUMPDEST DUP3 DUP3 MUL SWAP1 POP SWAP3 SWAP2 POP POP JUMP JUMPDEST PUSH1 0x0 PUSH2 0x862 DUP3 PUSH2 0x873 JUMP JUMPDEST SWAP1 POP SWAP2 SWAP1 POP JUMP JUMPDEST PUSH1 0x0 DUP2 SWAP1 POP SWAP2 SWAP1 POP JUMP JUMPDEST PUSH1 0x0 PUSH20 0xFFFFFFFFFFFFFFFFFFFFFFFFFFFFFFFFFFFFFFFF DUP3 AND SWAP1 POP SWAP2 SWAP1 POP JUMP JUMPDEST PUSH1 0x0 DUP2 SWAP1 POP SWAP2 SWAP1 POP JUMP JUMPDEST PUSH1 0x0 PUSH10 0xFFFFFFFFFFFFFFFFFFFF DUP3 AND SWAP1 POP SWAP2 SWAP1 POP JUMP JUMPDEST PUSH32 0x4E487B7100000000000000000000000000000000000000000000000000000000 PUSH1 0x0 MSTORE PUSH1 0x11 PUSH1 0x4 MSTORE PUSH1 0x24 PUSH1 0x0 REVERT JUMPDEST PUSH32 0x4E487B7100000000000000000000000000000000000000000000000000000000 PUSH1 0x0 MSTORE PUSH1 0x12 PUSH1 0x4 MSTORE PUSH1 0x24 PUSH1 0x0 REVERT JUMPDEST PUSH1 0x0 DUP1 REVERT JUMPDEST PUSH32 0x596F75206E65656420746F207370656E64206D6F726520455448210000000000 PUSH1 0x0 DUP3 ADD MSTORE POP JUMP JUMPDEST PUSH2 0x948 DUP2 PUSH2 0x857 JUMP JUMPDEST DUP2 EQ PUSH2 0x953 JUMPI PUSH1 0x0 DUP1 REVERT JUMPDEST POP JUMP JUMPDEST PUSH2 0x95F DUP2 PUSH2 0x869 JUMP JUMPDEST DUP2 EQ PUSH2 0x96A JUMPI PUSH1 0x0 DUP1 REVERT JUMPDEST POP JUMP JUMPDEST PUSH2 0x976 DUP2 PUSH2 0x893 JUMP JUMPDEST DUP2 EQ PUSH2 0x981 JUMPI PUSH1 0x0 DUP1 REVERT JUMPDEST POP JUMP JUMPDEST PUSH2 0x98D DUP2 PUSH2 0x89D JUMP JUMPDEST DUP2 EQ PUSH2 0x998 JUMPI PUSH1 0x0 DUP1 REVERT JUMPDEST POP JUMP INVALID LOG2 PUSH5 0x6970667358 0x22 SLT KECCAK256 PUSH21 0x71A65549B535B2CAA8C8C63D6CAF0D78D62DC2024 0x4B MSTORE MSTORE8 ORIGIN 0xC3 PUSH20 0x3910940364736F6C634300080700330000000000 "
				},
				"gasEstimates": {
					"creation": {
						"codeDepositCost": "502600",
						"executionCost": "24803",
						"totalCost": "527403"
					},
					"external": {
						"addressToAmountFunded(address)": "2859",
						"fund()": "infinite",
						"getConversionRate(uint256)": "infinite",
						"getPrice()": "infinite",
						"getVersion()": "infinite",
						"owner()": "2536",
						"withdraw()": "infinite"
					}
				},
				"methodIdentifiers": {
					"addressToAmountFunded(address)": "3e47d6f3",
					"fund()": "b60d4288",
					"getConversionRate(uint256)": "6e5b6b28",
					"getPrice()": "98d5fdca",
					"getVersion()": "0d8e6e2c",
					"owner()": "8da5cb5b",
					"withdraw()": "3ccfd60b"
				}
			},
			"storageLayout": {
				"storage": [
					{
						"astId": 52,
						"contract": "contracts/FundMe.sol:FundMe",
						"label": "addressToAmountFunded",
						"offset": 0,
						"slot": "0",
						"type": "t_mapping(t_address,t_uint256)"
					},
					{
						"astId": 54,
						"contract": "contracts/FundMe.sol:FundMe",
						"label": "owner",
						"offset": 0,
						"slot": "1",
						"type": "t_address"
					}
				],
				"types": {
					"t_address": {
						"encoding": "inplace",
						"label": "address",
						"numberOfBytes": "20"
					},
					"t_mapping(t_address,t_uint256)": {
						"encoding": "mapping",
						"key": "t_address",
						"label": "mapping(address => uint256)",
						"numberOfBytes": "32",
						"value": "t_uint256"
					},
					"t_uint256": {
						"encoding": "inplace",
						"label": "uint256",
						"numberOfBytes": "32"
					}
				}
			},
			"userdoc": {
				"kind": "user",
				"methods": {},
				"version": 1
			}
		}
	}
}