{
	"contracts/FundMe.sol": {
		"FundMe": {
			"abi": [
				{
					"inputs": [
						{
							"internalType": "address",
							"name": "",
							"type": "address"
						}
					],
					"name": "addressToAmountFunded",
					"outputs": [
						{
							"internalType": "uint256",
							"name": "",
							"type": "uint256"
						}
					],
					"stateMutability": "view",
					"type": "function"
				},
				{
					"inputs": [],
					"name": "fund",
					"outputs": [],
					"stateMutability": "payable",
					"type": "function"
				},
				{
					"inputs": [
						{
							"internalType": "uint256",
							"name": "ethAmount",
							"type": "uint256"
						}
					],
					"name": "getConversionRate",
					"outputs": [
						{
							"internalType": "uint256",
							"name": "",
							"type": "uint256"
						}
					],
					"stateMutability": "view",
					"type": "function"
				},
				{
					"inputs": [],
					"name": "getPrice",
					"outputs": [
						{
							"internalType": "uint256",
							"name": "",
							"type": "uint256"
						}
					],
					"stateMutability": "view",
					"type": "function"
				},
				{
					"inputs": [],
					"name": "getVersion",
					"outputs": [
						{
							"internalType": "uint256",
							"name": "",
							"type": "uint256"
						}
					],
					"stateMutability": "view",
					"type": "function"
				}
			],
			"devdoc": {
				"kind": "dev",
				"methods": {},
				"version": 1
			},
			"evm": {
				"assembly": "    /* \"contracts/FundMe.sol\":150:1019  contract FundMe {\r... */\n  mstore(0x40, 0x80)\n  callvalue\n  dup1\n  iszero\n  tag_1\n  jumpi\n  0x00\n  dup1\n  revert\ntag_1:\n  pop\n  dataSize(sub_0)\n  dup1\n  dataOffset(sub_0)\n  0x00\n  codecopy\n  0x00\n  return\nstop\n\nsub_0: assembly {\n        /* \"contracts/FundMe.sol\":150:1019  contract FundMe {\r... */\n      mstore(0x40, 0x80)\n      jumpi(tag_1, lt(calldatasize, 0x04))\n      shr(0xe0, calldataload(0x00))\n      dup1\n      0x0d8e6e2c\n      eq\n      tag_2\n      jumpi\n      dup1\n      0x3e47d6f3\n      eq\n      tag_3\n      jumpi\n      dup1\n      0x6e5b6b28\n      eq\n      tag_4\n      jumpi\n      dup1\n      0x98d5fdca\n      eq\n      tag_5\n      jumpi\n      dup1\n      0xb60d4288\n      eq\n      tag_6\n      jumpi\n    tag_1:\n      0x00\n      dup1\n      revert\n        /* \"contracts/FundMe.sol\":350:553  function getVersion() public view returns (uint256) {\r... */\n    tag_2:\n      callvalue\n      dup1\n      iszero\n      tag_7\n      jumpi\n      0x00\n      dup1\n      revert\n    tag_7:\n      pop\n      tag_8\n      tag_9\n      jump\t// in\n    tag_8:\n      mload(0x40)\n      tag_10\n      swap2\n      swap1\n      tag_11\n      jump\t// in\n    tag_10:\n      mload(0x40)\n      dup1\n      swap2\n      sub\n      swap1\n      return\n        /* \"contracts/FundMe.sol\":175:231  mapping(address => uint256) public addressToAmountFunded */\n    tag_3:\n      callvalue\n      dup1\n      iszero\n      tag_12\n      jumpi\n      0x00\n      dup1\n      revert\n    tag_12:\n      pop\n      tag_13\n      0x04\n      dup1\n      calldatasize\n      sub\n      dup2\n      add\n      swap1\n      tag_14\n      swap2\n      swap1\n      tag_15\n      jump\t// in\n    tag_14:\n      tag_16\n      jump\t// in\n    tag_13:\n      mload(0x40)\n      tag_17\n      swap2\n      swap1\n      tag_11\n      jump\t// in\n    tag_17:\n      mload(0x40)\n      dup1\n      swap2\n      sub\n      swap1\n      return\n        /* \"contracts/FundMe.sol\":837:1014  function getConversionRate(uint256 ethAmount) public view returns (uint256){\r... */\n    tag_4:\n      callvalue\n      dup1\n      iszero\n      tag_18\n      jumpi\n      0x00\n      dup1\n      revert\n    tag_18:\n      pop\n      tag_19\n      0x04\n      dup1\n      calldatasize\n      sub\n      dup2\n      add\n      swap1\n      tag_20\n      swap2\n      swap1\n      tag_21\n      jump\t// in\n    tag_20:\n      tag_22\n      jump\t// in\n    tag_19:\n      mload(0x40)\n      tag_23\n      swap2\n      swap1\n      tag_11\n      jump\t// in\n    tag_23:\n      mload(0x40)\n      dup1\n      swap2\n      sub\n      swap1\n      return\n        /* \"contracts/FundMe.sol\":561:829  function getPrice() public view returns(uint256) {\r... */\n    tag_5:\n      callvalue\n      dup1\n      iszero\n      tag_24\n      jumpi\n      0x00\n      dup1\n      revert\n    tag_24:\n      pop\n      tag_25\n      tag_26\n      jump\t// in\n    tag_25:\n      mload(0x40)\n      tag_27\n      swap2\n      swap1\n      tag_11\n      jump\t// in\n    tag_27:\n      mload(0x40)\n      dup1\n      swap2\n      sub\n      swap1\n      return\n        /* \"contracts/FundMe.sol\":244:342  function fund() public payable {\r... */\n    tag_6:\n      tag_28\n      tag_29\n      jump\t// in\n    tag_28:\n      stop\n        /* \"contracts/FundMe.sol\":350:553  function getVersion() public view returns (uint256) {\r... */\n    tag_9:\n        /* \"contracts/FundMe.sol\":393:400  uint256 */\n      0x00\n        /* \"contracts/FundMe.sol\":411:442  AggregatorV3Interface priceFeed */\n      dup1\n        /* \"contracts/FundMe.sol\":467:509  0x8A753747A1Fa494EC906cE90E9f37563A8AF630e */\n      0x8a753747a1fa494ec906ce90e9f37563a8af630e\n        /* \"contracts/FundMe.sol\":411:510  AggregatorV3Interface priceFeed = AggregatorV3Interface(0x8A753747A1Fa494EC906cE90E9f37563A8AF630e) */\n      swap1\n      pop\n        /* \"contracts/FundMe.sol\":526:535  priceFeed */\n      dup1\n        /* \"contracts/FundMe.sol\":526:543  priceFeed.version */\n      0xffffffffffffffffffffffffffffffffffffffff\n      and\n      0x54fd4d50\n        /* \"contracts/FundMe.sol\":526:545  priceFeed.version() */\n      mload(0x40)\n      dup2\n      0xffffffff\n      and\n      0xe0\n      shl\n      dup2\n      mstore\n      0x04\n      add\n      0x20\n      mload(0x40)\n      dup1\n      dup4\n      sub\n      dup2\n      dup7\n      dup1\n      extcodesize\n      iszero\n      dup1\n      iszero\n      tag_31\n      jumpi\n      0x00\n      dup1\n      revert\n    tag_31:\n      pop\n      gas\n      staticcall\n      iszero\n      dup1\n      iszero\n      tag_33\n      jumpi\n      returndatasize\n      0x00\n      dup1\n      returndatacopy\n      revert(0x00, returndatasize)\n    tag_33:\n      pop\n      pop\n      pop\n      pop\n      mload(0x40)\n      returndatasize\n      not(0x1f)\n      0x1f\n      dup3\n      add\n      and\n      dup3\n      add\n      dup1\n      0x40\n      mstore\n      pop\n      dup2\n      add\n      swap1\n      tag_34\n      swap2\n      swap1\n      tag_35\n      jump\t// in\n    tag_34:\n        /* \"contracts/FundMe.sol\":519:545  return priceFeed.version() */\n      swap2\n      pop\n      pop\n        /* \"contracts/FundMe.sol\":350:553  function getVersion() public view returns (uint256) {\r... */\n      swap1\n      jump\t// out\n        /* \"contracts/FundMe.sol\":175:231  mapping(address => uint256) public addressToAmountFunded */\n    tag_16:\n      mstore(0x20, 0x00)\n      dup1\n      0x00\n      mstore\n      keccak256(0x00, 0x40)\n      0x00\n      swap2\n      pop\n      swap1\n      pop\n      sload\n      dup2\n      jump\t// out\n        /* \"contracts/FundMe.sol\":837:1014  function getConversionRate(uint256 ethAmount) public view returns (uint256){\r... */\n    tag_22:\n        /* \"contracts/FundMe.sol\":904:911  uint256 */\n      0x00\n        /* \"contracts/FundMe.sol\":921:937  uint256 ethPrice */\n      dup1\n        /* \"contracts/FundMe.sol\":940:950  getPrice() */\n      tag_37\n        /* \"contracts/FundMe.sol\":940:948  getPrice */\n      tag_26\n        /* \"contracts/FundMe.sol\":940:950  getPrice() */\n      jump\t// in\n    tag_37:\n        /* \"contracts/FundMe.sol\":921:950  uint256 ethPrice = getPrice() */\n      swap1\n      pop\n        /* \"contracts/FundMe.sol\":959:981  uint256 ethAmountInUsd */\n      0x00\n        /* \"contracts/FundMe.sol\":996:1005  ethAmount */\n      dup4\n        /* \"contracts/FundMe.sol\":985:993  ethPrice */\n      dup3\n        /* \"contracts/FundMe.sol\":985:1005  ethPrice * ethAmount */\n      tag_38\n      swap2\n      swap1\n      tag_39\n      jump\t// in\n    tag_38:\n        /* \"contracts/FundMe.sol\":959:1006  uint256 ethAmountInUsd = (ethPrice * ethAmount) */\n      swap1\n      pop\n        /* \"contracts/FundMe.sol\":912:1014  {\r... */\n      pop\n      pop\n        /* \"contracts/FundMe.sol\":837:1014  function getConversionRate(uint256 ethAmount) public view returns (uint256){\r... */\n      swap2\n      swap1\n      pop\n      jump\t// out\n        /* \"contracts/FundMe.sol\":561:829  function getPrice() public view returns(uint256) {\r... */\n    tag_26:\n        /* \"contracts/FundMe.sol\":601:608  uint256 */\n      0x00\n        /* \"contracts/FundMe.sol\":619:650  AggregatorV3Interface priceFeed */\n      dup1\n        /* \"contracts/FundMe.sol\":675:717  0x8A753747A1Fa494EC906cE90E9f37563A8AF630e */\n      0x8a753747a1fa494ec906ce90e9f37563a8af630e\n        /* \"contracts/FundMe.sol\":619:718  AggregatorV3Interface priceFeed = AggregatorV3Interface(0x8A753747A1Fa494EC906cE90E9f37563A8AF630e) */\n      swap1\n      pop\n        /* \"contracts/FundMe.sol\":729:742  int256 answer */\n      0x00\n        /* \"contracts/FundMe.sol\":749:758  priceFeed */\n      dup2\n        /* \"contracts/FundMe.sol\":749:774  priceFeed.latestRoundData */\n      0xffffffffffffffffffffffffffffffffffffffff\n      and\n      0xfeaf968c\n        /* \"contracts/FundMe.sol\":749:776  priceFeed.latestRoundData() */\n      mload(0x40)\n      dup2\n      0xffffffff\n      and\n      0xe0\n      shl\n      dup2\n      mstore\n      0x04\n      add\n      0xa0\n      mload(0x40)\n      dup1\n      dup4\n      sub\n      dup2\n      dup7\n      dup1\n      extcodesize\n      iszero\n      dup1\n      iszero\n      tag_41\n      jumpi\n      0x00\n      dup1\n      revert\n    tag_41:\n      pop\n      gas\n      staticcall\n      iszero\n      dup1\n      iszero\n      tag_43\n      jumpi\n      returndatasize\n      0x00\n      dup1\n      returndatacopy\n      revert(0x00, returndatasize)\n    tag_43:\n      pop\n      pop\n      pop\n      pop\n      mload(0x40)\n      returndatasize\n      not(0x1f)\n      0x1f\n      dup3\n      add\n      and\n      dup3\n      add\n      dup1\n      0x40\n      mstore\n      pop\n      dup2\n      add\n      swap1\n      tag_44\n      swap2\n      swap1\n      tag_45\n      jump\t// in\n    tag_44:\n        /* \"contracts/FundMe.sol\":727:776  (,int256 answer,,,) = priceFeed.latestRoundData() */\n      pop\n      pop\n      pop\n      swap2\n      pop\n      pop\n        /* \"contracts/FundMe.sol\":809:820  10000000000 */\n      0x02540be400\n        /* \"contracts/FundMe.sol\":800:806  answer */\n      dup2\n        /* \"contracts/FundMe.sol\":800:820  answer * 10000000000 */\n      tag_46\n      swap2\n      swap1\n      tag_47\n      jump\t// in\n    tag_46:\n        /* \"contracts/FundMe.sol\":785:821  return uint256(answer * 10000000000) */\n      swap3\n      pop\n      pop\n      pop\n        /* \"contracts/FundMe.sol\":561:829  function getPrice() public view returns(uint256) {\r... */\n      swap1\n      jump\t// out\n        /* \"contracts/FundMe.sol\":244:342  function fund() public payable {\r... */\n    tag_29:\n        /* \"contracts/FundMe.sol\":323:332  msg.value */\n      callvalue\n        /* \"contracts/FundMe.sol\":286:307  addressToAmountFunded */\n      0x00\n        /* \"contracts/FundMe.sol\":286:319  addressToAmountFunded[msg.sender] */\n      dup1\n        /* \"contracts/FundMe.sol\":308:318  msg.sender */\n      caller\n        /* \"contracts/FundMe.sol\":286:319  addressToAmountFunded[msg.sender] */\n      0xffffffffffffffffffffffffffffffffffffffff\n      and\n      0xffffffffffffffffffffffffffffffffffffffff\n      and\n      dup2\n      mstore\n      0x20\n      add\n      swap1\n      dup2\n      mstore\n      0x20\n      add\n      0x00\n      keccak256\n      0x00\n        /* \"contracts/FundMe.sol\":286:332  addressToAmountFunded[msg.sender] += msg.value */\n      dup3\n      dup3\n      sload\n      tag_49\n      swap2\n      swap1\n      tag_50\n      jump\t// in\n    tag_49:\n      swap3\n      pop\n      pop\n      dup2\n      swap1\n      sstore\n      pop\n        /* \"contracts/FundMe.sol\":244:342  function fund() public payable {\r... */\n      jump\t// out\n        /* \"#utility.yul\":7:146   */\n    tag_52:\n        /* \"#utility.yul\":53:58   */\n      0x00\n        /* \"#utility.yul\":91:97   */\n      dup2\n        /* \"#utility.yul\":78:98   */\n      calldataload\n        /* \"#utility.yul\":69:98   */\n      swap1\n      pop\n        /* \"#utility.yul\":107:140   */\n      tag_54\n        /* \"#utility.yul\":134:139   */\n      dup2\n        /* \"#utility.yul\":107:140   */\n      tag_55\n      jump\t// in\n    tag_54:\n        /* \"#utility.yul\":7:146   */\n      swap3\n      swap2\n      pop\n      pop\n      jump\t// out\n        /* \"#utility.yul\":152:293   */\n    tag_56:\n        /* \"#utility.yul\":208:213   */\n      0x00\n        /* \"#utility.yul\":239:245   */\n      dup2\n        /* \"#utility.yul\":233:246   */\n      mload\n        /* \"#utility.yul\":224:246   */\n      swap1\n      pop\n        /* \"#utility.yul\":255:287   */\n      tag_58\n        /* \"#utility.yul\":281:286   */\n      dup2\n        /* \"#utility.yul\":255:287   */\n      tag_59\n      jump\t// in\n    tag_58:\n        /* \"#utility.yul\":152:293   */\n      swap3\n      swap2\n      pop\n      pop\n      jump\t// out\n        /* \"#utility.yul\":299:438   */\n    tag_60:\n        /* \"#utility.yul\":345:350   */\n      0x00\n        /* \"#utility.yul\":383:389   */\n      dup2\n        /* \"#utility.yul\":370:390   */\n      calldataload\n        /* \"#utility.yul\":361:390   */\n      swap1\n      pop\n        /* \"#utility.yul\":399:432   */\n      tag_62\n        /* \"#utility.yul\":426:431   */\n      dup2\n        /* \"#utility.yul\":399:432   */\n      tag_63\n      jump\t// in\n    tag_62:\n        /* \"#utility.yul\":299:438   */\n      swap3\n      swap2\n      pop\n      pop\n      jump\t// out\n        /* \"#utility.yul\":444:587   */\n    tag_64:\n        /* \"#utility.yul\":501:506   */\n      0x00\n        /* \"#utility.yul\":532:538   */\n      dup2\n        /* \"#utility.yul\":526:539   */\n      mload\n        /* \"#utility.yul\":517:539   */\n      swap1\n      pop\n        /* \"#utility.yul\":548:581   */\n      tag_66\n        /* \"#utility.yul\":575:580   */\n      dup2\n        /* \"#utility.yul\":548:581   */\n      tag_63\n      jump\t// in\n    tag_66:\n        /* \"#utility.yul\":444:587   */\n      swap3\n      swap2\n      pop\n      pop\n      jump\t// out\n        /* \"#utility.yul\":593:734   */\n    tag_67:\n        /* \"#utility.yul\":649:654   */\n      0x00\n        /* \"#utility.yul\":680:686   */\n      dup2\n        /* \"#utility.yul\":674:687   */\n      mload\n        /* \"#utility.yul\":665:687   */\n      swap1\n      pop\n        /* \"#utility.yul\":696:728   */\n      tag_69\n        /* \"#utility.yul\":722:727   */\n      dup2\n        /* \"#utility.yul\":696:728   */\n      tag_70\n      jump\t// in\n    tag_69:\n        /* \"#utility.yul\":593:734   */\n      swap3\n      swap2\n      pop\n      pop\n      jump\t// out\n        /* \"#utility.yul\":740:1069   */\n    tag_15:\n        /* \"#utility.yul\":799:805   */\n      0x00\n        /* \"#utility.yul\":848:850   */\n      0x20\n        /* \"#utility.yul\":836:845   */\n      dup3\n        /* \"#utility.yul\":827:834   */\n      dup5\n        /* \"#utility.yul\":823:846   */\n      sub\n        /* \"#utility.yul\":819:851   */\n      slt\n        /* \"#utility.yul\":816:935   */\n      iszero\n      tag_72\n      jumpi\n        /* \"#utility.yul\":854:933   */\n      tag_73\n      tag_74\n      jump\t// in\n    tag_73:\n        /* \"#utility.yul\":816:935   */\n    tag_72:\n        /* \"#utility.yul\":974:975   */\n      0x00\n        /* \"#utility.yul\":999:1052   */\n      tag_75\n        /* \"#utility.yul\":1044:1051   */\n      dup5\n        /* \"#utility.yul\":1035:1041   */\n      dup3\n        /* \"#utility.yul\":1024:1033   */\n      dup6\n        /* \"#utility.yul\":1020:1042   */\n      add\n        /* \"#utility.yul\":999:1052   */\n      tag_52\n      jump\t// in\n    tag_75:\n        /* \"#utility.yul\":989:1052   */\n      swap2\n      pop\n        /* \"#utility.yul\":945:1062   */\n      pop\n        /* \"#utility.yul\":740:1069   */\n      swap3\n      swap2\n      pop\n      pop\n      jump\t// out\n        /* \"#utility.yul\":1075:1404   */\n    tag_21:\n        /* \"#utility.yul\":1134:1140   */\n      0x00\n        /* \"#utility.yul\":1183:1185   */\n      0x20\n        /* \"#utility.yul\":1171:1180   */\n      dup3\n        /* \"#utility.yul\":1162:1169   */\n      dup5\n        /* \"#utility.yul\":1158:1181   */\n      sub\n        /* \"#utility.yul\":1154:1186   */\n      slt\n        /* \"#utility.yul\":1151:1270   */\n      iszero\n      tag_77\n      jumpi\n        /* \"#utility.yul\":1189:1268   */\n      tag_78\n      tag_74\n      jump\t// in\n    tag_78:\n        /* \"#utility.yul\":1151:1270   */\n    tag_77:\n        /* \"#utility.yul\":1309:1310   */\n      0x00\n        /* \"#utility.yul\":1334:1387   */\n      tag_79\n        /* \"#utility.yul\":1379:1386   */\n      dup5\n        /* \"#utility.yul\":1370:1376   */\n      dup3\n        /* \"#utility.yul\":1359:1368   */\n      dup6\n        /* \"#utility.yul\":1355:1377   */\n      add\n        /* \"#utility.yul\":1334:1387   */\n      tag_60\n      jump\t// in\n    tag_79:\n        /* \"#utility.yul\":1324:1387   */\n      swap2\n      pop\n        /* \"#utility.yul\":1280:1397   */\n      pop\n        /* \"#utility.yul\":1075:1404   */\n      swap3\n      swap2\n      pop\n      pop\n      jump\t// out\n        /* \"#utility.yul\":1410:1761   */\n    tag_35:\n        /* \"#utility.yul\":1480:1486   */\n      0x00\n        /* \"#utility.yul\":1529:1531   */\n      0x20\n        /* \"#utility.yul\":1517:1526   */\n      dup3\n        /* \"#utility.yul\":1508:1515   */\n      dup5\n        /* \"#utility.yul\":1504:1527   */\n      sub\n        /* \"#utility.yul\":1500:1532   */\n      slt\n        /* \"#utility.yul\":1497:1616   */\n      iszero\n      tag_81\n      jumpi\n        /* \"#utility.yul\":1535:1614   */\n      tag_82\n      tag_74\n      jump\t// in\n    tag_82:\n        /* \"#utility.yul\":1497:1616   */\n    tag_81:\n        /* \"#utility.yul\":1655:1656   */\n      0x00\n        /* \"#utility.yul\":1680:1744   */\n      tag_83\n        /* \"#utility.yul\":1736:1743   */\n      dup5\n        /* \"#utility.yul\":1727:1733   */\n      dup3\n        /* \"#utility.yul\":1716:1725   */\n      dup6\n        /* \"#utility.yul\":1712:1734   */\n      add\n        /* \"#utility.yul\":1680:1744   */\n      tag_64\n      jump\t// in\n    tag_83:\n        /* \"#utility.yul\":1670:1744   */\n      swap2\n      pop\n        /* \"#utility.yul\":1626:1754   */\n      pop\n        /* \"#utility.yul\":1410:1761   */\n      swap3\n      swap2\n      pop\n      pop\n      jump\t// out\n        /* \"#utility.yul\":1767:2738   */\n    tag_45:\n        /* \"#utility.yul\":1870:1876   */\n      0x00\n        /* \"#utility.yul\":1878:1884   */\n      dup1\n        /* \"#utility.yul\":1886:1892   */\n      0x00\n        /* \"#utility.yul\":1894:1900   */\n      dup1\n        /* \"#utility.yul\":1902:1908   */\n      0x00\n        /* \"#utility.yul\":1951:1954   */\n      0xa0\n        /* \"#utility.yul\":1939:1948   */\n      dup7\n        /* \"#utility.yul\":1930:1937   */\n      dup9\n        /* \"#utility.yul\":1926:1949   */\n      sub\n        /* \"#utility.yul\":1922:1955   */\n      slt\n        /* \"#utility.yul\":1919:2039   */\n      iszero\n      tag_85\n      jumpi\n        /* \"#utility.yul\":1958:2037   */\n      tag_86\n      tag_74\n      jump\t// in\n    tag_86:\n        /* \"#utility.yul\":1919:2039   */\n    tag_85:\n        /* \"#utility.yul\":2078:2079   */\n      0x00\n        /* \"#utility.yul\":2103:2166   */\n      tag_87\n        /* \"#utility.yul\":2158:2165   */\n      dup9\n        /* \"#utility.yul\":2149:2155   */\n      dup3\n        /* \"#utility.yul\":2138:2147   */\n      dup10\n        /* \"#utility.yul\":2134:2156   */\n      add\n        /* \"#utility.yul\":2103:2166   */\n      tag_67\n      jump\t// in\n    tag_87:\n        /* \"#utility.yul\":2093:2166   */\n      swap6\n      pop\n        /* \"#utility.yul\":2049:2176   */\n      pop\n        /* \"#utility.yul\":2215:2217   */\n      0x20\n        /* \"#utility.yul\":2241:2304   */\n      tag_88\n        /* \"#utility.yul\":2296:2303   */\n      dup9\n        /* \"#utility.yul\":2287:2293   */\n      dup3\n        /* \"#utility.yul\":2276:2285   */\n      dup10\n        /* \"#utility.yul\":2272:2294   */\n      add\n        /* \"#utility.yul\":2241:2304   */\n      tag_56\n      jump\t// in\n    tag_88:\n        /* \"#utility.yul\":2231:2304   */\n      swap5\n      pop\n        /* \"#utility.yul\":2186:2314   */\n      pop\n        /* \"#utility.yul\":2353:2355   */\n      0x40\n        /* \"#utility.yul\":2379:2443   */\n      tag_89\n        /* \"#utility.yul\":2435:2442   */\n      dup9\n        /* \"#utility.yul\":2426:2432   */\n      dup3\n        /* \"#utility.yul\":2415:2424   */\n      dup10\n        /* \"#utility.yul\":2411:2433   */\n      add\n        /* \"#utility.yul\":2379:2443   */\n      tag_64\n      jump\t// in\n    tag_89:\n        /* \"#utility.yul\":2369:2443   */\n      swap4\n      pop\n        /* \"#utility.yul\":2324:2453   */\n      pop\n        /* \"#utility.yul\":2492:2494   */\n      0x60\n        /* \"#utility.yul\":2518:2582   */\n      tag_90\n        /* \"#utility.yul\":2574:2581   */\n      dup9\n        /* \"#utility.yul\":2565:2571   */\n      dup3\n        /* \"#utility.yul\":2554:2563   */\n      dup10\n        /* \"#utility.yul\":2550:2572   */\n      add\n        /* \"#utility.yul\":2518:2582   */\n      tag_64\n      jump\t// in\n    tag_90:\n        /* \"#utility.yul\":2508:2582   */\n      swap3\n      pop\n        /* \"#utility.yul\":2463:2592   */\n      pop\n        /* \"#utility.yul\":2631:2634   */\n      0x80\n        /* \"#utility.yul\":2658:2721   */\n      tag_91\n        /* \"#utility.yul\":2713:2720   */\n      dup9\n        /* \"#utility.yul\":2704:2710   */\n      dup3\n        /* \"#utility.yul\":2693:2702   */\n      dup10\n        /* \"#utility.yul\":2689:2711   */\n      add\n        /* \"#utility.yul\":2658:2721   */\n      tag_67\n      jump\t// in\n    tag_91:\n        /* \"#utility.yul\":2648:2721   */\n      swap2\n      pop\n        /* \"#utility.yul\":2602:2731   */\n      pop\n        /* \"#utility.yul\":1767:2738   */\n      swap3\n      swap6\n      pop\n      swap3\n      swap6\n      swap1\n      swap4\n      pop\n      jump\t// out\n        /* \"#utility.yul\":2744:2862   */\n    tag_92:\n        /* \"#utility.yul\":2831:2855   */\n      tag_94\n        /* \"#utility.yul\":2849:2854   */\n      dup2\n        /* \"#utility.yul\":2831:2855   */\n      tag_95\n      jump\t// in\n    tag_94:\n        /* \"#utility.yul\":2826:2829   */\n      dup3\n        /* \"#utility.yul\":2819:2856   */\n      mstore\n        /* \"#utility.yul\":2744:2862   */\n      pop\n      pop\n      jump\t// out\n        /* \"#utility.yul\":2868:3090   */\n    tag_11:\n        /* \"#utility.yul\":2961:2965   */\n      0x00\n        /* \"#utility.yul\":2999:3001   */\n      0x20\n        /* \"#utility.yul\":2988:2997   */\n      dup3\n        /* \"#utility.yul\":2984:3002   */\n      add\n        /* \"#utility.yul\":2976:3002   */\n      swap1\n      pop\n        /* \"#utility.yul\":3012:3083   */\n      tag_97\n        /* \"#utility.yul\":3080:3081   */\n      0x00\n        /* \"#utility.yul\":3069:3078   */\n      dup4\n        /* \"#utility.yul\":3065:3082   */\n      add\n        /* \"#utility.yul\":3056:3062   */\n      dup5\n        /* \"#utility.yul\":3012:3083   */\n      tag_92\n      jump\t// in\n    tag_97:\n        /* \"#utility.yul\":2868:3090   */\n      swap3\n      swap2\n      pop\n      pop\n      jump\t// out\n        /* \"#utility.yul\":3177:3482   */\n    tag_50:\n        /* \"#utility.yul\":3217:3220   */\n      0x00\n        /* \"#utility.yul\":3236:3256   */\n      tag_101\n        /* \"#utility.yul\":3254:3255   */\n      dup3\n        /* \"#utility.yul\":3236:3256   */\n      tag_95\n      jump\t// in\n    tag_101:\n        /* \"#utility.yul\":3231:3256   */\n      swap2\n      pop\n        /* \"#utility.yul\":3270:3290   */\n      tag_102\n        /* \"#utility.yul\":3288:3289   */\n      dup4\n        /* \"#utility.yul\":3270:3290   */\n      tag_95\n      jump\t// in\n    tag_102:\n        /* \"#utility.yul\":3265:3290   */\n      swap3\n      pop\n        /* \"#utility.yul\":3424:3425   */\n      dup3\n        /* \"#utility.yul\":3356:3422   */\n      0xffffffffffffffffffffffffffffffffffffffffffffffffffffffffffffffff\n        /* \"#utility.yul\":3352:3426   */\n      sub\n        /* \"#utility.yul\":3349:3350   */\n      dup3\n        /* \"#utility.yul\":3346:3427   */\n      gt\n        /* \"#utility.yul\":3343:3450   */\n      iszero\n      tag_103\n      jumpi\n        /* \"#utility.yul\":3430:3448   */\n      tag_104\n      tag_105\n      jump\t// in\n    tag_104:\n        /* \"#utility.yul\":3343:3450   */\n    tag_103:\n        /* \"#utility.yul\":3474:3475   */\n      dup3\n        /* \"#utility.yul\":3471:3472   */\n      dup3\n        /* \"#utility.yul\":3467:3476   */\n      add\n        /* \"#utility.yul\":3460:3476   */\n      swap1\n      pop\n        /* \"#utility.yul\":3177:3482   */\n      swap3\n      swap2\n      pop\n      pop\n      jump\t// out\n        /* \"#utility.yul\":3488:4479   */\n    tag_47:\n        /* \"#utility.yul\":3527:3534   */\n      0x00\n        /* \"#utility.yul\":3550:3569   */\n      tag_107\n        /* \"#utility.yul\":3567:3568   */\n      dup3\n        /* \"#utility.yul\":3550:3569   */\n      tag_108\n      jump\t// in\n    tag_107:\n        /* \"#utility.yul\":3545:3569   */\n      swap2\n      pop\n        /* \"#utility.yul\":3583:3602   */\n      tag_109\n        /* \"#utility.yul\":3600:3601   */\n      dup4\n        /* \"#utility.yul\":3583:3602   */\n      tag_108\n      jump\t// in\n    tag_109:\n        /* \"#utility.yul\":3578:3602   */\n      swap3\n      pop\n        /* \"#utility.yul\":3784:3785   */\n      dup3\n        /* \"#utility.yul\":3716:3782   */\n      0x7fffffffffffffffffffffffffffffffffffffffffffffffffffffffffffffff\n        /* \"#utility.yul\":3712:3786   */\n      div\n        /* \"#utility.yul\":3709:3710   */\n      dup3\n        /* \"#utility.yul\":3706:3787   */\n      gt\n        /* \"#utility.yul\":3701:3702   */\n      0x00\n        /* \"#utility.yul\":3698:3699   */\n      dup5\n        /* \"#utility.yul\":3694:3703   */\n      sgt\n        /* \"#utility.yul\":3690:3691   */\n      0x00\n        /* \"#utility.yul\":3687:3688   */\n      dup5\n        /* \"#utility.yul\":3683:3692   */\n      sgt\n        /* \"#utility.yul\":3679:3704   */\n      and\n        /* \"#utility.yul\":3675:3788   */\n      and\n        /* \"#utility.yul\":3672:3811   */\n      iszero\n      tag_110\n      jumpi\n        /* \"#utility.yul\":3791:3809   */\n      tag_111\n      tag_105\n      jump\t// in\n    tag_111:\n        /* \"#utility.yul\":3672:3811   */\n    tag_110:\n        /* \"#utility.yul\":3995:3996   */\n      dup2\n        /* \"#utility.yul\":3927:3993   */\n      0x8000000000000000000000000000000000000000000000000000000000000000\n        /* \"#utility.yul\":3922:3997   */\n      sdiv\n        /* \"#utility.yul\":3919:3920   */\n      dup4\n        /* \"#utility.yul\":3915:3998   */\n      slt\n        /* \"#utility.yul\":3910:3911   */\n      0x00\n        /* \"#utility.yul\":3907:3908   */\n      dup5\n        /* \"#utility.yul\":3903:3912   */\n      slt\n        /* \"#utility.yul\":3899:3900   */\n      0x00\n        /* \"#utility.yul\":3896:3897   */\n      dup5\n        /* \"#utility.yul\":3892:3901   */\n      sgt\n        /* \"#utility.yul\":3888:3913   */\n      and\n        /* \"#utility.yul\":3884:3999   */\n      and\n        /* \"#utility.yul\":3881:4022   */\n      iszero\n      tag_112\n      jumpi\n        /* \"#utility.yul\":4002:4020   */\n      tag_113\n      tag_105\n      jump\t// in\n    tag_113:\n        /* \"#utility.yul\":3881:4022   */\n    tag_112:\n        /* \"#utility.yul\":4206:4207   */\n      dup3\n        /* \"#utility.yul\":4138:4204   */\n      0x8000000000000000000000000000000000000000000000000000000000000000\n        /* \"#utility.yul\":4133:4208   */\n      sdiv\n        /* \"#utility.yul\":4130:4131   */\n      dup3\n        /* \"#utility.yul\":4126:4209   */\n      slt\n        /* \"#utility.yul\":4121:4122   */\n      0x00\n        /* \"#utility.yul\":4118:4119   */\n      dup5\n        /* \"#utility.yul\":4114:4123   */\n      sgt\n        /* \"#utility.yul\":4110:4111   */\n      0x00\n        /* \"#utility.yul\":4107:4108   */\n      dup5\n        /* \"#utility.yul\":4103:4112   */\n      slt\n        /* \"#utility.yul\":4099:4124   */\n      and\n        /* \"#utility.yul\":4095:4210   */\n      and\n        /* \"#utility.yul\":4092:4233   */\n      iszero\n      tag_114\n      jumpi\n        /* \"#utility.yul\":4213:4231   */\n      tag_115\n      tag_105\n      jump\t// in\n    tag_115:\n        /* \"#utility.yul\":4092:4233   */\n    tag_114:\n        /* \"#utility.yul\":4416:4417   */\n      dup3\n        /* \"#utility.yul\":4348:4414   */\n      0x7fffffffffffffffffffffffffffffffffffffffffffffffffffffffffffffff\n        /* \"#utility.yul\":4343:4418   */\n      sdiv\n        /* \"#utility.yul\":4340:4341   */\n      dup3\n        /* \"#utility.yul\":4336:4419   */\n      slt\n        /* \"#utility.yul\":4331:4332   */\n      0x00\n        /* \"#utility.yul\":4328:4329   */\n      dup5\n        /* \"#utility.yul\":4324:4333   */\n      slt\n        /* \"#utility.yul\":4320:4321   */\n      0x00\n        /* \"#utility.yul\":4317:4318   */\n      dup5\n        /* \"#utility.yul\":4313:4322   */\n      slt\n        /* \"#utility.yul\":4309:4334   */\n      and\n        /* \"#utility.yul\":4305:4420   */\n      and\n        /* \"#utility.yul\":4302:4443   */\n      iszero\n      tag_116\n      jumpi\n        /* \"#utility.yul\":4423:4441   */\n      tag_117\n      tag_105\n      jump\t// in\n    tag_117:\n        /* \"#utility.yul\":4302:4443   */\n    tag_116:\n        /* \"#utility.yul\":4471:4472   */\n      dup3\n        /* \"#utility.yul\":4468:4469   */\n      dup3\n        /* \"#utility.yul\":4464:4473   */\n      mul\n        /* \"#utility.yul\":4453:4473   */\n      swap1\n      pop\n        /* \"#utility.yul\":3488:4479   */\n      swap3\n      swap2\n      pop\n      pop\n      jump\t// out\n        /* \"#utility.yul\":4485:4833   */\n    tag_39:\n        /* \"#utility.yul\":4525:4532   */\n      0x00\n        /* \"#utility.yul\":4548:4568   */\n      tag_119\n        /* \"#utility.yul\":4566:4567   */\n      dup3\n        /* \"#utility.yul\":4548:4568   */\n      tag_95\n      jump\t// in\n    tag_119:\n        /* \"#utility.yul\":4543:4568   */\n      swap2\n      pop\n        /* \"#utility.yul\":4582:4602   */\n      tag_120\n        /* \"#utility.yul\":4600:4601   */\n      dup4\n        /* \"#utility.yul\":4582:4602   */\n      tag_95\n      jump\t// in\n    tag_120:\n        /* \"#utility.yul\":4577:4602   */\n      swap3\n      pop\n        /* \"#utility.yul\":4770:4771   */\n      dup2\n        /* \"#utility.yul\":4702:4768   */\n      0xffffffffffffffffffffffffffffffffffffffffffffffffffffffffffffffff\n        /* \"#utility.yul\":4698:4772   */\n      div\n        /* \"#utility.yul\":4695:4696   */\n      dup4\n        /* \"#utility.yul\":4692:4773   */\n      gt\n        /* \"#utility.yul\":4687:4688   */\n      dup3\n        /* \"#utility.yul\":4680:4689   */\n      iszero\n        /* \"#utility.yul\":4673:4690   */\n      iszero\n        /* \"#utility.yul\":4669:4774   */\n      and\n        /* \"#utility.yul\":4666:4797   */\n      iszero\n      tag_121\n      jumpi\n        /* \"#utility.yul\":4777:4795   */\n      tag_122\n      tag_105\n      jump\t// in\n    tag_122:\n        /* \"#utility.yul\":4666:4797   */\n    tag_121:\n        /* \"#utility.yul\":4825:4826   */\n      dup3\n        /* \"#utility.yul\":4822:4823   */\n      dup3\n        /* \"#utility.yul\":4818:4827   */\n      mul\n        /* \"#utility.yul\":4807:4827   */\n      swap1\n      pop\n        /* \"#utility.yul\":4485:4833   */\n      swap3\n      swap2\n      pop\n      pop\n      jump\t// out\n        /* \"#utility.yul\":4839:4935   */\n    tag_123:\n        /* \"#utility.yul\":4876:4883   */\n      0x00\n        /* \"#utility.yul\":4905:4929   */\n      tag_125\n        /* \"#utility.yul\":4923:4928   */\n      dup3\n        /* \"#utility.yul\":4905:4929   */\n      tag_126\n      jump\t// in\n    tag_125:\n        /* \"#utility.yul\":4894:4929   */\n      swap1\n      pop\n        /* \"#utility.yul\":4839:4935   */\n      swap2\n      swap1\n      pop\n      jump\t// out\n        /* \"#utility.yul\":4941:5017   */\n    tag_108:\n        /* \"#utility.yul\":4977:4984   */\n      0x00\n        /* \"#utility.yul\":5006:5011   */\n      dup2\n        /* \"#utility.yul\":4995:5011   */\n      swap1\n      pop\n        /* \"#utility.yul\":4941:5017   */\n      swap2\n      swap1\n      pop\n      jump\t// out\n        /* \"#utility.yul\":5023:5149   */\n    tag_126:\n        /* \"#utility.yul\":5060:5067   */\n      0x00\n        /* \"#utility.yul\":5100:5142   */\n      0xffffffffffffffffffffffffffffffffffffffff\n        /* \"#utility.yul\":5093:5098   */\n      dup3\n        /* \"#utility.yul\":5089:5143   */\n      and\n        /* \"#utility.yul\":5078:5143   */\n      swap1\n      pop\n        /* \"#utility.yul\":5023:5149   */\n      swap2\n      swap1\n      pop\n      jump\t// out\n        /* \"#utility.yul\":5155:5232   */\n    tag_95:\n        /* \"#utility.yul\":5192:5199   */\n      0x00\n        /* \"#utility.yul\":5221:5226   */\n      dup2\n        /* \"#utility.yul\":5210:5226   */\n      swap1\n      pop\n        /* \"#utility.yul\":5155:5232   */\n      swap2\n      swap1\n      pop\n      jump\t// out\n        /* \"#utility.yul\":5238:5343   */\n    tag_130:\n        /* \"#utility.yul\":5274:5281   */\n      0x00\n        /* \"#utility.yul\":5314:5336   */\n      0xffffffffffffffffffff\n        /* \"#utility.yul\":5307:5312   */\n      dup3\n        /* \"#utility.yul\":5303:5337   */\n      and\n        /* \"#utility.yul\":5292:5337   */\n      swap1\n      pop\n        /* \"#utility.yul\":5238:5343   */\n      swap2\n      swap1\n      pop\n      jump\t// out\n        /* \"#utility.yul\":5349:5529   */\n    tag_105:\n        /* \"#utility.yul\":5397:5474   */\n      0x4e487b7100000000000000000000000000000000000000000000000000000000\n        /* \"#utility.yul\":5394:5395   */\n      0x00\n        /* \"#utility.yul\":5387:5475   */\n      mstore\n        /* \"#utility.yul\":5494:5498   */\n      0x11\n        /* \"#utility.yul\":5491:5492   */\n      0x04\n        /* \"#utility.yul\":5484:5499   */\n      mstore\n        /* \"#utility.yul\":5518:5522   */\n      0x24\n        /* \"#utility.yul\":5515:5516   */\n      0x00\n        /* \"#utility.yul\":5508:5523   */\n      revert\n        /* \"#utility.yul\":5658:5775   */\n    tag_74:\n        /* \"#utility.yul\":5767:5768   */\n      0x00\n        /* \"#utility.yul\":5764:5765   */\n      dup1\n        /* \"#utility.yul\":5757:5769   */\n      revert\n        /* \"#utility.yul\":5781:5903   */\n    tag_55:\n        /* \"#utility.yul\":5854:5878   */\n      tag_137\n        /* \"#utility.yul\":5872:5877   */\n      dup2\n        /* \"#utility.yul\":5854:5878   */\n      tag_123\n      jump\t// in\n    tag_137:\n        /* \"#utility.yul\":5847:5852   */\n      dup2\n        /* \"#utility.yul\":5844:5879   */\n      eq\n        /* \"#utility.yul\":5834:5897   */\n      tag_138\n      jumpi\n        /* \"#utility.yul\":5893:5894   */\n      0x00\n        /* \"#utility.yul\":5890:5891   */\n      dup1\n        /* \"#utility.yul\":5883:5895   */\n      revert\n        /* \"#utility.yul\":5834:5897   */\n    tag_138:\n        /* \"#utility.yul\":5781:5903   */\n      pop\n      jump\t// out\n        /* \"#utility.yul\":5909:6029   */\n    tag_59:\n        /* \"#utility.yul\":5981:6004   */\n      tag_140\n        /* \"#utility.yul\":5998:6003   */\n      dup2\n        /* \"#utility.yul\":5981:6004   */\n      tag_108\n      jump\t// in\n    tag_140:\n        /* \"#utility.yul\":5974:5979   */\n      dup2\n        /* \"#utility.yul\":5971:6005   */\n      eq\n        /* \"#utility.yul\":5961:6023   */\n      tag_141\n      jumpi\n        /* \"#utility.yul\":6019:6020   */\n      0x00\n        /* \"#utility.yul\":6016:6017   */\n      dup1\n        /* \"#utility.yul\":6009:6021   */\n      revert\n        /* \"#utility.yul\":5961:6023   */\n    tag_141:\n        /* \"#utility.yul\":5909:6029   */\n      pop\n      jump\t// out\n        /* \"#utility.yul\":6035:6157   */\n    tag_63:\n        /* \"#utility.yul\":6108:6132   */\n      tag_143\n        /* \"#utility.yul\":6126:6131   */\n      dup2\n        /* \"#utility.yul\":6108:6132   */\n      tag_95\n      jump\t// in\n    tag_143:\n        /* \"#utility.yul\":6101:6106   */\n      dup2\n        /* \"#utility.yul\":6098:6133   */\n      eq\n        /* \"#utility.yul\":6088:6151   */\n      tag_144\n      jumpi\n        /* \"#utility.yul\":6147:6148   */\n      0x00\n        /* \"#utility.yul\":6144:6145   */\n      dup1\n        /* \"#utility.yul\":6137:6149   */\n      revert\n        /* \"#utility.yul\":6088:6151   */\n    tag_144:\n        /* \"#utility.yul\":6035:6157   */\n      pop\n      jump\t// out\n        /* \"#utility.yul\":6163:6283   */\n    tag_70:\n        /* \"#utility.yul\":6235:6258   */\n      tag_146\n        /* \"#utility.yul\":6252:6257   */\n      dup2\n        /* \"#utility.yul\":6235:6258   */\n      tag_130\n      jump\t// in\n    tag_146:\n        /* \"#utility.yul\":6228:6233   */\n      dup2\n        /* \"#utility.yul\":6225:6259   */\n      eq\n        /* \"#utility.yul\":6215:6277   */\n      tag_147\n      jumpi\n        /* \"#utility.yul\":6273:6274   */\n      0x00\n        /* \"#utility.yul\":6270:6271   */\n      dup1\n        /* \"#utility.yul\":6263:6275   */\n      revert\n        /* \"#utility.yul\":6215:6277   */\n    tag_147:\n        /* \"#utility.yul\":6163:6283   */\n      pop\n      jump\t// out\n\n    auxdata: 0xa26469706673582212203435dcddeee2857e93a20303c80f47d554e8bebaed2df389c734ea4ec361141764736f6c63430008070033\n}\n",
				"bytecode": {
					"linkReferences": {},
					"object": "608060405234801561001057600080fd5b50610790806100206000396000f3fe60806040526004361061004a5760003560e01c80630d8e6e2c1461004f5780633e47d6f31461007a5780636e5b6b28146100b757806398d5fdca146100f4578063b60d42881461011f575b600080fd5b34801561005b57600080fd5b50610064610129565b604051610071919061048c565b60405180910390f35b34801561008657600080fd5b506100a1600480360381019061009c919061037b565b6101c7565b6040516100ae919061048c565b60405180910390f35b3480156100c357600080fd5b506100de60048036038101906100d991906103a8565b6101df565b6040516100eb919061048c565b60405180910390f35b34801561010057600080fd5b50610109610203565b604051610116919061048c565b60405180910390f35b6101276102bb565b005b600080738a753747a1fa494ec906ce90e9f37563a8af630e90508073ffffffffffffffffffffffffffffffffffffffff166354fd4d506040518163ffffffff1660e01b815260040160206040518083038186803b15801561018957600080fd5b505afa15801561019d573d6000803e3d6000fd5b505050506040513d601f19601f820116820180604052508101906101c191906103d5565b91505090565b60006020528060005260406000206000915090505481565b6000806101ea610203565b9050600083826101fa9190610614565b90505050919050565b600080738a753747a1fa494ec906ce90e9f37563a8af630e905060008173ffffffffffffffffffffffffffffffffffffffff1663feaf968c6040518163ffffffff1660e01b815260040160a06040518083038186803b15801561026557600080fd5b505afa158015610279573d6000803e3d6000fd5b505050506040513d601f19601f8201168201806040525081019061029d9190610402565b5050509150506402540be400816102b491906104fd565b9250505090565b346000803373ffffffffffffffffffffffffffffffffffffffff1673ffffffffffffffffffffffffffffffffffffffff168152602001908152602001600020600082825461030991906104a7565b92505081905550565b600081359050610321816106fe565b92915050565b60008151905061033681610715565b92915050565b60008135905061034b8161072c565b92915050565b6000815190506103608161072c565b92915050565b60008151905061037581610743565b92915050565b600060208284031215610391576103906106f9565b5b600061039f84828501610312565b91505092915050565b6000602082840312156103be576103bd6106f9565b5b60006103cc8482850161033c565b91505092915050565b6000602082840312156103eb576103ea6106f9565b5b60006103f984828501610351565b91505092915050565b600080600080600060a0868803121561041e5761041d6106f9565b5b600061042c88828901610366565b955050602061043d88828901610327565b945050604061044e88828901610351565b935050606061045f88828901610351565b925050608061047088828901610366565b9150509295509295909350565b610486816106aa565b82525050565b60006020820190506104a1600083018461047d565b92915050565b60006104b2826106aa565b91506104bd836106aa565b9250827fffffffffffffffffffffffffffffffffffffffffffffffffffffffffffffffff038211156104f2576104f16106ca565b5b828201905092915050565b600061050882610680565b915061051383610680565b9250827f7fffffffffffffffffffffffffffffffffffffffffffffffffffffffffffffff0482116000841360008413161615610552576105516106ca565b5b817f8000000000000000000000000000000000000000000000000000000000000000058312600084126000841316161561058f5761058e6106ca565b5b827f800000000000000000000000000000000000000000000000000000000000000005821260008413600084121616156105cc576105cb6106ca565b5b827f7fffffffffffffffffffffffffffffffffffffffffffffffffffffffffffffff0582126000841260008412161615610609576106086106ca565b5b828202905092915050565b600061061f826106aa565b915061062a836106aa565b9250817fffffffffffffffffffffffffffffffffffffffffffffffffffffffffffffffff0483118215151615610663576106626106ca565b5b828202905092915050565b60006106798261068a565b9050919050565b6000819050919050565b600073ffffffffffffffffffffffffffffffffffffffff82169050919050565b6000819050919050565b600069ffffffffffffffffffff82169050919050565b7f4e487b7100000000000000000000000000000000000000000000000000000000600052601160045260246000fd5b600080fd5b6107078161066e565b811461071257600080fd5b50565b61071e81610680565b811461072957600080fd5b50565b610735816106aa565b811461074057600080fd5b50565b61074c816106b4565b811461075757600080fd5b5056fea26469706673582212203435dcddeee2857e93a20303c80f47d554e8bebaed2df389c734ea4ec361141764736f6c63430008070033",
					"opcodes": "PUSH1 0x80 PUSH1 0x40 MSTORE CALLVALUE DUP1 ISZERO PUSH2 0x10 JUMPI PUSH1 0x0 DUP1 REVERT JUMPDEST POP PUSH2 0x790 DUP1 PUSH2 0x20 PUSH1 0x0 CODECOPY PUSH1 0x0 RETURN INVALID PUSH1 0x80 PUSH1 0x40 MSTORE PUSH1 0x4 CALLDATASIZE LT PUSH2 0x4A JUMPI PUSH1 0x0 CALLDATALOAD PUSH1 0xE0 SHR DUP1 PUSH4 0xD8E6E2C EQ PUSH2 0x4F JUMPI DUP1 PUSH4 0x3E47D6F3 EQ PUSH2 0x7A JUMPI DUP1 PUSH4 0x6E5B6B28 EQ PUSH2 0xB7 JUMPI DUP1 PUSH4 0x98D5FDCA EQ PUSH2 0xF4 JUMPI DUP1 PUSH4 0xB60D4288 EQ PUSH2 0x11F JUMPI JUMPDEST PUSH1 0x0 DUP1 REVERT JUMPDEST CALLVALUE DUP1 ISZERO PUSH2 0x5B JUMPI PUSH1 0x0 DUP1 REVERT JUMPDEST POP PUSH2 0x64 PUSH2 0x129 JUMP JUMPDEST PUSH1 0x40 MLOAD PUSH2 0x71 SWAP2 SWAP1 PUSH2 0x48C JUMP JUMPDEST PUSH1 0x40 MLOAD DUP1 SWAP2 SUB SWAP1 RETURN JUMPDEST CALLVALUE DUP1 ISZERO PUSH2 0x86 JUMPI PUSH1 0x0 DUP1 REVERT JUMPDEST POP PUSH2 0xA1 PUSH1 0x4 DUP1 CALLDATASIZE SUB DUP2 ADD SWAP1 PUSH2 0x9C SWAP2 SWAP1 PUSH2 0x37B JUMP JUMPDEST PUSH2 0x1C7 JUMP JUMPDEST PUSH1 0x40 MLOAD PUSH2 0xAE SWAP2 SWAP1 PUSH2 0x48C JUMP JUMPDEST PUSH1 0x40 MLOAD DUP1 SWAP2 SUB SWAP1 RETURN JUMPDEST CALLVALUE DUP1 ISZERO PUSH2 0xC3 JUMPI PUSH1 0x0 DUP1 REVERT JUMPDEST POP PUSH2 0xDE PUSH1 0x4 DUP1 CALLDATASIZE SUB DUP2 ADD SWAP1 PUSH2 0xD9 SWAP2 SWAP1 PUSH2 0x3A8 JUMP JUMPDEST PUSH2 0x1DF JUMP JUMPDEST PUSH1 0x40 MLOAD PUSH2 0xEB SWAP2 SWAP1 PUSH2 0x48C JUMP JUMPDEST PUSH1 0x40 MLOAD DUP1 SWAP2 SUB SWAP1 RETURN JUMPDEST CALLVALUE DUP1 ISZERO PUSH2 0x100 JUMPI PUSH1 0x0 DUP1 REVERT JUMPDEST POP PUSH2 0x109 PUSH2 0x203 JUMP JUMPDEST PUSH1 0x40 MLOAD PUSH2 0x116 SWAP2 SWAP1 PUSH2 0x48C JUMP JUMPDEST PUSH1 0x40 MLOAD DUP1 SWAP2 SUB SWAP1 RETURN JUMPDEST PUSH2 0x127 PUSH2 0x2BB JUMP JUMPDEST STOP JUMPDEST PUSH1 0x0 DUP1 PUSH20 0x8A753747A1FA494EC906CE90E9F37563A8AF630E SWAP1 POP DUP1 PUSH20 0xFFFFFFFFFFFFFFFFFFFFFFFFFFFFFFFFFFFFFFFF AND PUSH4 0x54FD4D50 PUSH1 0x40 MLOAD DUP2 PUSH4 0xFFFFFFFF AND PUSH1 0xE0 SHL DUP2 MSTORE PUSH1 0x4 ADD PUSH1 0x20 PUSH1 0x40 MLOAD DUP1 DUP4 SUB DUP2 DUP7 DUP1 EXTCODESIZE ISZERO DUP1 ISZERO PUSH2 0x189 JUMPI PUSH1 0x0 DUP1 REVERT JUMPDEST POP GAS STATICCALL ISZERO DUP1 ISZERO PUSH2 0x19D JUMPI RETURNDATASIZE PUSH1 0x0 DUP1 RETURNDATACOPY RETURNDATASIZE PUSH1 0x0 REVERT JUMPDEST POP POP POP POP PUSH1 0x40 MLOAD RETURNDATASIZE PUSH1 0x1F NOT PUSH1 0x1F DUP3 ADD AND DUP3 ADD DUP1 PUSH1 0x40 MSTORE POP DUP2 ADD SWAP1 PUSH2 0x1C1 SWAP2 SWAP1 PUSH2 0x3D5 JUMP JUMPDEST SWAP2 POP POP SWAP1 JUMP JUMPDEST PUSH1 0x0 PUSH1 0x20 MSTORE DUP1 PUSH1 0x0 MSTORE PUSH1 0x40 PUSH1 0x0 KECCAK256 PUSH1 0x0 SWAP2 POP SWAP1 POP SLOAD DUP2 JUMP JUMPDEST PUSH1 0x0 DUP1 PUSH2 0x1EA PUSH2 0x203 JUMP JUMPDEST SWAP1 POP PUSH1 0x0 DUP4 DUP3 PUSH2 0x1FA SWAP2 SWAP1 PUSH2 0x614 JUMP JUMPDEST SWAP1 POP POP POP SWAP2 SWAP1 POP JUMP JUMPDEST PUSH1 0x0 DUP1 PUSH20 0x8A753747A1FA494EC906CE90E9F37563A8AF630E SWAP1 POP PUSH1 0x0 DUP2 PUSH20 0xFFFFFFFFFFFFFFFFFFFFFFFFFFFFFFFFFFFFFFFF AND PUSH4 0xFEAF968C PUSH1 0x40 MLOAD DUP2 PUSH4 0xFFFFFFFF AND PUSH1 0xE0 SHL DUP2 MSTORE PUSH1 0x4 ADD PUSH1 0xA0 PUSH1 0x40 MLOAD DUP1 DUP4 SUB DUP2 DUP7 DUP1 EXTCODESIZE ISZERO DUP1 ISZERO PUSH2 0x265 JUMPI PUSH1 0x0 DUP1 REVERT JUMPDEST POP GAS STATICCALL ISZERO DUP1 ISZERO PUSH2 0x279 JUMPI RETURNDATASIZE PUSH1 0x0 DUP1 RETURNDATACOPY RETURNDATASIZE PUSH1 0x0 REVERT JUMPDEST POP POP POP POP PUSH1 0x40 MLOAD RETURNDATASIZE PUSH1 0x1F NOT PUSH1 0x1F DUP3 ADD AND DUP3 ADD DUP1 PUSH1 0x40 MSTORE POP DUP2 ADD SWAP1 PUSH2 0x29D SWAP2 SWAP1 PUSH2 0x402 JUMP JUMPDEST POP POP POP SWAP2 POP POP PUSH5 0x2540BE400 DUP2 PUSH2 0x2B4 SWAP2 SWAP1 PUSH2 0x4FD JUMP JUMPDEST SWAP3 POP POP POP SWAP1 JUMP JUMPDEST CALLVALUE PUSH1 0x0 DUP1 CALLER PUSH20 0xFFFFFFFFFFFFFFFFFFFFFFFFFFFFFFFFFFFFFFFF AND PUSH20 0xFFFFFFFFFFFFFFFFFFFFFFFFFFFFFFFFFFFFFFFF AND DUP2 MSTORE PUSH1 0x20 ADD SWAP1 DUP2 MSTORE PUSH1 0x20 ADD PUSH1 0x0 KECCAK256 PUSH1 0x0 DUP3 DUP3 SLOAD PUSH2 0x309 SWAP2 SWAP1 PUSH2 0x4A7 JUMP JUMPDEST SWAP3 POP POP DUP2 SWAP1 SSTORE POP JUMP JUMPDEST PUSH1 0x0 DUP2 CALLDATALOAD SWAP1 POP PUSH2 0x321 DUP2 PUSH2 0x6FE JUMP JUMPDEST SWAP3 SWAP2 POP POP JUMP JUMPDEST PUSH1 0x0 DUP2 MLOAD SWAP1 POP PUSH2 0x336 DUP2 PUSH2 0x715 JUMP JUMPDEST SWAP3 SWAP2 POP POP JUMP JUMPDEST PUSH1 0x0 DUP2 CALLDATALOAD SWAP1 POP PUSH2 0x34B DUP2 PUSH2 0x72C JUMP JUMPDEST SWAP3 SWAP2 POP POP JUMP JUMPDEST PUSH1 0x0 DUP2 MLOAD SWAP1 POP PUSH2 0x360 DUP2 PUSH2 0x72C JUMP JUMPDEST SWAP3 SWAP2 POP POP JUMP JUMPDEST PUSH1 0x0 DUP2 MLOAD SWAP1 POP PUSH2 0x375 DUP2 PUSH2 0x743 JUMP JUMPDEST SWAP3 SWAP2 POP POP JUMP JUMPDEST PUSH1 0x0 PUSH1 0x20 DUP3 DUP5 SUB SLT ISZERO PUSH2 0x391 JUMPI PUSH2 0x390 PUSH2 0x6F9 JUMP JUMPDEST JUMPDEST PUSH1 0x0 PUSH2 0x39F DUP5 DUP3 DUP6 ADD PUSH2 0x312 JUMP JUMPDEST SWAP2 POP POP SWAP3 SWAP2 POP POP JUMP JUMPDEST PUSH1 0x0 PUSH1 0x20 DUP3 DUP5 SUB SLT ISZERO PUSH2 0x3BE JUMPI PUSH2 0x3BD PUSH2 0x6F9 JUMP JUMPDEST JUMPDEST PUSH1 0x0 PUSH2 0x3CC DUP5 DUP3 DUP6 ADD PUSH2 0x33C JUMP JUMPDEST SWAP2 POP POP SWAP3 SWAP2 POP POP JUMP JUMPDEST PUSH1 0x0 PUSH1 0x20 DUP3 DUP5 SUB SLT ISZERO PUSH2 0x3EB JUMPI PUSH2 0x3EA PUSH2 0x6F9 JUMP JUMPDEST JUMPDEST PUSH1 0x0 PUSH2 0x3F9 DUP5 DUP3 DUP6 ADD PUSH2 0x351 JUMP JUMPDEST SWAP2 POP POP SWAP3 SWAP2 POP POP JUMP JUMPDEST PUSH1 0x0 DUP1 PUSH1 0x0 DUP1 PUSH1 0x0 PUSH1 0xA0 DUP7 DUP9 SUB SLT ISZERO PUSH2 0x41E JUMPI PUSH2 0x41D PUSH2 0x6F9 JUMP JUMPDEST JUMPDEST PUSH1 0x0 PUSH2 0x42C DUP9 DUP3 DUP10 ADD PUSH2 0x366 JUMP JUMPDEST SWAP6 POP POP PUSH1 0x20 PUSH2 0x43D DUP9 DUP3 DUP10 ADD PUSH2 0x327 JUMP JUMPDEST SWAP5 POP POP PUSH1 0x40 PUSH2 0x44E DUP9 DUP3 DUP10 ADD PUSH2 0x351 JUMP JUMPDEST SWAP4 POP POP PUSH1 0x60 PUSH2 0x45F DUP9 DUP3 DUP10 ADD PUSH2 0x351 JUMP JUMPDEST SWAP3 POP POP PUSH1 0x80 PUSH2 0x470 DUP9 DUP3 DUP10 ADD PUSH2 0x366 JUMP JUMPDEST SWAP2 POP POP SWAP3 SWAP6 POP SWAP3 SWAP6 SWAP1 SWAP4 POP JUMP JUMPDEST PUSH2 0x486 DUP2 PUSH2 0x6AA JUMP JUMPDEST DUP3 MSTORE POP POP JUMP JUMPDEST PUSH1 0x0 PUSH1 0x20 DUP3 ADD SWAP1 POP PUSH2 0x4A1 PUSH1 0x0 DUP4 ADD DUP5 PUSH2 0x47D JUMP JUMPDEST SWAP3 SWAP2 POP POP JUMP JUMPDEST PUSH1 0x0 PUSH2 0x4B2 DUP3 PUSH2 0x6AA JUMP JUMPDEST SWAP2 POP PUSH2 0x4BD DUP4 PUSH2 0x6AA JUMP JUMPDEST SWAP3 POP DUP3 PUSH32 0xFFFFFFFFFFFFFFFFFFFFFFFFFFFFFFFFFFFFFFFFFFFFFFFFFFFFFFFFFFFFFFFF SUB DUP3 GT ISZERO PUSH2 0x4F2 JUMPI PUSH2 0x4F1 PUSH2 0x6CA JUMP JUMPDEST JUMPDEST DUP3 DUP3 ADD SWAP1 POP SWAP3 SWAP2 POP POP JUMP JUMPDEST PUSH1 0x0 PUSH2 0x508 DUP3 PUSH2 0x680 JUMP JUMPDEST SWAP2 POP PUSH2 0x513 DUP4 PUSH2 0x680 JUMP JUMPDEST SWAP3 POP DUP3 PUSH32 0x7FFFFFFFFFFFFFFFFFFFFFFFFFFFFFFFFFFFFFFFFFFFFFFFFFFFFFFFFFFFFFFF DIV DUP3 GT PUSH1 0x0 DUP5 SGT PUSH1 0x0 DUP5 SGT AND AND ISZERO PUSH2 0x552 JUMPI PUSH2 0x551 PUSH2 0x6CA JUMP JUMPDEST JUMPDEST DUP2 PUSH32 0x8000000000000000000000000000000000000000000000000000000000000000 SDIV DUP4 SLT PUSH1 0x0 DUP5 SLT PUSH1 0x0 DUP5 SGT AND AND ISZERO PUSH2 0x58F JUMPI PUSH2 0x58E PUSH2 0x6CA JUMP JUMPDEST JUMPDEST DUP3 PUSH32 0x8000000000000000000000000000000000000000000000000000000000000000 SDIV DUP3 SLT PUSH1 0x0 DUP5 SGT PUSH1 0x0 DUP5 SLT AND AND ISZERO PUSH2 0x5CC JUMPI PUSH2 0x5CB PUSH2 0x6CA JUMP JUMPDEST JUMPDEST DUP3 PUSH32 0x7FFFFFFFFFFFFFFFFFFFFFFFFFFFFFFFFFFFFFFFFFFFFFFFFFFFFFFFFFFFFFFF SDIV DUP3 SLT PUSH1 0x0 DUP5 SLT PUSH1 0x0 DUP5 SLT AND AND ISZERO PUSH2 0x609 JUMPI PUSH2 0x608 PUSH2 0x6CA JUMP JUMPDEST JUMPDEST DUP3 DUP3 MUL SWAP1 POP SWAP3 SWAP2 POP POP JUMP JUMPDEST PUSH1 0x0 PUSH2 0x61F DUP3 PUSH2 0x6AA JUMP JUMPDEST SWAP2 POP PUSH2 0x62A DUP4 PUSH2 0x6AA JUMP JUMPDEST SWAP3 POP DUP2 PUSH32 0xFFFFFFFFFFFFFFFFFFFFFFFFFFFFFFFFFFFFFFFFFFFFFFFFFFFFFFFFFFFFFFFF DIV DUP4 GT DUP3 ISZERO ISZERO AND ISZERO PUSH2 0x663 JUMPI PUSH2 0x662 PUSH2 0x6CA JUMP JUMPDEST JUMPDEST DUP3 DUP3 MUL SWAP1 POP SWAP3 SWAP2 POP POP JUMP JUMPDEST PUSH1 0x0 PUSH2 0x679 DUP3 PUSH2 0x68A JUMP JUMPDEST SWAP1 POP SWAP2 SWAP1 POP JUMP JUMPDEST PUSH1 0x0 DUP2 SWAP1 POP SWAP2 SWAP1 POP JUMP JUMPDEST PUSH1 0x0 PUSH20 0xFFFFFFFFFFFFFFFFFFFFFFFFFFFFFFFFFFFFFFFF DUP3 AND SWAP1 POP SWAP2 SWAP1 POP JUMP JUMPDEST PUSH1 0x0 DUP2 SWAP1 POP SWAP2 SWAP1 POP JUMP JUMPDEST PUSH1 0x0 PUSH10 0xFFFFFFFFFFFFFFFFFFFF DUP3 AND SWAP1 POP SWAP2 SWAP1 POP JUMP JUMPDEST PUSH32 0x4E487B7100000000000000000000000000000000000000000000000000000000 PUSH1 0x0 MSTORE PUSH1 0x11 PUSH1 0x4 MSTORE PUSH1 0x24 PUSH1 0x0 REVERT JUMPDEST PUSH1 0x0 DUP1 REVERT JUMPDEST PUSH2 0x707 DUP2 PUSH2 0x66E JUMP JUMPDEST DUP2 EQ PUSH2 0x712 JUMPI PUSH1 0x0 DUP1 REVERT JUMPDEST POP JUMP JUMPDEST PUSH2 0x71E DUP2 PUSH2 0x680 JUMP JUMPDEST DUP2 EQ PUSH2 0x729 JUMPI PUSH1 0x0 DUP1 REVERT JUMPDEST POP JUMP JUMPDEST PUSH2 0x735 DUP2 PUSH2 0x6AA JUMP JUMPDEST DUP2 EQ PUSH2 0x740 JUMPI PUSH1 0x0 DUP1 REVERT JUMPDEST POP JUMP JUMPDEST PUSH2 0x74C DUP2 PUSH2 0x6B4 JUMP JUMPDEST DUP2 EQ PUSH2 0x757 JUMPI PUSH1 0x0 DUP1 REVERT JUMPDEST POP JUMP INVALID LOG2 PUSH5 0x6970667358 0x22 SLT KECCAK256 CALLVALUE CALLDATALOAD 0xDC 0xDD 0xEE 0xE2 DUP6 PUSH31 0x93A20303C80F47D554E8BEBAED2DF389C734EA4EC361141764736F6C634300 ADDMOD SMOD STOP CALLER "
				},
				"gasEstimates": {
					"creation": {
						"codeDepositCost": "387200",
						"executionCost": "424",
						"totalCost": "387624"
					},
					"external": {
						"addressToAmountFunded(address)": "2814",
						"fund()": "infinite",
						"getConversionRate(uint256)": "infinite",
						"getPrice()": "infinite",
						"getVersion()": "infinite"
					}
				},
				"methodIdentifiers": {
					"addressToAmountFunded(address)": "3e47d6f3",
					"fund()": "b60d4288",
					"getConversionRate(uint256)": "6e5b6b28",
					"getPrice()": "98d5fdca",
					"getVersion()": "0d8e6e2c"
				}
			},
			"storageLayout": {
				"storage": [
					{
						"astId": 52,
						"contract": "contracts/FundMe.sol:FundMe",
						"label": "addressToAmountFunded",
						"offset": 0,
						"slot": "0",
						"type": "t_mapping(t_address,t_uint256)"
					}
				],
				"types": {
					"t_address": {
						"encoding": "inplace",
						"label": "address",
						"numberOfBytes": "20"
					},
					"t_mapping(t_address,t_uint256)": {
						"encoding": "mapping",
						"key": "t_address",
						"label": "mapping(address => uint256)",
						"numberOfBytes": "32",
						"value": "t_uint256"
					},
					"t_uint256": {
						"encoding": "inplace",
						"label": "uint256",
						"numberOfBytes": "32"
					}
				}
			},
			"userdoc": {
				"kind": "user",
				"methods": {},
				"version": 1
			}
		}
	}
}