{
	"data": {
		"bytecode": {
			"linkReferences": {},
			"object": "608060405234801561001057600080fd5b5033600160006101000a81548173ffffffffffffffffffffffffffffffffffffffff021916908373ffffffffffffffffffffffffffffffffffffffff160217905550610a2b806100616000396000f3fe6080604052600436106100705760003560e01c80636e5b6b281161004e5780636e5b6b28146100e75780638da5cb5b1461012457806398d5fdca1461014f578063b60d42881461017a57610070565b80630d8e6e2c146100755780633ccfd60b146100a05780633e47d6f3146100aa575b600080fd5b34801561008157600080fd5b5061008a610184565b604051610097919061068d565b60405180910390f35b6100a8610222565b005b3480156100b657600080fd5b506100d160048036038101906100cc919061050f565b6102c5565b6040516100de919061068d565b60405180910390f35b3480156100f357600080fd5b5061010e6004803603810190610109919061053c565b6102dd565b60405161011b919061068d565b60405180910390f35b34801561013057600080fd5b50610139610317565b6040516101469190610652565b60405180910390f35b34801561015b57600080fd5b5061016461033d565b604051610171919061068d565b60405180910390f35b6101826103f5565b005b600080738a753747a1fa494ec906ce90e9f37563a8af630e90508073ffffffffffffffffffffffffffffffffffffffff166354fd4d506040518163ffffffff1660e01b815260040160206040518083038186803b1580156101e457600080fd5b505afa1580156101f8573d6000803e3d6000fd5b505050506040513d601f19601f8201168201806040525081019061021c9190610569565b91505090565b600160009054906101000a900473ffffffffffffffffffffffffffffffffffffffff1673ffffffffffffffffffffffffffffffffffffffff163373ffffffffffffffffffffffffffffffffffffffff161461027c57600080fd5b3373ffffffffffffffffffffffffffffffffffffffff166108fc479081150290604051600060405180830381858888f193505050501580156102c2573d6000803e3d6000fd5b50565b60006020528060005260406000206000915090505481565b6000806102e861033d565b90506000670de0b6b3a764000084836103019190610857565b61030b919061070f565b90508092505050919050565b600160009054906101000a900473ffffffffffffffffffffffffffffffffffffffff1681565b600080738a753747a1fa494ec906ce90e9f37563a8af630e905060008173ffffffffffffffffffffffffffffffffffffffff1663feaf968c6040518163ffffffff1660e01b815260040160a06040518083038186803b15801561039f57600080fd5b505afa1580156103b3573d6000803e3d6000fd5b505050506040513d601f19601f820116820180604052508101906103d79190610596565b5050509150506402540be400816103ee9190610740565b9250505090565b60006802b5e3af16b188000090508061040d346102dd565b101561044e576040517f08c379a00000000000000000000000000000000000000000000000000000000081526004016104459061066d565b60405180910390fd5b346000803373ffffffffffffffffffffffffffffffffffffffff1673ffffffffffffffffffffffffffffffffffffffff168152602001908152602001600020600082825461049c91906106b9565b9250508190555050565b6000813590506104b581610999565b92915050565b6000815190506104ca816109b0565b92915050565b6000813590506104df816109c7565b92915050565b6000815190506104f4816109c7565b92915050565b600081519050610509816109de565b92915050565b6000602082840312156105255761052461096b565b5b6000610533848285016104a6565b91505092915050565b6000602082840312156105525761055161096b565b5b6000610560848285016104d0565b91505092915050565b60006020828403121561057f5761057e61096b565b5b600061058d848285016104e5565b91505092915050565b600080600080600060a086880312156105b2576105b161096b565b5b60006105c0888289016104fa565b95505060206105d1888289016104bb565b94505060406105e2888289016104e5565b93505060606105f3888289016104e5565b9250506080610604888289016104fa565b9150509295509295909350565b61061a816108b1565b82525050565b600061062d601b836106a8565b915061063882610970565b602082019050919050565b61064c816108ed565b82525050565b60006020820190506106676000830184610611565b92915050565b6000602082019050818103600083015261068681610620565b9050919050565b60006020820190506106a26000830184610643565b92915050565b600082825260208201905092915050565b60006106c4826108ed565b91506106cf836108ed565b9250827fffffffffffffffffffffffffffffffffffffffffffffffffffffffffffffffff038211156107045761070361090d565b5b828201905092915050565b600061071a826108ed565b9150610725836108ed565b9250826107355761073461093c565b5b828204905092915050565b600061074b826108c3565b9150610756836108c3565b9250827f7fffffffffffffffffffffffffffffffffffffffffffffffffffffffffffffff04821160008413600084131616156107955761079461090d565b5b817f800000000000000000000000000000000000000000000000000000000000000005831260008412600084131616156107d2576107d161090d565b5b827f8000000000000000000000000000000000000000000000000000000000000000058212600084136000841216161561080f5761080e61090d565b5b827f7fffffffffffffffffffffffffffffffffffffffffffffffffffffffffffffff058212600084126000841216161561084c5761084b61090d565b5b828202905092915050565b6000610862826108ed565b915061086d836108ed565b9250817fffffffffffffffffffffffffffffffffffffffffffffffffffffffffffffffff04831182151516156108a6576108a561090d565b5b828202905092915050565b60006108bc826108cd565b9050919050565b6000819050919050565b600073ffffffffffffffffffffffffffffffffffffffff82169050919050565b6000819050919050565b600069ffffffffffffffffffff82169050919050565b7f4e487b7100000000000000000000000000000000000000000000000000000000600052601160045260246000fd5b7f4e487b7100000000000000000000000000000000000000000000000000000000600052601260045260246000fd5b600080fd5b7f596f75206e65656420746f207370656e64206d6f726520455448210000000000600082015250565b6109a2816108b1565b81146109ad57600080fd5b50565b6109b9816108c3565b81146109c457600080fd5b50565b6109d0816108ed565b81146109db57600080fd5b50565b6109e7816108f7565b81146109f257600080fd5b5056fea26469706673582212205676cd689a8fab8434df98aafb87545489781b07ac16ac6029f9460f223c522864736f6c63430008070033",
			"opcodes": "PUSH1 0x80 PUSH1 0x40 MSTORE CALLVALUE DUP1 ISZERO PUSH2 0x10 JUMPI PUSH1 0x0 DUP1 REVERT JUMPDEST POP CALLER PUSH1 0x1 PUSH1 0x0 PUSH2 0x100 EXP DUP2 SLOAD DUP2 PUSH20 0xFFFFFFFFFFFFFFFFFFFFFFFFFFFFFFFFFFFFFFFF MUL NOT AND SWAP1 DUP4 PUSH20 0xFFFFFFFFFFFFFFFFFFFFFFFFFFFFFFFFFFFFFFFF AND MUL OR SWAP1 SSTORE POP PUSH2 0xA2B DUP1 PUSH2 0x61 PUSH1 0x0 CODECOPY PUSH1 0x0 RETURN INVALID PUSH1 0x80 PUSH1 0x40 MSTORE PUSH1 0x4 CALLDATASIZE LT PUSH2 0x70 JUMPI PUSH1 0x0 CALLDATALOAD PUSH1 0xE0 SHR DUP1 PUSH4 0x6E5B6B28 GT PUSH2 0x4E JUMPI DUP1 PUSH4 0x6E5B6B28 EQ PUSH2 0xE7 JUMPI DUP1 PUSH4 0x8DA5CB5B EQ PUSH2 0x124 JUMPI DUP1 PUSH4 0x98D5FDCA EQ PUSH2 0x14F JUMPI DUP1 PUSH4 0xB60D4288 EQ PUSH2 0x17A JUMPI PUSH2 0x70 JUMP JUMPDEST DUP1 PUSH4 0xD8E6E2C EQ PUSH2 0x75 JUMPI DUP1 PUSH4 0x3CCFD60B EQ PUSH2 0xA0 JUMPI DUP1 PUSH4 0x3E47D6F3 EQ PUSH2 0xAA JUMPI JUMPDEST PUSH1 0x0 DUP1 REVERT JUMPDEST CALLVALUE DUP1 ISZERO PUSH2 0x81 JUMPI PUSH1 0x0 DUP1 REVERT JUMPDEST POP PUSH2 0x8A PUSH2 0x184 JUMP JUMPDEST PUSH1 0x40 MLOAD PUSH2 0x97 SWAP2 SWAP1 PUSH2 0x68D JUMP JUMPDEST PUSH1 0x40 MLOAD DUP1 SWAP2 SUB SWAP1 RETURN JUMPDEST PUSH2 0xA8 PUSH2 0x222 JUMP JUMPDEST STOP JUMPDEST CALLVALUE DUP1 ISZERO PUSH2 0xB6 JUMPI PUSH1 0x0 DUP1 REVERT JUMPDEST POP PUSH2 0xD1 PUSH1 0x4 DUP1 CALLDATASIZE SUB DUP2 ADD SWAP1 PUSH2 0xCC SWAP2 SWAP1 PUSH2 0x50F JUMP JUMPDEST PUSH2 0x2C5 JUMP JUMPDEST PUSH1 0x40 MLOAD PUSH2 0xDE SWAP2 SWAP1 PUSH2 0x68D JUMP JUMPDEST PUSH1 0x40 MLOAD DUP1 SWAP2 SUB SWAP1 RETURN JUMPDEST CALLVALUE DUP1 ISZERO PUSH2 0xF3 JUMPI PUSH1 0x0 DUP1 REVERT JUMPDEST POP PUSH2 0x10E PUSH1 0x4 DUP1 CALLDATASIZE SUB DUP2 ADD SWAP1 PUSH2 0x109 SWAP2 SWAP1 PUSH2 0x53C JUMP JUMPDEST PUSH2 0x2DD JUMP JUMPDEST PUSH1 0x40 MLOAD PUSH2 0x11B SWAP2 SWAP1 PUSH2 0x68D JUMP JUMPDEST PUSH1 0x40 MLOAD DUP1 SWAP2 SUB SWAP1 RETURN JUMPDEST CALLVALUE DUP1 ISZERO PUSH2 0x130 JUMPI PUSH1 0x0 DUP1 REVERT JUMPDEST POP PUSH2 0x139 PUSH2 0x317 JUMP JUMPDEST PUSH1 0x40 MLOAD PUSH2 0x146 SWAP2 SWAP1 PUSH2 0x652 JUMP JUMPDEST PUSH1 0x40 MLOAD DUP1 SWAP2 SUB SWAP1 RETURN JUMPDEST CALLVALUE DUP1 ISZERO PUSH2 0x15B JUMPI PUSH1 0x0 DUP1 REVERT JUMPDEST POP PUSH2 0x164 PUSH2 0x33D JUMP JUMPDEST PUSH1 0x40 MLOAD PUSH2 0x171 SWAP2 SWAP1 PUSH2 0x68D JUMP JUMPDEST PUSH1 0x40 MLOAD DUP1 SWAP2 SUB SWAP1 RETURN JUMPDEST PUSH2 0x182 PUSH2 0x3F5 JUMP JUMPDEST STOP JUMPDEST PUSH1 0x0 DUP1 PUSH20 0x8A753747A1FA494EC906CE90E9F37563A8AF630E SWAP1 POP DUP1 PUSH20 0xFFFFFFFFFFFFFFFFFFFFFFFFFFFFFFFFFFFFFFFF AND PUSH4 0x54FD4D50 PUSH1 0x40 MLOAD DUP2 PUSH4 0xFFFFFFFF AND PUSH1 0xE0 SHL DUP2 MSTORE PUSH1 0x4 ADD PUSH1 0x20 PUSH1 0x40 MLOAD DUP1 DUP4 SUB DUP2 DUP7 DUP1 EXTCODESIZE ISZERO DUP1 ISZERO PUSH2 0x1E4 JUMPI PUSH1 0x0 DUP1 REVERT JUMPDEST POP GAS STATICCALL ISZERO DUP1 ISZERO PUSH2 0x1F8 JUMPI RETURNDATASIZE PUSH1 0x0 DUP1 RETURNDATACOPY RETURNDATASIZE PUSH1 0x0 REVERT JUMPDEST POP POP POP POP PUSH1 0x40 MLOAD RETURNDATASIZE PUSH1 0x1F NOT PUSH1 0x1F DUP3 ADD AND DUP3 ADD DUP1 PUSH1 0x40 MSTORE POP DUP2 ADD SWAP1 PUSH2 0x21C SWAP2 SWAP1 PUSH2 0x569 JUMP JUMPDEST SWAP2 POP POP SWAP1 JUMP JUMPDEST PUSH1 0x1 PUSH1 0x0 SWAP1 SLOAD SWAP1 PUSH2 0x100 EXP SWAP1 DIV PUSH20 0xFFFFFFFFFFFFFFFFFFFFFFFFFFFFFFFFFFFFFFFF AND PUSH20 0xFFFFFFFFFFFFFFFFFFFFFFFFFFFFFFFFFFFFFFFF AND CALLER PUSH20 0xFFFFFFFFFFFFFFFFFFFFFFFFFFFFFFFFFFFFFFFF AND EQ PUSH2 0x27C JUMPI PUSH1 0x0 DUP1 REVERT JUMPDEST CALLER PUSH20 0xFFFFFFFFFFFFFFFFFFFFFFFFFFFFFFFFFFFFFFFF AND PUSH2 0x8FC SELFBALANCE SWAP1 DUP2 ISZERO MUL SWAP1 PUSH1 0x40 MLOAD PUSH1 0x0 PUSH1 0x40 MLOAD DUP1 DUP4 SUB DUP2 DUP6 DUP9 DUP9 CALL SWAP4 POP POP POP POP ISZERO DUP1 ISZERO PUSH2 0x2C2 JUMPI RETURNDATASIZE PUSH1 0x0 DUP1 RETURNDATACOPY RETURNDATASIZE PUSH1 0x0 REVERT JUMPDEST POP JUMP JUMPDEST PUSH1 0x0 PUSH1 0x20 MSTORE DUP1 PUSH1 0x0 MSTORE PUSH1 0x40 PUSH1 0x0 KECCAK256 PUSH1 0x0 SWAP2 POP SWAP1 POP SLOAD DUP2 JUMP JUMPDEST PUSH1 0x0 DUP1 PUSH2 0x2E8 PUSH2 0x33D JUMP JUMPDEST SWAP1 POP PUSH1 0x0 PUSH8 0xDE0B6B3A7640000 DUP5 DUP4 PUSH2 0x301 SWAP2 SWAP1 PUSH2 0x857 JUMP JUMPDEST PUSH2 0x30B SWAP2 SWAP1 PUSH2 0x70F JUMP JUMPDEST SWAP1 POP DUP1 SWAP3 POP POP POP SWAP2 SWAP1 POP JUMP JUMPDEST PUSH1 0x1 PUSH1 0x0 SWAP1 SLOAD SWAP1 PUSH2 0x100 EXP SWAP1 DIV PUSH20 0xFFFFFFFFFFFFFFFFFFFFFFFFFFFFFFFFFFFFFFFF AND DUP2 JUMP JUMPDEST PUSH1 0x0 DUP1 PUSH20 0x8A753747A1FA494EC906CE90E9F37563A8AF630E SWAP1 POP PUSH1 0x0 DUP2 PUSH20 0xFFFFFFFFFFFFFFFFFFFFFFFFFFFFFFFFFFFFFFFF AND PUSH4 0xFEAF968C PUSH1 0x40 MLOAD DUP2 PUSH4 0xFFFFFFFF AND PUSH1 0xE0 SHL DUP2 MSTORE PUSH1 0x4 ADD PUSH1 0xA0 PUSH1 0x40 MLOAD DUP1 DUP4 SUB DUP2 DUP7 DUP1 EXTCODESIZE ISZERO DUP1 ISZERO PUSH2 0x39F JUMPI PUSH1 0x0 DUP1 REVERT JUMPDEST POP GAS STATICCALL ISZERO DUP1 ISZERO PUSH2 0x3B3 JUMPI RETURNDATASIZE PUSH1 0x0 DUP1 RETURNDATACOPY RETURNDATASIZE PUSH1 0x0 REVERT JUMPDEST POP POP POP POP PUSH1 0x40 MLOAD RETURNDATASIZE PUSH1 0x1F NOT PUSH1 0x1F DUP3 ADD AND DUP3 ADD DUP1 PUSH1 0x40 MSTORE POP DUP2 ADD SWAP1 PUSH2 0x3D7 SWAP2 SWAP1 PUSH2 0x596 JUMP JUMPDEST POP POP POP SWAP2 POP POP PUSH5 0x2540BE400 DUP2 PUSH2 0x3EE SWAP2 SWAP1 PUSH2 0x740 JUMP JUMPDEST SWAP3 POP POP POP SWAP1 JUMP JUMPDEST PUSH1 0x0 PUSH9 0x2B5E3AF16B1880000 SWAP1 POP DUP1 PUSH2 0x40D CALLVALUE PUSH2 0x2DD JUMP JUMPDEST LT ISZERO PUSH2 0x44E JUMPI PUSH1 0x40 MLOAD PUSH32 0x8C379A000000000000000000000000000000000000000000000000000000000 DUP2 MSTORE PUSH1 0x4 ADD PUSH2 0x445 SWAP1 PUSH2 0x66D JUMP JUMPDEST PUSH1 0x40 MLOAD DUP1 SWAP2 SUB SWAP1 REVERT JUMPDEST CALLVALUE PUSH1 0x0 DUP1 CALLER PUSH20 0xFFFFFFFFFFFFFFFFFFFFFFFFFFFFFFFFFFFFFFFF AND PUSH20 0xFFFFFFFFFFFFFFFFFFFFFFFFFFFFFFFFFFFFFFFF AND DUP2 MSTORE PUSH1 0x20 ADD SWAP1 DUP2 MSTORE PUSH1 0x20 ADD PUSH1 0x0 KECCAK256 PUSH1 0x0 DUP3 DUP3 SLOAD PUSH2 0x49C SWAP2 SWAP1 PUSH2 0x6B9 JUMP JUMPDEST SWAP3 POP POP DUP2 SWAP1 SSTORE POP POP JUMP JUMPDEST PUSH1 0x0 DUP2 CALLDATALOAD SWAP1 POP PUSH2 0x4B5 DUP2 PUSH2 0x999 JUMP JUMPDEST SWAP3 SWAP2 POP POP JUMP JUMPDEST PUSH1 0x0 DUP2 MLOAD SWAP1 POP PUSH2 0x4CA DUP2 PUSH2 0x9B0 JUMP JUMPDEST SWAP3 SWAP2 POP POP JUMP JUMPDEST PUSH1 0x0 DUP2 CALLDATALOAD SWAP1 POP PUSH2 0x4DF DUP2 PUSH2 0x9C7 JUMP JUMPDEST SWAP3 SWAP2 POP POP JUMP JUMPDEST PUSH1 0x0 DUP2 MLOAD SWAP1 POP PUSH2 0x4F4 DUP2 PUSH2 0x9C7 JUMP JUMPDEST SWAP3 SWAP2 POP POP JUMP JUMPDEST PUSH1 0x0 DUP2 MLOAD SWAP1 POP PUSH2 0x509 DUP2 PUSH2 0x9DE JUMP JUMPDEST SWAP3 SWAP2 POP POP JUMP JUMPDEST PUSH1 0x0 PUSH1 0x20 DUP3 DUP5 SUB SLT ISZERO PUSH2 0x525 JUMPI PUSH2 0x524 PUSH2 0x96B JUMP JUMPDEST JUMPDEST PUSH1 0x0 PUSH2 0x533 DUP5 DUP3 DUP6 ADD PUSH2 0x4A6 JUMP JUMPDEST SWAP2 POP POP SWAP3 SWAP2 POP POP JUMP JUMPDEST PUSH1 0x0 PUSH1 0x20 DUP3 DUP5 SUB SLT ISZERO PUSH2 0x552 JUMPI PUSH2 0x551 PUSH2 0x96B JUMP JUMPDEST JUMPDEST PUSH1 0x0 PUSH2 0x560 DUP5 DUP3 DUP6 ADD PUSH2 0x4D0 JUMP JUMPDEST SWAP2 POP POP SWAP3 SWAP2 POP POP JUMP JUMPDEST PUSH1 0x0 PUSH1 0x20 DUP3 DUP5 SUB SLT ISZERO PUSH2 0x57F JUMPI PUSH2 0x57E PUSH2 0x96B JUMP JUMPDEST JUMPDEST PUSH1 0x0 PUSH2 0x58D DUP5 DUP3 DUP6 ADD PUSH2 0x4E5 JUMP JUMPDEST SWAP2 POP POP SWAP3 SWAP2 POP POP JUMP JUMPDEST PUSH1 0x0 DUP1 PUSH1 0x0 DUP1 PUSH1 0x0 PUSH1 0xA0 DUP7 DUP9 SUB SLT ISZERO PUSH2 0x5B2 JUMPI PUSH2 0x5B1 PUSH2 0x96B JUMP JUMPDEST JUMPDEST PUSH1 0x0 PUSH2 0x5C0 DUP9 DUP3 DUP10 ADD PUSH2 0x4FA JUMP JUMPDEST SWAP6 POP POP PUSH1 0x20 PUSH2 0x5D1 DUP9 DUP3 DUP10 ADD PUSH2 0x4BB JUMP JUMPDEST SWAP5 POP POP PUSH1 0x40 PUSH2 0x5E2 DUP9 DUP3 DUP10 ADD PUSH2 0x4E5 JUMP JUMPDEST SWAP4 POP POP PUSH1 0x60 PUSH2 0x5F3 DUP9 DUP3 DUP10 ADD PUSH2 0x4E5 JUMP JUMPDEST SWAP3 POP POP PUSH1 0x80 PUSH2 0x604 DUP9 DUP3 DUP10 ADD PUSH2 0x4FA JUMP JUMPDEST SWAP2 POP POP SWAP3 SWAP6 POP SWAP3 SWAP6 SWAP1 SWAP4 POP JUMP JUMPDEST PUSH2 0x61A DUP2 PUSH2 0x8B1 JUMP JUMPDEST DUP3 MSTORE POP POP JUMP JUMPDEST PUSH1 0x0 PUSH2 0x62D PUSH1 0x1B DUP4 PUSH2 0x6A8 JUMP JUMPDEST SWAP2 POP PUSH2 0x638 DUP3 PUSH2 0x970 JUMP JUMPDEST PUSH1 0x20 DUP3 ADD SWAP1 POP SWAP2 SWAP1 POP JUMP JUMPDEST PUSH2 0x64C DUP2 PUSH2 0x8ED JUMP JUMPDEST DUP3 MSTORE POP POP JUMP JUMPDEST PUSH1 0x0 PUSH1 0x20 DUP3 ADD SWAP1 POP PUSH2 0x667 PUSH1 0x0 DUP4 ADD DUP5 PUSH2 0x611 JUMP JUMPDEST SWAP3 SWAP2 POP POP JUMP JUMPDEST PUSH1 0x0 PUSH1 0x20 DUP3 ADD SWAP1 POP DUP2 DUP2 SUB PUSH1 0x0 DUP4 ADD MSTORE PUSH2 0x686 DUP2 PUSH2 0x620 JUMP JUMPDEST SWAP1 POP SWAP2 SWAP1 POP JUMP JUMPDEST PUSH1 0x0 PUSH1 0x20 DUP3 ADD SWAP1 POP PUSH2 0x6A2 PUSH1 0x0 DUP4 ADD DUP5 PUSH2 0x643 JUMP JUMPDEST SWAP3 SWAP2 POP POP JUMP JUMPDEST PUSH1 0x0 DUP3 DUP3 MSTORE PUSH1 0x20 DUP3 ADD SWAP1 POP SWAP3 SWAP2 POP POP JUMP JUMPDEST PUSH1 0x0 PUSH2 0x6C4 DUP3 PUSH2 0x8ED JUMP JUMPDEST SWAP2 POP PUSH2 0x6CF DUP4 PUSH2 0x8ED JUMP JUMPDEST SWAP3 POP DUP3 PUSH32 0xFFFFFFFFFFFFFFFFFFFFFFFFFFFFFFFFFFFFFFFFFFFFFFFFFFFFFFFFFFFFFFFF SUB DUP3 GT ISZERO PUSH2 0x704 JUMPI PUSH2 0x703 PUSH2 0x90D JUMP JUMPDEST JUMPDEST DUP3 DUP3 ADD SWAP1 POP SWAP3 SWAP2 POP POP JUMP JUMPDEST PUSH1 0x0 PUSH2 0x71A DUP3 PUSH2 0x8ED JUMP JUMPDEST SWAP2 POP PUSH2 0x725 DUP4 PUSH2 0x8ED JUMP JUMPDEST SWAP3 POP DUP3 PUSH2 0x735 JUMPI PUSH2 0x734 PUSH2 0x93C JUMP JUMPDEST JUMPDEST DUP3 DUP3 DIV SWAP1 POP SWAP3 SWAP2 POP POP JUMP JUMPDEST PUSH1 0x0 PUSH2 0x74B DUP3 PUSH2 0x8C3 JUMP JUMPDEST SWAP2 POP PUSH2 0x756 DUP4 PUSH2 0x8C3 JUMP JUMPDEST SWAP3 POP DUP3 PUSH32 0x7FFFFFFFFFFFFFFFFFFFFFFFFFFFFFFFFFFFFFFFFFFFFFFFFFFFFFFFFFFFFFFF DIV DUP3 GT PUSH1 0x0 DUP5 SGT PUSH1 0x0 DUP5 SGT AND AND ISZERO PUSH2 0x795 JUMPI PUSH2 0x794 PUSH2 0x90D JUMP JUMPDEST JUMPDEST DUP2 PUSH32 0x8000000000000000000000000000000000000000000000000000000000000000 SDIV DUP4 SLT PUSH1 0x0 DUP5 SLT PUSH1 0x0 DUP5 SGT AND AND ISZERO PUSH2 0x7D2 JUMPI PUSH2 0x7D1 PUSH2 0x90D JUMP JUMPDEST JUMPDEST DUP3 PUSH32 0x8000000000000000000000000000000000000000000000000000000000000000 SDIV DUP3 SLT PUSH1 0x0 DUP5 SGT PUSH1 0x0 DUP5 SLT AND AND ISZERO PUSH2 0x80F JUMPI PUSH2 0x80E PUSH2 0x90D JUMP JUMPDEST JUMPDEST DUP3 PUSH32 0x7FFFFFFFFFFFFFFFFFFFFFFFFFFFFFFFFFFFFFFFFFFFFFFFFFFFFFFFFFFFFFFF SDIV DUP3 SLT PUSH1 0x0 DUP5 SLT PUSH1 0x0 DUP5 SLT AND AND ISZERO PUSH2 0x84C JUMPI PUSH2 0x84B PUSH2 0x90D JUMP JUMPDEST JUMPDEST DUP3 DUP3 MUL SWAP1 POP SWAP3 SWAP2 POP POP JUMP JUMPDEST PUSH1 0x0 PUSH2 0x862 DUP3 PUSH2 0x8ED JUMP JUMPDEST SWAP2 POP PUSH2 0x86D DUP4 PUSH2 0x8ED JUMP JUMPDEST SWAP3 POP DUP2 PUSH32 0xFFFFFFFFFFFFFFFFFFFFFFFFFFFFFFFFFFFFFFFFFFFFFFFFFFFFFFFFFFFFFFFF DIV DUP4 GT DUP3 ISZERO ISZERO AND ISZERO PUSH2 0x8A6 JUMPI PUSH2 0x8A5 PUSH2 0x90D JUMP JUMPDEST JUMPDEST DUP3 DUP3 MUL SWAP1 POP SWAP3 SWAP2 POP POP JUMP JUMPDEST PUSH1 0x0 PUSH2 0x8BC DUP3 PUSH2 0x8CD JUMP JUMPDEST SWAP1 POP SWAP2 SWAP1 POP JUMP JUMPDEST PUSH1 0x0 DUP2 SWAP1 POP SWAP2 SWAP1 POP JUMP JUMPDEST PUSH1 0x0 PUSH20 0xFFFFFFFFFFFFFFFFFFFFFFFFFFFFFFFFFFFFFFFF DUP3 AND SWAP1 POP SWAP2 SWAP1 POP JUMP JUMPDEST PUSH1 0x0 DUP2 SWAP1 POP SWAP2 SWAP1 POP JUMP JUMPDEST PUSH1 0x0 PUSH10 0xFFFFFFFFFFFFFFFFFFFF DUP3 AND SWAP1 POP SWAP2 SWAP1 POP JUMP JUMPDEST PUSH32 0x4E487B7100000000000000000000000000000000000000000000000000000000 PUSH1 0x0 MSTORE PUSH1 0x11 PUSH1 0x4 MSTORE PUSH1 0x24 PUSH1 0x0 REVERT JUMPDEST PUSH32 0x4E487B7100000000000000000000000000000000000000000000000000000000 PUSH1 0x0 MSTORE PUSH1 0x12 PUSH1 0x4 MSTORE PUSH1 0x24 PUSH1 0x0 REVERT JUMPDEST PUSH1 0x0 DUP1 REVERT JUMPDEST PUSH32 0x596F75206E65656420746F207370656E64206D6F726520455448210000000000 PUSH1 0x0 DUP3 ADD MSTORE POP JUMP JUMPDEST PUSH2 0x9A2 DUP2 PUSH2 0x8B1 JUMP JUMPDEST DUP2 EQ PUSH2 0x9AD JUMPI PUSH1 0x0 DUP1 REVERT JUMPDEST POP JUMP JUMPDEST PUSH2 0x9B9 DUP2 PUSH2 0x8C3 JUMP JUMPDEST DUP2 EQ PUSH2 0x9C4 JUMPI PUSH1 0x0 DUP1 REVERT JUMPDEST POP JUMP JUMPDEST PUSH2 0x9D0 DUP2 PUSH2 0x8ED JUMP JUMPDEST DUP2 EQ PUSH2 0x9DB JUMPI PUSH1 0x0 DUP1 REVERT JUMPDEST POP JUMP JUMPDEST PUSH2 0x9E7 DUP2 PUSH2 0x8F7 JUMP JUMPDEST DUP2 EQ PUSH2 0x9F2 JUMPI PUSH1 0x0 DUP1 REVERT JUMPDEST POP JUMP INVALID LOG2 PUSH5 0x6970667358 0x22 SLT KECCAK256 JUMP PUSH23 0xCD689A8FAB8434DF98AAFB87545489781B07AC16AC6029 0xF9 CHAINID 0xF 0x22 EXTCODECOPY MSTORE 0x28 PUSH5 0x736F6C6343 STOP ADDMOD SMOD STOP CALLER "
		},
		"gasEstimates": {
			"creation": {
				"codeDepositCost": "520600",
				"executionCost": "24822",
				"totalCost": "545422"
			},
			"external": {
				"addressToAmountFunded(address)": "2859",
				"fund()": "infinite",
				"getConversionRate(uint256)": "infinite",
				"getPrice()": "infinite",
				"getVersion()": "infinite",
				"owner()": "2536",
				"withdraw()": "infinite"
			}
		},
		"methodIdentifiers": {
			"addressToAmountFunded(address)": "3e47d6f3",
			"fund()": "b60d4288",
			"getConversionRate(uint256)": "6e5b6b28",
			"getPrice()": "98d5fdca",
			"getVersion()": "0d8e6e2c",
			"owner()": "8da5cb5b",
			"withdraw()": "3ccfd60b"
		}
	},
	"abi": [
		{
			"inputs": [],
			"stateMutability": "nonpayable",
			"type": "constructor"
		},
		{
			"inputs": [
				{
					"internalType": "address",
					"name": "",
					"type": "address"
				}
			],
			"name": "addressToAmountFunded",
			"outputs": [
				{
					"internalType": "uint256",
					"name": "",
					"type": "uint256"
				}
			],
			"stateMutability": "view",
			"type": "function"
		},
		{
			"inputs": [],
			"name": "fund",
			"outputs": [],
			"stateMutability": "payable",
			"type": "function"
		},
		{
			"inputs": [
				{
					"internalType": "uint256",
					"name": "ethAmount",
					"type": "uint256"
				}
			],
			"name": "getConversionRate",
			"outputs": [
				{
					"internalType": "uint256",
					"name": "",
					"type": "uint256"
				}
			],
			"stateMutability": "view",
			"type": "function"
		},
		{
			"inputs": [],
			"name": "getPrice",
			"outputs": [
				{
					"internalType": "uint256",
					"name": "",
					"type": "uint256"
				}
			],
			"stateMutability": "view",
			"type": "function"
		},
		{
			"inputs": [],
			"name": "getVersion",
			"outputs": [
				{
					"internalType": "uint256",
					"name": "",
					"type": "uint256"
				}
			],
			"stateMutability": "view",
			"type": "function"
		},
		{
			"inputs": [],
			"name": "owner",
			"outputs": [
				{
					"internalType": "address",
					"name": "",
					"type": "address"
				}
			],
			"stateMutability": "view",
			"type": "function"
		},
		{
			"inputs": [],
			"name": "withdraw",
			"outputs": [],
			"stateMutability": "payable",
			"type": "function"
		}
	]
}